S315080100000CE000201D00010831000108310001083B
S3150801001031000108310001083100010802F0D4B8A5
S31508010020DFF808D002F04BF902F008BAF8FD012012
S31508010030FEE76E2900F08284702900F0D3856629CF
S3150801004004F091A7652904F08EA7672904F08BA708
S31508010050612904F08AA703681B0A28BF41F08001B9
S31508010060692900F02F84642900F02C84752900F091
S3150801007029846F2900F05E85782900F09F85E92992
S3150801008000F0F684E42900F0F384F52900F0F08401
S31508010090EF2900F05B85F82900F09E850368DB09E6
S315080100A028BF41F08001632901F07C83732901F09F
S315080100B08183E32901F08C83F32901F091830020E0
S315080100C07047000040BA7047C0BA704700BEFEE7E5
S315080100D07047704753EA020C00F069802DE9F04B2E
S315080100E04FF00006002B1FBFB3FA83F503FA05F498
S315080100F024FA05F65E4012BF1643B2FA82F502FAF1
S3150801010005F4C5F120051EBF22FA05FC44EA0C04D4
S31508010110203556EA044C4FEA144418BF641C4FF0C4
S3150801012000084FF00009904271EB030C39D30029FE
S3150801013019BFB1FA81F701FA07F6B0FA80F700FAA2
S3150801014007F6C7F120071EBF20FA07FC46EA0C0688
S315080101502037B6FBF4FCA7EB0507103F07F01F0B8A
S31508010160CBF120060CFA0BFB2CFA06F644BFB34674
S315080101700026202FA4BF5E464FF0000B5BEA060C53
S3150801018008BF4FF0010B19EB0B09ABFB027C48EBDF
S315080101900608C01B06FB02CC0BFB03CC71EB0C015A
S315080101A0C1E70B46024641464846BDE8F08B13B502
S315080101B04FF000004FF0000100F010FBBDE81C40B5
S315080101C07047B2F120030AD5C2F1200301FA02F100
S315080101D020FA03F300FA02F041EA0301704700FA34
S315080101E003F14FF000007047B2F120030AD5C2F1BE
S315080101F0200320FA02F001FA03F321FA02F140EA98
S315080102000300704721FA03F04FF000017047B2F17D
S3150801021020030AD5C2F1200320FA02F001FA03F3FA
S3150801022041FA02F140EA0300704741FA03F04FEA46
S31508010230E171704710B54C1084EA530404D5404265
S31508010240C1F1000138BF491E1B4204D55242C3F110
S31508010250000338BF5B1EFFF73DFF14F0804F04D043
S315080102604042C1F1000138BF491E14F0004F04D0C5
S315080102705242C3F1000338BF5B1E10BD7CB515465B
S315080102801A460C00009001D02044401E074B7B44BF
S3150801029069460190284600F06CFB05461CB1002012
S315080102A0694600F079FB28467CBD0000110700006D
S315080102B00A460146014800F0B8BD00000C4400108A
S315080102C02DE9F04782460E4614469846DDF82090F9
S315080102D094B1012C0BD04A465046650805FB0867C0
S315080102E03946904700280CD00DDA2C46F0E74A46E5
S315080102F031465046904710B10020BDE8F087304698
S31508010300FBE73846F9E7641B641E07EB0806DFE7D7
S31508010310401ECAB210F8011F8A4202D00029F9D13B
S315080103200020704740EA010310B59B070DD1042A46
S315080103300BD310C808C9121F9C42F8D021BA1ABAA1
S315080103400120914200D8801E10BD1AB1D30703D0EF
S31508010350521C07E0002010BD10F8013B11F8014BB3
S315080103601B1B07D110F8013B11F8014B1B1B01D1CF
S31508010370921EF1D1184610BD40EA0103024630B576
S315080103809B0710D14FF0013400E008C208C91D1BB4
S315080103909D4315EAC41FF8D013F0FF0102F8011BAB
S315080103A00DD01B0AF8E711F8013B002B02F8013BB7
S315080103B005D011F8013B002B02F8013BF3D130BD02
S315080103C040EA010370B59B072CD14FF00136042A88
S315080103D028D308C810C9121F9D1B9D4315EAC615C7
S315080103E017D0D8B2E1B2401A50EA056110D198B2D5
S315080103F0A1B2401A50EA05410AD123F07F4024F000
S315080104007F41401A50EA052102D1180EA0EB14606B
S3150801041070BDA342DBD019BA22BA01209142F7D89E
S31508010420801E70BD0AB9002070BD10F8013B11F895
S31508010430014B63B1A3420AD1521E08D010F8013B01
S3150801044011F8014B1BB1A34201D1521EEDD1181B64
S3150801045070BD032A40F2308010F0030C00F01580BD
S3150801046011F8013BBCF1020F624498BF11F801CBA8
S3150801047000F8013B38BF11F8013BA2F1040298BF0D
S3150801048000F801CB38BF00F8013B11F0030300F077
S315080104906780083AC0F0088051F8043B083A51F8D9
S315080104A004CBA0E80810F5E7121D5CBF51F8043B20
S315080104B040F8043BAFF30080D20724BF11F8013B93
S315080104C011F801CB48BF11F8012B24BF00F8013BF5
S315080104D000F801CB48BF00F8012B7047431A28BF23
S315080104E09A427FF6B6AF032A1044114440F2268099
S315080104F010F0030F1EBF11F8013D521E00F8013D11
S3150801050010F0030F7FF4F6AF11F0030300F06D80CE
S31508010510083AC0F00B8051F8043D083A51F804CD69
S3150801052040F8043D40F804CDFFF7F3BF121D5CBF48
S3150801053051F8043D40F8043DAFF30080D20724BFCB
S3150801054011F8013D11F801CD48BF11F8012C24BF5E
S3150801055000F8013D00F801CD48BF00F8012C7047AD
S3150801056010B5203AC0F00B80B1E81850203AA0E83F
S315080105701850B1E81850A0E81850BFF4F5AF5FEA73
S31508010580027C24BFB1E81850A0E8185044BF18C926
S3150801059018C0BDE810405FEA827C24BF51F8043BCD
S315080105A040F8043B08BF7047D20728BF31F8023B21
S315080105B048BF11F8012B28BF20F8023B48BF00F8B5
S315080105C0012B7047431A28BF9A427FF6C9AF1044D8
S315080105D010F0030F11441EBF11F8013D521E00F819
S315080105E0013D10F0030F7FF4F6AF103AC0F00A8010
S315080105F010B531E91850103A20E91850BFF4F9AF8F
S31508010600BDE81040530724BF31E9081020E9081056
S3150801061044BF51F8043D40F8043D12F0030F08BFEA
S315080106207047D20728BF31F8023D48BF11F8012C9F
S3150801063028BF20F8023D48BF00F8012C704702F098
S31508010640FF0343EA032242EA024200F002B84FF0EE
S3150801065000020429C0F0128010F0030C00F01B8080
S31508010660CCF1040CBCF1020F18BF00F8012BA8BF8E
S3150801067020F8022BA1EB0C0100F00DB85FEAC17C52
S3150801068024BF00F8012B00F8012B48BF00F8012B05
S3150801069070474FF0000200B5134694469646203936
S315080106A022BFA0E80C50A0E80C50B1F12001BFF41C
S315080106B0F7AF090728BFA0E80C5048BF0CC05DF882
S315080106C004EB890028BF40F8042B08BF704748BFD0
S315080106D020F8022B11F0804F18BF00F8012B704744
S315080106E010B5044610F0030F08BF11F0030F40F0D0
S315080106F015804FF0013E121FC0F20E8051F8043BDF
S31508010700A3EB0E0C2CEA030C1CEACE1C08BF40F81E
S31508010710043BF0D0A1F1040102F10402521E08DBE8
S3150801072011F8013B002B00F8013BF7D11146FFF701
S315080107308EFF204610BD00004FF0013C50F8042BF7
S3150801074051F8043B9A4221D1A2EB0C03934313EAD5
S31508010750CC1317D150F8042B51F8043B9A4215D102
S31508010760A2EB0C03934313EACC130BD150F8042BD9
S3150801077051F8043B9A4209D1A2EB0C03934313EABD
S31508010780CC13DBD04FF00000704700BFD01A01BA76
S31508010790B1FA81F101F0180122FA01F0CB40C1F159
S315080107A02001DBB2C0B2C01A2CFA01F3D11A914367
S315080107B011EAC311E6D1704770B5064C7C44064D63
S315080107C07D4403E0206820448047241DAC42F9D1CA
S315080107D070BD000070E104007CE1040040F024BA19
S315080107E0004870473844001010B500F0A7FB0068B0
S315080107F010BD10B5044600F0A1FB046010BD70B52C
S315080108000446856900683026C10600D42026C0073B
S3150801081008D070BDD4E9012130469047206A00F11D
S31508010820010020626D1EF5D570BD70B50446856957
S315080108300068C00708D170BDD4E90121202090477E
S31508010840206A00F1010020626D1EF5D570BD0968A8
S315080108504A0501D540B27047C905FCD500B27047B3
S3150801086009684A0501D5C0B27047C905FCD580B2E9
S31508010870704770B505460C46012A05D028688006DA
S3150801088000D5EA69002302E0012305E05B1C9342D7
S3150801089002D2E05C0028F9D1A869E618C01AA86155
S315080108A0286A184428622846FFF7A9FF04E0D5E913
S315080108B0012114F8010B9047B442F8D32846FFF7F3
S315080108C0B4FF70BD2DE9F04107460025106875296A
S315080108D0394616A411D0FFF7BAFF002803DAC0F18A
S315080108E0000013A407E039688A0701D511A402E0BC
S315080108F0490704D510A4012501E0FFF7B1FF00213E
S315080109000A2307F1240607E0B0FBF3F203FB120002
S31508010910303070541046491C0028F5D12B46224622
S315080109203846BDE8F04100F052BB00000000000067
S315080109302D0000002B00000020000000116802684D
S31508010940006A530501D508700BE0D30501D5088067
S3150801095007E0130603D5C217C1E9000201E05206F2
S31508010960086001207047000001694A1C0261087885
S31508010970704700B58FB0CDE90131002105910549D0
S315080109807944CDE903101146684600F037F90FB0EE
S3150801099000BD0000E5FFFFFF0A6802F8010B0A60C7
S315080109A07047D1E900239A4202D2531C0B6010709A
S315080109B0704700002DE9FF5F04468A461546DFF8B1
S315080109C0AC80F8440027D8E900103E46CDE900106E
S315080109D011E03AF816106A4602A800F005FF411C14
S315080109E007D02168890603D5E269391891420ED8DC
S315080109F0074406F101062068800602D5E069B84277
S31508010A0005DDAE42E5DB3AF816000028E1D1A0691A
S31508010A10C01BA0612046FFF7F2FED8E90010CDE918
S31508010A200010002016E03AF818106A4602A800F0ED
S31508010A30DBFE8146401C0BD000250DF1080B05E0B5
S31508010A40D4E901211BF8050090476D1C4D45F7D3E4
S31508010A5008F10100B0428046E5DB206A384420628D
S31508010A602046FFF7E2FEBDE8FF9F00001AC1040019
S31508010A702DE9F0418046D21D22F007020026D2E96F
S31508010A800002F52914A512D0002A06DA0023D0EBB4
S31508010A90030063EB020211A508E0D8F800108B07E2
S31508010AA001D50FA502E0490701D50EA50126114674
S31508010AB0002408F1240704E000F044FA30323A55DC
S31508010AC0641C50EA0102F7D133462A4621464046BC
S31508010AD0BDE8F04100F07BBA000000002D000000DF
S31508010AE02B0000002000000030B4002100F124048E
S31508010AF00CE002F0070505F130054FEAD20242EA99
S31508010B004372655401F101014FEAD30352EA030521
S31508010B10EFD10468002310A2250708D504F02004A4
S31508010B200C4304D0C46901230CA2641EC46130BC01
S31508010B3000F04DBA10B5044621461068FFF790FE3D
S31508010B4002462046BDE810400023CDE7D21D22F01B
S31508010B500701D1E90023C7E70000000030000000C3
S31508010B60F0B40F460168090502D5234C7C4402E01E
S31508010B70214C7C440E34002100F124050BE002F0DF
S31508010B800F064FEA1212A65D42EA03724FEA1313E1
S31508010B906E5401F1010152EA0306F0D122460468B6
S31508010BA00023240704D5702F05D009B11132022379
S31508010BB0F0BC00F00CBA10320123F9E770B504460F
S31508010BC00D4621461068FFF74BFE02462946204688
S31508010BD0BDE870400023C3E7D21D22F00703D3E91D
S31508010BE00023BDE70368126843F020030360082366
S31508010BF0C3610023B4E7000078BF04002DE9F05F64
S31508010C004FF0000A044689464FF0800BC0F820A031
S31508010C102046E1688847002876D0252806D0D4E9F9
S31508010C2001219047206A401C2062F1E7564F0026B1
S31508010C307F442046E16888472028054608DB312D90
S31508010C4006D207EB050010F8200C08B10643F0E7B9
S31508010C50B00701D526F00406C4F81CA00027C4F87D
S31508010C6018A02A2D09D0284640F03CF838B304EBE1
S31508010C708708303DC8F8185019E059F8041B204672
S31508010C8004EB87029161E1688847012F054618D16F
S31508010C90E069002820DA26F020061DE0D8F81800B9
S31508010CA000EB800005EB40003038C8F818002046F4
S31508010CB0E1688847054640F015F80028EED1012F6E
S31508010CC00AD02E2D08D12046E16888477F1C0546A3
S31508010CD0022F46F02006C4DBA069002803DA404249
S31508010CE046F00106A061F00701D026F010066C2D2A
S31508010CF00BD0682D09D04C2D36D06A2D34D0742DE1
S31508010D0032D07A2D30D017E03BE0E1682F462046F5
S31508010D108847B84205460AD158466C2F01D04FF488
S31508010D208060E168064320468847054604E040207E
S31508010D306C2F00D0800006431DB3A5F14100192888
S31508010D4002D8203546F400664A46294620462660DA
S31508010D504E46FFF76EF990B101280DD0F61D26F023
S31508010D60070000F1080953E74C2D5046D9D05846DB
S31508010D706A2DD6D00020D4E706F1040948E72846AB
S31508010D804DE7206ABDE8F09FDCBE04002DE9F0417D
S31508010D900646484231EA00001DD02A20741C002567
S31508010DA0307000F0C7F80746002057F82520110FC4
S31508010DB01201092901F1570300D8273B401C0828CD
S31508010DC004F8013BF3DB6D1C052DEDDB00202070DB
S31508010DD03046BDE8F081042913D004DC012908D086
S31508010DE0022904D109E008290FD0102911D00020C1
S31508010DF0EFE700F09FF800680EE000F09BF8406806
S31508010E000AE000F097F8806806E000F093F8C068F9
S31508010E1002E000F08FF8006928B120F0030050F8CD
S31508010E20041C0844D5E741A0D3E72DE9F04709B1E9
S31508010E304B0902D00020BDE8F08732B113782A2B7E
S31508010E4006D0BDE8F04700F025B8BDE8F0479DE7B4
S31508010E50551C81460F464FF00108002400263146ED
S31508010E6015F8010B3928A0F1300200D9273A491C97
S31508010E70082942EA0616F3DB08FA04F0384203D0D9
S31508010E8000F058F840F82460641C052CE6DB394666
S31508010E904846DAE72DE9F04106460C461546880725
S31508010EA00AD511462248784442F0D8F8070090D06E
S31508010EB000F040F87F1C4760E0070AD029461C4825
S31508010EC078441A38AFF30080070082D000F032F870
S31508010ED0076060070AD52946154878443438AFF3C0
S31508010EE00080070021D000F025F8876020070AD581
S31508010EF029460F4878444E3842F09AF8070014D02C
S31508010F0000F018F8C760E0060AD52946084878446B
S31508010F106838AFF30080050007D000F00BF80561CB
S31508010F2021463046BDE8F04130E752E7430000006C
S31508010F3056D90400004870473C44001000487047E1
S31508010F405044001030B5B0F10A024FEA900E71F123
S31508010F5000034EEA817EB0EB0E0061EB91014FEA88
S31508010F60101E4EEA017E10EB0E0041EB11114FEAFD
S31508010F70102E4EEA016E10EB0E0041EB11214FEADD
S31508010F80104E4EEA014E10EB0E0041EB114140188E
S31508010F9041F100014FEAD00040EA41704FEAD10120
S31508010FA010EB80054FEA810444EA907444EB01048E
S31508010FB06D1944EB0404521BA3414FF0000348BFCB
S31508010FC00A3200D530BD401C41F1000130BD2DE982
S31508010FD0F0470D4604469246994600F124080168F1
S31508010FE0880604D5E06921F01001216000E001209E
S31508010FF00027A84201DDA0EB0507A16907EB050259
S3150801100002EB0300A1EB0000A0612068C00602D430
S315080110102046FFF7F4FB002608E0D4E901211AF877
S3150801102006009047206A401C761C20624E45F4DB78
S315080110302068C0060AD52046FFF7E1FB06E0D4E999
S31508011040012130209047206A401C2062381EA7F1F2
S315080110500107F4DC07E0D4E9012118F805009047F7
S31508011060206A401C2062281EA5F10105F3DC2046F2
S31508011070FFF7DBFB21680220090600D40120BDE841
S31508011080F08770472DE9FF4F0C461E464FF0FF3794
S315080110908DB0D2E90001DDF868800A908946C1F36E
S315080110A00A5505B93D46002108464FF00000B9F139
S315080110B0000F00F4400005DA00EB80004FF4400110
S315080110C001EA50004FEA905ABAF1010F00DDBA461B
S315080110D00A9850EA490030D044F61050A5F2FF3577
S315080110E04543CAF100000B902F14B8F1000F3DD00B
S315080110F075420B9A291E00DC524600DA694206A897
S3150801110000F0D8FB06AB07CB03AB07C348460A99E1
S3150801111000F042FC8DE80700A0F500501F3800904A
S315080111200398002D25DD42F21F015246084403A902
S315080111300390684600F0A1FE24E0B8F1010F4FF0D4
S31508011140000001D1F24307E0302101E02154401C9F
S31508011150B042FBDB30460022002121540D99C1F82B
S315080111600880C1E9002011B0BDE8F08FBD1B6D1CD8
S31508011170BFE7A0F5005052461F3803A903906846F9
S3150801118000F08FFE8DE807000004000C03D04FF035
S31508011190FF30410800E01046B8F1000F03D00022E5
S315080111A0009215461FE0751E06D4FFF7CBFE02F125
S315080111B0300262556D1EF8D5B3460122084302D0A6
S315080111C000227F1C04E02078302801D100227F1EEE
S315080111D0002A099789D01DE0112D07DAFFF7B2FE1B
S315080111E0303262556D1C50EA0102F5D108430FD120
S315080111F00021681E05E0235C625C6354491C225485
S31508011200401E8142F7DBAB46A81B401E099001E050
S31508011210009848B1002004F80B000D98099AC0F807
S315080112200880C0E9002B9EE711264FF000085CE70D
S315080112302DE9F04F88460446D21D22F0070191B0E8
S31508011240D1E90001CDE90A013EF092FE02460B986A
S31508011250C10F4FF02D0007D123682B205FEA837C4D
S3150801126002D4202000EAC300032A099001D0072AE4
S3150801127005DB03464146204600F0DEFA0BE120680D
S31508011280800601D5E06900E0062011238146B8F100
S31508011290650F06D0B8F1660F16D0B8F1670F6ED193
S315080112A030E00020B9F1110F0090484600DA431CDE
S315080112B00AAA01A90CA8FFF7E5FEDDE90C700026CC
S315080112C009F10105834646E001204B4600904FF09F
S315080112D000470AAA01A90CA8FFF7D4FEDDE90DB05B
S315080112E00C995D46002618B909F1010001EB0005C4
S315080112F0B9EB050003D4C0F1FF3609F10105A5EBE9
S31508011300090029E0B9F1010F01DA4FF001090020BE
S31508011310B9F1110F0090484600DC03460AAA01A953
S315080113200CA8FFF7AFFEDDE90C704D460026834693
S31508011330206800070AD4AB4500DA5D4601A8012DED
S3150801134004DD411911F8011C302907D04F4502DA8D
S3150801135017F1040F04DA0120824610E06D1EEEE74C
S31508011360002F02DCED1B3E4403E0781CA84200DD99
S315080113700546A7EB060000F1010A4FF00047206871
S31508011380000703D4AA4501DB4FF0FF3A0021B7F164
S31508011390004F0DF143088DF8431022D002202B236C
S315080113A0002F01DA7F422D230A22011EA0F1010036
S315080113B000DC4FB197FBF2F102FB117C0F460CF1F1
S315080113C0300C08F801CDF0E7A8F101004FF045010E
S315080113D003702268120500D46521A0F1010800F8FE
S315080113E0011C09980FA9A1EB080707F1070700B126
S315080113F0012000EB050101EBEA70A1693844A1EB74
S315080114000000A0F10100A0612068C00602D42046B0
S31508011410FFF7F5F9099830B1D4E901219047206A17
S3150801142000F1010020622068C00620D52046FFF79A
S31508011430E6F91CE0002E04DBB34502DD01A8805D58
S3150801144000E03020D4E901219047206A761C401C2F
S31508011450BAF1010A20620AD1FFF76CFDC06801687A
S31508011460405CD4E901219047206A401C2062281E6D
S31508011470A5F10105DEDC07E0D4E9012118F8010B25
S315080114809047206A401C2062381EA7F10107F3DC49
S315080114902046FFF7CAF9022065E600002DE9F04F5C
S315080114A004460D46D21D22F0070089B0D0E90097FF
S315080114B0484639463EF05CFD0246F80F4FF02D03CB
S315080114C006D120682B23810702D4202101EAC00313
S315080114D08DF820300BB1012000E00020032A824656
S315080114E001D0072A04DB2946204600F0A5F93CE18C
S315080114F02068800601D40D2500E0E569C7F30A5680
S315080115000D2D4ADA00214FEA175B08464FF0000015
S31508011510002F00F4400007DA00EB80004FF4400189
S3150801152000EBD07001EA60004FEAA05CBCF1010F44
S3150801153001DD4FF0FF3CAB000021182B06D30A460C
S31508011540A3F118004FF08051C14002E04FF4801218
S31508011550DA400C33202B03D3203B09FA03F001E0D0
S3150801156007FA03F0BCF1000F4FF0004801DD18B986
S3150801157013E012D1404510D319EB0103574199469F
S31508011580BCF1000F04D1404502D1974323EA010972
S31508011590BBEB175F01D006F101067B487844216849
S315080115A0090500D413384FF0300C08AA0AF10101D5
S315080115B002F80AC0037C002E0AF1020A535469464E
S315080115C001DD4FF0310C4FF001088DF800C002D053
S315080115D0A6F2FF3603E059EA470200D06B4E002D0A
S315080115E002DC2268120704D54FF002082E228DF874
S315080115F00120C44600230BE0C7F303423F01825C86
S315080116005B1C6D1E01F80820052B08F1010801DA9B
S31508011610002DF1DC00220CE000EB1973521C1B783B
S315080116206D1E082A01F8083008F101084FEA091960
S3150801163001DA002DF0DC2268920602D514E0A8F141
S315080116400108E04505DD01EB080212F8012C302AF4
S31508011650F5D0B8F1000F07DD01EB080212F8012CED
S315080116602E2A01D1A8F10108002D05DD3E2201F837
S3150801167008206D1E08F10108407C002E01F80800BB
S3150801168008F1010806DA2D2001F80800764208F16A
S31508011690010804E02B2001F8080008F101080A27CF
S315080116A04FF47A739E420ADB96FBF3F000F130029F
S315080116B003FB106601F8082008F1010801E0642E11
S315080116C00BDB642396FBF3F000F1300203FB106693
S315080116D001F8082008F1010801E00A2E07DB96FB4C
S315080116E0F7F000F1300001F8080008F1010896FB4F
S315080116F0F7F007FB106000F1300001F80800A16956
S3150801170008F1010808EB050202EB0A00A1EB00004B
S31508011710A0612068C00602D42046FFF770F8216A46
S3150801172008AE01EB0A00206204E0D4E9012116F8AB
S31508011730010B9047BAF1010AF7D22068C00602D513
S315080117402046FFF75CF86E4609E016F8010B3E28BD
S315080117500FD0D4E901219047206A401C2062B8F1D4
S315080117600108F2D22046FFF760F809B00220BDE869
S31508011770F08F206A2844206203E0D4E90121302051
S3150801178090476D1EEBD3F8E74BB7040002FCFFFF49
S3150801179010B5436913B1AFF3008001E0FFF769F8AB
S315080117A0012010BD126800F124010A7000224A7056
S315080117B00122EDE711684FF0FF32E9E710B54369F9
S315080117C013B1AFF3008001E0FFF7F4F8012010BD73
S315080117D0126800F1240182840022C2840122EDE705
S315080117E011684FF0FF32E9E770B505460C46164613
S315080117F000F01AF8036893F80101012806D0FF2CB6
S315080118000FD8185D68B101202C7070BDD3F8070197
S315080118103246214603442846BDE8704003F20713C1
S3150801182018474FF0FF3070BD10B5FFF783FB001D59
S3150801183010BD00BF291804002DE9F04104461F46D2
S3150801184003260168072A01F4006003DB15A520B900
S3150801185015A502E015A500B915A521F0100020600F
S31508011860A069C01EA0610FB1401EA0612046FEF707
S31508011870C6FF4FB1D4E9012138469047206A401C7A
S315080118802062C01C206206E0206AFAE7D4E9012139
S3150801189015F8010B9047761EF8D22046FEF7C5FFCC
S315080118A0BDE8F0814E414E006E616E00494E46001C
S315080118B0696E66002DE9F047814616468AB03548B5
S315080118C07844D0E9002380680092CDE90130314897
S315080118D078440C38D0E90223006903924FF03702A5
S315080118E0CDE9043041F69B30014491FBF2F0A0F1B9
S315080118F0800502FB10141B3C02D56442012000E05E
S315080119000020DFF890A080460027FA44AAF1C60A0B
S315080119100DE0E00709D03246684607EB47010AEBB6
S31508011920810100F0BEFA8DE8070064107F1C002CC7
S31508011930EFD1184F7F44B43F17E0E80713D007EB00
S3150801194004100DF1180A90E80E00AAE80E00C06806
S31508011950F04201D198190890324606A903A800F069
S31508011960A0FA03AB07C36D10641C002DE5D13246FE
S315080119706946B8F1000F03A802D000F07EFA01E02B
S3150801198000F08FFAC9E90001C9F808200AB0BDE8D4
S31508011990F0870000B8B404005FEA400C08BF91F074
S315080119A0000F4FEA8C234FEAC12243EA51514FEA0D
S315080119B01C5018BF00F5F0404FEA300018BF41F03F
S315080119C000415FEA6C5C00F02980BCF1FF3F08BF6B
S315080119D040F080407047130C06BF12044FF0100CFC
S315080119E04FF0000C130E04BF12020CF1080C130F72
S315080119F004BF12010CF1040C930F04BF92000CF101
S31508011A00020CD30F04BF52000CF1010C11464FF022
S31508011A100002A0F11F00A0EB0C00704711F0004F67
S31508011A2008BF704731F000413FF4D5AF0B0C06BF34
S31508011A3009044FF0100C4FF0000C0B0E04BF0902FD
S31508011A400CF1080C0B0F04BF09010CF1040C8B0FE8
S31508011A5004BF89000CF1020CCB0F04BF49000CF13D
S31508011A60010CCCF12003A0EB0C0022FA03F302FAD5
S31508011A700CF241EA030100F10100704720F07F4CA6
S31508011A8080EA030023F07F47ACEB070303F57C5399
S31508011A9000F0004003F1FF032DE980494FEA154B99
S31508011AA009B44FEA144325EA0B4E24EA03480FF218
S31508011AB0042606EB132749083E785FEA320203FB40
S31508011AC00667C7F5000707FB06F64FEA54374FEADC
S31508011AD0D64606F1020607FB066CCCF1005C4FEA16
S31508011AE01C472CEA074C07FB06F40CFB06F504EB2E
S31508011AF015464FEA961634BF00204FF000404FEACC
S31508011B00D13706FB07FC4FEA1C4C0CFB0BF7D21B23
S31508011B1003FB0CF761EB07010CFB0EF7B0EB074073
S31508011B2072EB17420CFB08F734BFA2EB0742B2EB84
S31508011B30074261EB17414FEA0C444FEA910706FB4E
S31508011B4007FC4FEA1C4C0CFB0BF7B0EBC74072EBDA
S31508011B50573203FB0CF734BFA2EBC742B2EBC742BD
S31508011B6061EB57310CFB0EF7B0EBC70072EB5772FE
S31508011B700CFB08F734BFA2EBC702B2EBC70261EB55
S31508011B805771039F4FEA816141EA921104EBCC0434
S31508011B904FEAD1374FEA826206FB07FC42EA901206
S31508011BA04FEA80604FEA1C4C0CFB0BF7D21B03FB78
S31508011BB00CF761EB07010CFB0EF7B0EB074072EB74
S31508011BC017420CFB08F734BFA2EB0742B2EB0742F8
S31508011BD061EB17414FEA8C554FEA910704EB9C24B8
S31508011BE006FB07FC4FEA1C4C0CFB0BF7B0EBC74096
S31508011BF072EB573203FB0CF734BFA2EBC742B2EBC9
S31508011C00C74261EB57310CFB0EF7B0EBC70072EB1D
S31508011C1057720CFB08F734BFA2EBC702B2EBC70237
S31508011C2061EB577115EB4C254FEA816141EA921137
S31508011C304FEA82624FEAD13742EA901206FB07FC65
S31508011C4044F100044FEA80604FEA1C4C0CFB0BF789
S31508011C50D21B03FB0CF761EB07010CFB0EF7B0EB8C
S31508011C60074072EB17420CFB08F734BFA2EB074299
S31508011C70B2EB074261EB174115EB1C154FEA8131AF
S31508011C8041EA92414FEA823242EA90424FEA803073
S31508011C904FEA0C7644F1000448EA03434EEA0B483E
S31508011CA04FF0000EB2EB080C71EB030724BF624636
S31508011CB039464EEB0E0E4FF0000B001852414941C2
S31508011CC04BEB0B0BB2EB080C71EB03077BF1000B2B
S31508011CD024BF624639464EEB0E0E4FF0000B001834
S31508011CE0524149414BEB0B0BB2EB080C71EB030765
S31508011CF07BF1000B24BF624639464EEB0E0E51EAC4
S31508011D00020718BF46F0010616EB0E7655F10002DA
S31508011D1054F1000103D5BDE88901BDE80088BDE895
S31508011D208901BDE80048B619524141EB0101A3F109
S31508011D300103704780807F7E7D7C7B7A7978777610
S31508011D4076757473727171706F6E6E6D6C6C6B6A89
S31508011D506A69686867666665646463636261616027
S31508011D60605F5F5E5E5D5D5C5C5B5B5A5A595958A4
S31508011D70585757565655555554545353525252510E
S31508011D80515050504F4F4F4E4E4D4D4D4C4C4C4B64
S31508011D904B4B4A4A4A4949494848484747474746AB
S31508011DA046464545454444444443434343424242E7
S31508011DB042414141002B26D4770021D01CB54FEA78
S31508011DC0370703B44FF010004FF010014FF0000031
S31508011DD00FBCBDE810400BF1010BBBF1010F08BFA9
S31508011DE05FEA170722BF12F1010211F101014FF053
S31508011DF0004143F1000300F0004043EA0000704748
S31508011E00F9D35708DAE746EA064613F1400F4FEACF
S31508011E1016461FDD13F1200FDFBF16430A460021C0
S31508011E2020335B42C8D0C3F1200746EA064602FAC8
S31508011E3007F74FEA164646EA0706C3F1200722FACC
S31508011E4003F201FA07F721FA03F14FF0000342EA18
S31508011E500702B1E746EA020646EA06464FEA164689
S31508011E6046EA0106BCBF46EA0646360C4FF00003B1
S31508011E704FF000024FF000019EE72DE9C048934656
S31508011E8030B491E8380007C831EA400C48BF34EA53
S31508011E90430C03D5FFF7F2FDFFF78CFFF0BCBDE855
S31508011EA000882DE9C048934630B491E8380007C840
S31508011EB010F0804F08BF13F0804F03D100F005F8EA
S31508011EC0FFF778FFF0BCBDE8008820F07F4780EA7D
S31508011ED0030023F07F4C07EB0C03A3F57C5300F0BA
S31508011EE00040A3F1FE0392F0000F00F0B38095F0D5
S31508011EF0000F00F077802DE901494FEA11404FEABA
S31508011F00144621EA004800FB06FC24EA064708FBBA
S31508011F1006F607FB08F800FB07F718EB06484CEB33
S31508011F20164C4FEA124B18EB07484FEA15464CEB8D
S31508011F30174022EA0B4E0BFB06FC25EA06470EFB69
S31508011F4006F607FB0EFE0BFB07F71EEB064E4CEBE0
S31508011F50164C4FF000061EEB074E4CEB174B18EBD1
S31508011F600B0840F1000018EB0E0B58EB000840F186
S31508011F7000008F1A4FF000013CBFC943661B14BF0E
S31508011F80B5EB040C00213CBFC943F61B4FEA1744C5
S31508011F904EEA8E0E27EA04454FEA1C4704FB076200
S31508011FA02CEA074C05FB07F70CFB05F604FB0CFCB2
S31508011FB016EB074642EB174216EB0C4642EB1C4260
S31508011FC01BEB060658EB0202414146EA9E0601D57D
S31508011FD0BDE80189B619524141EB0101A3F101039B
S31508011FE0BDE801894FEA14454FEA114724EA054637
S31508011FF021EA074C05FB07F406FB07F70CFB06F17C
S3150801200005FB0CFC11EB074144EB17444FEA124759
S3150801201011EB0C4144EB1C4422EA074C05FB07F281
S3150801202006FB07F70CFB06F605FB0CFC16EB074649
S3150801203042EB174216EB0C4642EB1C456A1854F163
S31508012040000148BF7047B619524141EB0101A3F19E
S315080120500103704795F0000F37D04FEA11424FEA56
S31508012060144721EA024624EA074C02FB07F106FB5C
S3150801207007F70CFB06F402FB0CFC14EB074441EBD7
S3150801208017414FEA154714EB0C4441EB1C4125EA6D
S31508012090074C02FB07F506FB07F70CFB06F602FBE6
S315080120A00CFC16EB074645EB174516EB0C4645EBBC
S315080120B01C42121951F1000148BF7047B619524125
S315080120C041EB0101A3F1010370474FEA14454FEAB9
S315080120D0114724EA054621EA074C05FB07F106FBE9
S315080120E007F70CFB06F24FF0000605FB0CFC12EB9A
S315080120F0074241EB174112EB0C4251EB1C4148BF19
S315080121007047921841EB0101A3F1010370470000E2
S3150801211070B5814216D002F0030522F0030203E0EE
S3150801212040C840C1A2F10402002AF9D10B4604466F
S3150801213005E014F8016B03F8016BA5F10105002D03
S31508012140F7DC00BF70BD10B501F0030321F00301F0
S3150801215004E04FF0000410C0A1F104010029F8D1F0
S31508012160024605E04FF0000402F8014BA3F1010312
S31508012170002BF7DC10BD70B50B4C0C4D0C4E3246DE
S3150801218029462046FFF7C4FF0A4C0B4D0B4E324633
S3150801219029462046FFF7BCFF094C0A4D2946204629
S315080121A0FFF7D1FF70BD00005C750808000000103C
S315080121B0000000005C750808000000107C0600009D
S315080121C07C060010343F0000FDF72ABF72B640486E
S315080121D0006840F470003E4908604FF001003D492F
S315080121E048603D48006820F402703B4908603B4856
S315080121F0006840F4FE60394908603948006840F0D3
S3150801220001003749086000BF3548006810F0020F21
S31508012210FAD04FF00000334908603148006820F0D1
S31508012220A0602F4908600846006840F480300860BD
S3150801223000BF2B48006810F4003FFAD02548006813
S31508012240C0B2112804D140F205602749086003E0AD
S3150801225040F2057024490860244825490860204849
S31508012260006840F080701E49086000BF1C4800687D
S3150801227010F0007FFAD049F202401A4908604FF47B
S3150801228080101C4908604FF0000001F10401086044
S3150801229001F1040108604FF08050174908604FF4B6
S315080122A0804001F1040108600D48006820F0010032
S315080122B00B4908604FF0010010490860704710B5D6
S315080122C0FFF784FF03F0EEF9FFF755FF10BD000095
S315080122D088ED00E0002004E014ED00E0FCED00E0EC
S315080122E00038024008380240003C02400C544007BE
S315080122F00438024030380240403802400038014074
S31508012300EFF3108272B602607047016881F3108894
S315080123107047EFF30581006809B14FF00100704776
S31508012320016881F31088704772B670470168EFF348
S31508012330108281F3108882F310887047EFF31080BA
S31508012340EFF3058180F0010009B14FF000007047F5
S31508012350EFF3108072B680F001007047EFF310803A
S3150801236062B680F001007047EFF3108172B6016022
S315080123707047016881F310887047000030B502463E
S315080123800B464FF001044FF00000A2FB041503FBB6
S31508012390045402FB00440846214630BD70472DE926
S315080123A0F04100BF1E4804681E4805681C480068BD
S315080123B0A042F7D100272022264630463946FDF7A6
S315080123C000FF2843BDE8F0817CB506464FF00001C1
S315080123D06846FFF795FFFFF7E2FF04463046FFF729
S315080123E0DDFF0546032D02D84FF0000501E0A5F1F2
S315080123F0030500BFFFF7D3FF001BA842FAD96846B9
S31508012400FFF783FF7CBD70B504464FF0A80004FBB7
S3150801241000F400BFA4F10505284600F02FF970BDA8
S3150801242024180040240C004001460A46906840687A
S31508012430704701460A469068806870470EB56FF086
S3150801244003006844324902E0324A40F804298842C6
S31508012450FAD231483149086031483249086001F0F9
S315080124607BFC3148314908442E49096808442D49FD
S31508012470086004F025FE2E49086002F0CCF803F046
S31508012480BFFE02F0AFF900200346022204210090A4
S3150801249028A001F080FA2DA32FA2324932A001F01B
S315080124A07AFA384938A001F076FA01A902A801F0AA
S315080124B045FCDDE90110FEF7CAF83AA03FF032FC07
S315080124C0284939A03FF02EFC39A137A03FF02AFC54
S315080124D021A13AA03FF026FC1CA138A03FF022FC1E
S315080124E001214EF6602005F069FC0121022005F064
S315080124F0C3FE0121084605F05DFC04F0EFFC32A09D
S315080125003FF010FC39A03FF0B1F908F00DFE0EBD01
S3150801251000D001200DF0ADBA000001080800001036
S315080125205C7507000C000010000000007C06000026
S31508012530000000102E4E65744D46207625642E2522
S31508012540642E25642E25640D0A00000031343A30C4
S31508012550363A3335000000004665622031332032B1
S31508012560303133004851050825732C204275696CB2
S315080125706420446174653A0D0A0925732025730D93
S315080125800A0000005944060041524D20436F6D7000
S31508012590696C65722076657273696F6E2025640DA4
S315080125A00A0000000C000000252D3135730D0A00C4
S315080125B04275696C6420446174653A002020252DB2
S315080125C03133730D0A0000000C6D61696E20657860
S315080125D06974656421213F3F3F2E202048616C7450
S315080125E0696E67204350550D0A0000006D61696EDA
S315080125F02065786974656421213F3F3F2E20204874
S31508012600616C74696E67204350550D0A000000001D
S3150801261070B504460D464FF00000FFF78FFE08B16E
S31508012620FDF754FD2946204604F04EFA08F07CFDD4
S3150801263070BD000004B02DE9FF0F6846EFF3058170
S31508012640FFF7E6BF81B000B52DE9FF5F6846EFF3F6
S315080126500381C163AFF300801CB504464FF0000146
S315080126606846FFF74DFE0021204604F02DFA08F0D2
S315080126705BFD6846FFF749FE1CBD0000001FFDDC37
S31508012680F74600000149086070470000382C0140F0
S315080126900149086070470000382C0140014908606B
S315080126A070470000A08025424FF000010D4B0268DB
S315080126B01A6003F1040342681A6003F104021168FF
S315080126C021F0F701D0E9022342EA0302036942EA4B
S315080126D00302436942EA030242EA0101024A11601E
S315080126E070470000242C01402C2C01400548006845
S315080126F040F40060034908600846006820F4006059
S31508012700086070472438024001480068C0B2704723
S31508012710102C014001464FF00000054A12680A4292
S3150801272002D04FF0010001E04FF0000070470000B1
S31508012730342C014001464FF00000054A12680A424E
S3150801274002D04FF0010001E04FF000007047000091
S31508012750342C01400248006800F00300704700006D
S31508012760002C014001464FF00002024801EB00022D
S3150801277010687047142C014031B1074A126842EAC1
S315080127800002054B1A6005E0034A126822EA0002B4
S31508012790014B1A60704700003C2C01404FF00001C4
S315080127A00D4A116847F6FF6221EA0201027D836834
S315080127B042EA0302436842EA0302C36842EA0302A1
S315080127C0036842EA0302036942EA030242EA010193
S315080127D0014A116070470000042C01400148006855
S315080127E070470000802C01404FF000010B4B026836
S315080127F01A6003F1040211686FF30A01D0E9012393
S3150801280042EA0302C36842EA0302036942EA03028F
S3150801281042EA0101024A116070470000082C014092
S315080128200C2C01400149086070470000002C01404A
S315080128300149086070470000802C01404FF00100F3
S315080128407047000070B504464FF00005224800683D
S31508012850032803D14FF02705284670BD1E48006896
S3150801286038B11D480068012803D01B4800680228B2
S3150801287030D1B4F5805F03D14FF027052846ECE740
S31508012880B4F5006F15D1012001F0F2F805460DBB2C
S315080128904FF00000114908750860486088604FF4D8
S315080128A00060C8604FF0000008610846FFF776FF30
S315080128B010E0002001F0DCF805465DB94FF0000094
S315080128C006490875086048608860C8600861084656
S315080128D0FFF764FF2846C0E7B0050010C84300109B
S315080128E0F0B501464FF000000246DA4B1B6881F845
S315080128F05630D94B1B68A1F85430D84B1B684FEAA0
S3150801290013624FEA92130B70C2F383034B7002F002
S3150801291003038B70D14B1B68C3F30742CA70CF4BB5
S315080129201B68C3F307220A71CC4B1B68DAB24A71DA
S31508012930CA4B5B684FEA13624FEA0213CB80C74B57
S315080129405B68C3F30742CB8843EA1213CB8002F0D4
S315080129500F030B72C14B5B68C3F307224FEAD2130D
S315080129604B72C2F380138B72C2F34013CB72C2F35C
S3150801297000130B7303464B73B64B1B681BB1B54B60
S315080129801B68012B5ED14FEA82734FEA13530B6121
S31508012990B24B5B68DAB20B6943EA82030B61AF4B50
S315080129A09B684FEA13620B6943EA92130B61C2F300
S315080129B0C2030B7502F007034B75A84B9B68C3F35B
S315080129C007424FEA52138B75C2F38203CB754FEA5E
S315080129D082734FEA53730B76A04B9B68C3F30722A6
S315080129E00B7E43EAD2130B760B6903F101034FF011
S315080129F00004C1E912340B7ED1E9125403F1020332
S31508012A004FF0010606FA03F34FEAE377A5FB036CD9
S31508012A1004FB03C305FB0733C1E912630C7A4FF0C4
S31508012A20010303FA04F30B654FF00006D1E91254CA
S31508012A300B6DA5FB037C04FB03C305FB0633C1E948
S31508012A4012732BE0834B1B68022B27D1834B5B68E0
S31508012A50DAB24FEA82634FEA93230B617F4B9B6895
S31508012A604FEA13620B6943EA02230B617B4B9B68AE
S31508012A70C3F307420B6943EA02030B61774B9B6871
S31508012A80C3F307220B6903F101034FEAC3434FF06E
S31508012A900004C1E912344FF400730B65C2F38013C5
S31508012AA001F8193F4FEA82634FEA53634B706B4B48
S31508012AB09B68DAB24B7843EAD2134B7002F07F0374
S31508012AC08B70664BDB684FEA13624FEAD213CB7001
S31508012AD0C2F341130B71C2F382034B714FEA82733E
S31508012AE04FEA13738B715D4BDB68C3F307428B792E
S31508012AF043EA92138B71C2F34013CB714FF0000373
S31508012B000B7202F001034B72544BDB68C3F30722C5
S31508012B104FEAD2138B72C2F38013CB72C2F34013FE
S31508012B200B73C2F300134B73C2F381038B7302F069
S31508012B300303CB73494BDB68DAB24FEA52030B74D2
S31508012B404FF001034B74464B1B684FEA1362CA7474
S31508012B50A1F11901424B1B68C3F307424FEA02234D
S31508012B60CB853F4B1B68C3F30722CB8D43EA020390
S31508012B70CB853B4B1B68DAB24FEA02640C63384BD0
S31508012B805B684FEA13620B6B43EA02440C63344BEE
S31508012B905B68C3F307420B6B43EA02240C63304BB1
S31508012BA05B68C3F307220B6B43EA02030B632C4BE7
S31508012BB05B68DAB24FF034035A54294B9B684FEAE3
S31508012BC013624FF035035A54254B9B68C3F30742EA
S31508012BD04FEA02648C63224B9B68C3F307228B6B13
S31508012BE043EA02448C631E4B9B68DAB28B6B43EA59
S31508012BF002248C631A4BDB684FEA13628B6B43EA38
S31508012C0002038B63164BDB68C3F307424FF03C03A1
S31508012C105B5C43EA12134FF03C0463544FEA0273B8
S31508012C204FEA1353CB870E4BDB68C3F30722CB8FCF
S31508012C3043EA0203CB870A4BDB68DAB24FEA52034F
S31508012C404FF0400463544FF001044FF041035C54C4
S31508012C50F0BD0000B0050010B40500104043001097
S31508012C605043001008B54FF000000090FFF7E6FD4D
S31508012C70012809D1684600F029FB08B1FF2008BDE3
S31508012C800098C0F34320FAE7FF20F8E710B54FF0A4
S31508012C900404FFF7E7FF0446042C01D1002010BD08
S31508012CA0FF2C01D10220FAE70120F8E710B54FF011
S31508012CB00004FFF71BFD00F0DDF804460CB12046C1
S31508012CC010BD00F029F804460CB12046F8E74FF08C
S31508012CD000000F490875086048608860C860086187
S31508012CE00846FFF75BFD0B48FFF7FAFD044634B9C2
S31508012CF00849B1F85410080400F0CAFA044624B980
S31508012D004FF40060FFF79EFD04462046D8E7000011
S31508012D10C84300107043001038B54FF000044FF057
S31508012D2001000090FFF716FD18B94FF0250420465B
S31508012D3038BD4B48006804282CD04FF0000049499B
S31508012D4008604FF0020048604FF0C00088604FF0FD
S31508012D500000C8604FF4806008610846FFF744FD2B
S31508012D6001F04EFA04460CB12046E1E70020FFF7D0
S31508012D70F9FC3D4908600420FFF7F4FC3A4948602C
S31508012D800820FFF7EFFC384988600C20FFF7EAFCBA
S31508012D903549C8603248006858B131480068012889
S31508012DA007D02F480068062803D02D480068022856
S31508012DB01AD14FF000002B4908604FF00300486014
S31508012DC04FF0400088604FF00000C8604FF4806003
S31508012DD008610846FFF708FD6946032001F056FA1F
S31508012DE004460CB12046A3E71D480068042832D0E2
S31508012DF0BDF800001D490860BDF800004FEA004013
S31508012E00184908604FF0090048604FF0C000886013
S31508012E104FF00000C8604FF4806008610846FFF76C
S31508012E20E3FC01F0EDF904460CB1204680E70020E9
S31508012E30FFF798FC0E4908600420FFF793FC0C493C
S31508012E4048600820FFF78EFC094988600C20FFF7C7
S31508012E5089FC0749C8604FF00004204668E700006E
S31508012E60B0050010E043001050430010B4050010EF
S31508012E70404300102DE9F0414FF00004264625464F
S31508012E802746A0464FF07600654908754FF00000C1
S31508012E90086048608860C86008610846FFF77EFCDC
S31508012EA00320FFF7BFFC0120FFF7F8FB20465D4929
S31508012EB0086048608860C8604FF480600861084609
S31508012EC0FFF792FC08F032F9044614B12046BDE832
S31508012ED0F0814FF4D570534908604FF008004860F7
S31508012EE04FF0400088604FF00000C8604FF48060E2
S31508012EF008610846FFF778FC01F018FA044634B968
S31508012F004FF00100484908604FF0804816E04FF03D
S31508012F100000444908604FF0370048604FF0400010
S31508012F2088604FF00000C8604FF480600861084669
S31508012F30FFF75AFC372001F0C5F804464FF00000A8
S31508012F40384908604FF0370048604FF04000886004
S31508012F504FF00000C8604FF4806008610846FFF72B
S31508012F6043FC372001F0AEF80446002C55D13FE06A
S31508012F704FF000002B4908604FF0370048604FF0CA
S31508012F80400088604FF00000C8604FF48060086117
S31508012F900846FFF729FC372001F094F804460CB1DE
S31508012FA0204694E7214848EA00001E4908604FF088
S31508012FB0290048604FF0400088604FF00000C86063
S31508012FC04FF4806008610846FFF70EFC01F040F9EE
S31508012FD004460CB120467AE70020FFF7C3FB0646F4
S31508012FE04FF0010080EAD67080F0010705F101056E
S31508012FF01FB94FF6FF708542BAD34FF6FF70854267
S3150801300003D34FF01B04204661E706F08040060013
S3150801301003D04FF0020004490860204657E7000034
S31508013020C8430010E0430010B005001000001080EE
S3150801303010B54FF48070FFF77DFB60B14FF00000CB
S31508013040274908704FF48070FFF722FB4FF0010003
S31508013050244908603CE00220FFF76CFB38B10220E6
S31508013060FFF716FB4FF002001D49087030E00820F3
S31508013070FFF760FB38B10820FFF70AFB4FF00400A1
S315080130801749087024E02020FFF754FB38B12020A7
S31508013090FFF7FEFA4FF006001149087018E01020F4
S315080130A0FFF748FB38B11020FFF7F2FA4FF0050099
S315080130B00B4908700CE04FF40070FFF73BFB38B181
S315080130C04FF40070FFF7E4FA4FF00700044908705F
S315080130D000214CF23A30FFF74FFB0148007810BD4A
S315080130E0BC050010C00500102DE9F04781460E46C3
S315080130F017464FF0000844464D4620465D4908707C
S315080131005D4908605D4908605D4908605D48006879
S31508013110022803D14FF400774FEA56265A4807602A
S315080131204FF01000584948604FF0400088604FF052
S315080131300000C8604FF4806008610846FFF754FB39
S31508013140102000F0BFFF8046B8F1000F02D04046BC
S31508013150BDE8F0874FF0FF304C49086008464760E4
S315080131604FF0900088604FF00200C8604FF00000F1
S3150801317008614FF0010048610846FFF795FA424891
S3150801318006604FF01100404948604FF040008860E2
S315080131904FF00000C8604FF4806008610846FFF7E9
S315080131A023FB112000F08EFF8046B8F1000F01D0F5
S315080131B04046CDE711E04FF40040FFF7ABFA60B1A6
S315080131C04FF0000405E0FFF709FB45F8240004F178
S315080131D00104082CF7D305F12005294808300068B1
S315080131E040F22A610842E6D00820FFF793FA30B187
S315080131F00820FFF747FA4FF004084046A8E70220DF
S31508013200FFF788FA30B10220FFF73CFA4FF00208BF
S3150801321040469DE72020FFF77DFA30B12020FFF7D1
S3150801322031FA4FF00608404692E74FF40070FFF76F
S3150801323071FA38B14FF40070FFF724FA4FF0070816
S31508013240404685E74FF0FF3406E0FFF7C7FA2860E6
S3150801325005F10405A4F101044FF40010FFF75AFA29
S3150801326008B1002CF1D140F2FF50FFF70BFA4046A6
S315080132706EE70000BC050010C0050010B805001077
S315080132802C2C0140B0050010E0430010F443001057
S3150801329070B504464FF000050B4804604FF007006F
S315080132A0094948604FF0400088604FF00000C86047
S315080132B04FF4806008610846FFF796FA072000F088
S315080132C001FF0546284670BDE043001070B5044667
S315080132D04FF000051CB94FF02605284670BD114868
S315080132E000684FEA0040104908604FF00D00486039
S315080132F04FF0400088604FF00000C8604FF48060CE
S3150801330008610846FFF770FA0D2000F0DBFE054656
S315080133100DB12846E2E70020FFF724FA2060284687
S31508013320DCE70000B4050010E043001010B54FF0CB
S31508013330000420460B4908604FF00C0048604FF026
S31508013340400088604FF00000C8604FF48060086153
S315080133500846FFF749FA0C2000F0B4FE0446204659
S3150801336010BD0000E04300102DE9F05F82460F46CC
S3150801337090464FF000094C462546A3465646204638
S3150801338065490870654908606549086065490860C6
S3150801339065480068022803D14FF400784FEA572799
S315080133A06248C0F800804FF01000604948604FF04D
S315080133B0400088604FF00000C8604FF480600861E3
S315080133C00846FFF711FA102000F07CFE8146B9F194
S315080133D0000F02D04846BDE8F09F544807604FF0F9
S315080133E01800524948604FF0400088604FF00000CD
S315080133F0C8604FF4806008610846FFF7F5F91820A0
S3150801340000F060FE8146B9F1000F01D04846E2E7B7
S315080134104FF0FF30464908600846C0F804804FF06F
S31508013420900088604FF00000C86008614FF0010005
S3150801343048610846FFF738F937E04FF48040FFF74F
S3150801344069F990B3C4F5007020281FD2C4F10000B1
S3150801345010F0030F04D1C4F500704FEA900005E09F
S31508013460C4F500704FEA900000F1010083464FF061
S31508013470000508E03068FFF7DBF905F1010506F1FB
S31508013480040604F104045D450FD2F3E74FF0000585
S3150801349005E056F82500FFF7CBF905F10105082DDA
S315080134A0F7D306F1200604F120041E480830006807
S315080134B040F21A610842C0D00820FFF72BF930B153
S315080134C00820FFF7DFF84FF00409484683E7022092
S315080134D0FFF720F930B10220FFF7D4F84FF00209BF
S315080134E0484678E71020FFF715F930B11020FFF7A5
S315080134F0C9F84FF0050948466DE74FF40070FFF724
S3150801350009F938B14FF40070FFF7BCF84FF0070915
S31508013510484660E748465EE7BC050010C00500104E
S31508013520B80500102C2C0140B0050010E04300102E
S31508013530F443001010B504464FF00000FEF7FEFEF6
S3150801354008B1FCF7C3FD044850F82400A0F10100B6
S31508013550014941F8240010BDBC06001010B5044607
S315080135604FF00000FEF7EAFE08B1FCF7AFFD04488C
S3150801357050F82400002801DD012010BD0020FCE7D9
S31508013580BC06001010B504464FF00000FEF7D6FE43
S3150801359008B1FCF79BFD044850F8240000F101002E
S315080135A0014941F8240010BDBC06001011B581B0CF
S315080135B000BF4FF0000413F0CEFC002003460222A0
S315080135C0042100903CA03BF0E5FD0BF017FD43A05C
S315080135D03BF0E0FD454801993BF0E8FA002810DB8D
S315080135E042483BF0F1FC00280BDB41A03BF0D2FD41
S315080135F0BDF804200021414823F03EFE40A03BF0DF
S31508013600C9FD3E48006810F0005F1FD13B480068BD
S3150801361020F44060394908600846006840F40060B3
S31508013620086039480068006850B1012036490090A1
S31508013630096800231A46086809210BF0B1FC00E065
S3150801364000BF9DF8070008B118F05AFA2B48006820
S3150801365010F0005F2BD02948806800F0010001288E
S3150801366023D104462548806800F00500052802D1C3
S315080136704FF0010001E04FF000008DF80600002030
S31508013680FEF766FE00BF214827F0E8FF21F068FF34
S315080136904FF000001549087100BF01F073FC01F0F5
S315080136A0A1F80020FEF75AFE01E007F003FE002C00
S315080136B07FF47FAF1CBD00000D0A54696E79434C37
S315080136C05220284275696C642025642E25642E25AE
S315080136D0642E2564290D0A0D0A00000053746172CF
S315080136E074696E672E2E2E0D0A0000001800001050
S315080136F052656164792E0D0A00000000101A001047
S31508013700446F6E652E0D0A00A8000010782100107E
S315080137107CB504464FF000016846FEF7F1FD0848FE
S31508013720006800EA04060648006820EA040004491D
S31508013730086035466846FEF7E8FD28467CBD000068
S31508013740740000101CB504464FF000016846FEF7E8
S31508013750D7FD0948006840EA040007490860074898
S31508013760006820B106480068044909688847684620
S31508013770FEF7CBFD1CBD0000740000107800001098
S315080137807C0000102DE9F04788B004460E469046A5
S315080137909A46DDF840901CB9012008B0BDE8F087CB
S315080137A0306810B1B8F1000F01D10020F5E735688E
S315080137B005F1B0003060A8F101084FF0B0012846C4
S315080137C0FCF767FFBAF1000F01D0504600E020462A
S315080137D0286020463CF0AAF8686000BF6078A860B7
S315080137E000BF6088E860B9F1000F05D04FF0980076
S315080137F0D9F80010415109E0214602A820F054FFEA
S31508013800002803DB4FF0980003994151686837286F
S3150801381031D2DFE800F09F1C1D1E1F202122232420
S315080138202526272829315461626A5588898A7C2A7E
S315080138307D86878B8C8D8E8F909192939495969792
S3150801384098999A9B9F9F9F9F9F9F9C9D9E0000BFB3
S3150801385000BF00BF00BF00BF00BF00BF00BF00BF61
S3150801386000BF00BF00BF00BF00BF00BF04F10400D6
S3150801387003C8C5E904016DE000BF60680746B7B132
S3150801388005F190056F60384600F0D5FA286055F8BD
S3150801389090097F2802D2D5F8900000E07F200346E0
S315080138A03A46802105F1100000F07CFE06E04FF053
S315080138B00000C5F89400C5F8900028744AE000BFD6
S315080138C020463BF0F6FE0746002342463146CDF830
S315080138D00090FFF757FF60E700BF00BF04F104003F
S315080138E04FF098010068485134E02046C168C5F890
S315080138F09C10044604F104014988C5F8A01000BFCC
S3150801390004F104014FF0A4024968515122E021E073
S3150801391000BF6068C5F8A80000BFA068C5F8AC007C
S3150801392018E017E016E000BF00BF00BF00BF00BFE8
S3150801393000BF00BF00BF00BF00BF00BF00BF00BF80
S3150801394000BF00BF00BF00BF00BF00BF00BF00BF70
S3150801395000BF00BF00BF01201FE770B504460D4632
S315080139602946204608F0BFF870BD02464FF001000F
S31508013970704701464FF0FF30704703464FF0FF305E
S31508013980704770B504460D46164632462946204606
S315080139900AF0C0FC70BD0FB438B505A800900099AF
S315080139A0049800F05FF904464FF0000000902046A5
S315080139B038BC5DF814FB10B504464FF0FF012046EC
S315080139C000F07EF910BD2DE9FE4304460D464FF081
S315080139D00007A046394601A8FEF792FC0021404699
S315080139E004F077FC052007F099FB012D13D102207D
S315080139F00346002211460090404604F005FA0520C8
S31508013A0007F08CFB404602F031FEC7B24FF0370093
S31508013A1007F084FB06E00021404602F055FE4620E9
S31508013A2007F07CFB0121404604F053FC052007F012
S31508013A3075FB01A8FEF774FC17B14FF0010701E009
S31508013A404FF000073E4601A8FEF75FFC3046BDE889
S31508013A50FE8310B50446204608F076F810BD6128A5
S31508013A6004DB7A2802DCA0F1200188B27047000045
S31508013A707CB505464FF00004204600900190FEF7FC
S31508013A8071FE10F0007F03D04FF00E0420467CBD76
S31508013A9069464548006880B207F0F2F904460CB158
S31508013AA02046F4E7012D3FD1019810F4802F37D035
S31508013AB03D4800684FEA00403C4908604FF037002E
S31508013AC048604FF0400088604FF00000C8604FF42E
S31508013AD0806008610846FEF787FE372000F0F2FA93
S31508013AE004460CB12046D2E74FF002002F49086080
S31508013AF04FF0060048604FF0400088604FF0000024
S31508013B00C8604FF4806008610846FEF76DFE06201E
S31508013B1000F0D8FA04460CB12046B8E72046B6E7C5
S31508013B204FF025042046B2E7019810F4803F37D0BC
S31508013B301D4800684FEA00401C4908604FF03700ED
S31508013B4048604FF0400088604FF00000C8604FF4AD
S31508013B50806008610846FEF747FE372000F0B2FA92
S31508013B6004460CB1204692E74FF000000F49086061
S31508013B704FF0060048604FF0400088604FF00000A3
S31508013B80C8604FF4806008610846FEF72DFE0620DE
S31508013B9000F098FA04460CB1204678E7204676E705
S31508013BA04FF02504204672E7B4050010E0430010E3
S31508013BB003464FF0FF30704702464FF0FF3070471B
S31508013BC030B50546039C4FF0FF3030BD70B506464B
S31508013BD0DDE904454FF0FF3070BD03464FF0FF3075
S31508013BE0704710B5044620460AF016FC10BD70B59C
S31508013BF004460D4616463246294620460AF0B6FCC4
S31508013C0070BD0FB438B5044606A800902046009A40
S31508013C10059900F01BF905464FF00000009028466B
S31508013C2038BC5DF814FB30B503460C464FF000016D
S31508013C300A4600BF13F8015B2946412D03DB5A29C1
S31508013C4001DC01F1200114F8015B2A46412D03DB51
S31508013C505A2A01DC02F1200209B19142EAD0881AF6
S31508013C6030BD000013B50446034948692146019A47
S31508013C7000F0ECF81CBD00004000001030B503460A
S31508013C806AB14FF0000007E00C4C04EBC304245C56
S31508013C900C5400F10104E0B20828F5DB0CE04FF002
S31508013CA0000007E00C5C054D05EBC3052C5400F13B
S31508013CB00104E0B20828F5DB30BD0000AC3600107F
S31508013CC02DE9F04107460C464FF0000635460EE051
S31508013CD004F001013846FFF776FE00FA05F040EADE
S31508013CE00600C6B24FEA640405F10100C5B2082D03
S31508013CF0EEDB3046BDE8F08170B505460C46214637
S31508013D002846FFF7DDFFA04201D1012070BD002042
S31508013D10FCE700001CB504464FF000016846FEF7B3
S31508013D20EFFA0548006820EA040003490860684676
S31508013D30FEF7EBFA1CBD000074000010044A02608D
S31508013D40044A034BA2EB030202F104020A6070471C
S31508013D5000000020F89F012010B540F06CFF03A178
S31508013D6003480068FCF7A4FA10BD00000000000033
S31508013D707CC8050810B5029C10BD0020704738B5EF
S31508013D8004464FF002004FF000031A461946009008
S31508013D90204604F039F838BD38B504464FF002001C
S31508013DA04FF000031A4619460090204604F02CF8F5
S31508013DB0204602F05BFC38BD03464FF00000704711
S31508013DC003464FF0FF30704770B504460D46294645
S31508013DD0204608F038FF70BD0FB4F8B504460D4605
S31508013DE009A8009029462046009B089A00F0F9FB8D
S31508013DF006464FF0000000903046F8BC5DF814FB0B
S31508013E002DE9F04107460D4614460FB104B115B91F
S31508013E100120BDE8F081204600F00DF8064606F1BE
S31508013E200100854201D20120F3E721463846FCF715
S31508013E30A3FA0020EDE701460A4600BF12F8013B46
S31508013E40002BFBD1501A401E70470000F7B5ADF59F
S31508013E50007D06460F464FF000043A464FF40071BE
S31508013E606846829B00F0BDFB044606F47F40B0F528
S31508013E70407F10D006DCB0F5807F0AD0B0F5007F10
S31508013E8027D107E0B0F5A06F17D0B0F5C06F20D1E4
S31508013E9007E000BF00BF22466946304601F06EFDC5
S31508013EA017E00E48006838B14FF000000DF804001D
S31508013EB068460A49096888470BE04FF0000505E09E
S31508013EC01DF8050003F0C5FC05F10105A542F7DB60
S31508013ED000BF00BF20460DF5037DF0BD140000109C
S31508013EE030B5114B1B6803F101034FF00A0493FB2C
S31508013EF0F4F504FB15330C4C236023461B6803EBCE
S31508013F0043030A4C44F82300074B1B6803EB43039E
S31508013F1004EB83035960044B1B6803EB430304EB6F
S31508013F2083039A6030BD00001C030010743500102D
S31508013F30F8B5044626464FF00001304604F0C9F9A3
S31508013F404FF4167007F0EAF80220034600221146DC
S31508013F500090304603F058FF412007F0DFF830465D
S31508013F6002F084FBC5B24FF4BA7007F0D7F80DB961
S31508013F700120F8BD0020FCE70B20704770B5044608
S31508013F800E461248006810F4807F13D10F48006866
S31508013F9040F480700D4908604FF000000C49086034
S31508013FA00C49C86248604FF0010088600A48C86039
S31508013FB00A480861204601F01DFE05460123002234
S31508013FC0114601F037FE012070BD00004438024059
S31508013FD004230140002001409224490292244912F7
S31508013FE0F0B59DB004460D464FF0000104A81AF03D
S31508013FF0FFFF04A968461FF0F1FB12A9204602F04B
S315080140009FFA071E00DA55E007A9284602F098FA32
S31508014010071E00DA4EE09DF8200068B19DF84E00B3
S3150801402010B94FF0224745E00022214604A81AF0AC
S31508014030C7FD071E3BDA3DE0294604A81AF0F4FE3F
S31508014040071E00DA36E09DF84C0070B19DF8220093
S3150801405030B90AA904A81AF043F9071E00DA29E0BB
S3150801406004A920461BF012FA21E004A83BF024FB20
S3150801407050B120463BF020FB90B90AA904A81AF0D2
S315080140802FF9071E0CDA15E020463BF015FB01282F
S3150801409006D10AA904A81AF0F5FB071E00DA09E0F9
S315080140A004A920461BF03EFA071E00DA02E04FF08B
S315080140B0000700BF3E4668461FF099FB30461DB013
S315080140C0F0BD70472DE9F04106464FF000074A4812
S315080140D0056801E04848056815F0450FFAD015F05E
S315080140E0040F08D04FF003074FF00400FEF7CAFA91
S315080140F03846BDE8F08115F0010F06D04FF00107EB
S315080141003846FEF7BFFA3846F3E7FEF7FDFAB0423E
S3150801411003D04FF010073846EBE740F2FF50FEF7A1
S31508014120B1FA0020FEF71EFB04463448044201D1C9
S315080141303846DEE714F0004F01D01C20D9E714F009
S31508014140804F01D00920D4E714F0005F01D00A207E
S31508014150CFE714F0805F01D00B20CAE714F0006F97
S3150801416001D00C20C5E714F0806F01D00D20C0E7FF
S3150801417014F0807F01D00E20BBE714F4000F01D0A4
S315080141800F20B6E714F4800F01D01020B1E714F41C
S31508014190001F01D01120ACE714F4801F01D01220B2
S315080141A0A7E714F4002F01D01320A2E714F4802FF7
S315080141B001D014209DE714F4003F01D0152098E79B
S315080141C014F4803F01D0162093E714F4004F01D070
S315080141D017208EE714F4804F01D0182089E714F4CC
S315080141E0005F01D0192084E714F0080F01D01A20C6
S315080141F07FE738467DE70000342C014008E0FFFDE3
S3150801420070B54FF000051148046801E00F480468CD
S3150801421014F0450FFAD014F0040F07D04FF0030538
S315080142204FF00400FEF72EFA284670BD14F0010F70
S3150801423006D04FF001052846FEF724FA2846F4E78A
S3150801424040F2FF50FEF71EFA2846EEE7342C0140ED
S3150801425070B54FF000050C48046801E00A48046887
S3150801426014F0450FFAD014F0040F07D04FF00305E8
S315080142704FF00400FEF706FA284670BD40F2FF50DB
S31508014280FEF700FA2846F8E7342C01402DE9F041FB
S3150801429006460F464FF000082348056801E0224804
S315080142A0056815F0450FFAD015F0040F08D04FF040
S315080142B003084FF00400FEF7E5F94046BDE8F08132
S315080142C015F0010F06D04FF001084046FEF7DAF95E
S315080142D04046F3E7FEF718FAB04203D04FF010084C
S315080142E04046EBE740F2FF50FEF7CCF90020FEF717
S315080142F039FA044614F4604F04D14FEA1440388061
S315080143004046DBE714F4005F01D01320D6E714F426
S31508014310804F01D01020D1E714F4004F01D00F20AF
S31508014320CCE74046CAE70000342C014070B54FF08F
S3150801433000064FF480351248046803E0A5F101052B
S315080143400F48046814F0450F01D1002DF6D115B1B7
S3150801435014F0040F07D04FF003064FF00400FEF7E0
S3150801436091F9304670BD14F0400F07D04FF00006A2
S315080143704FF04000FEF786F93046F3E73046F1E79D
S31508014380342C01402DE9F04780460E4640463BF065
S3150801439078FB814619F0E9FD00684FF4B47190FB8A
S315080143A0F1F201FB12004FF0060190FBF1F4002C2B
S315080143B001DA04F13C04094800EB840516B1B5F9A4
S315080143C0020001E0B5F90000014640461CF048FA32
S315080143D04FF000073846BDE8F08700006851050828
S315080143E00220704770B504460D460C2D01D00020F9
S315080143F070BD0F48006840F000500D49086004F18F
S3150801440004004FF001034FF00002114601F012FCBF
S3150801441034B10848006840F480300649086005E070
S315080144200448006840F00100024908600120DFE7FE
S3150801443040380240007400407047000010B54FF044
S31508014440000407E0064901EBC4014968086880478A
S3150801445004F10104034800688442F3D310BD000047
S31508014460C8050010545105080020704729207047D7
S3150801447001464FF00000704710B504464FF00001A1
S31508014480204603F026FF10BD01464FF00000704795
S3150801449003464FF00000704770B50646DDE904454E
S315080144A04FF0FF3070BD02464FF0FF30704770B5D0
S315080144B004460D462946204608F0EAFB70BD10B5AC
S315080144C00446204608F03EFC10BD2DE9F04104469D
S315080144D00D4616464FF00000FDF730FF08B1FBF711
S315080144E0F5FD0CB1042D01DBFBF7F0FD04F110001D
S315080144F050F8250020B104F1280050F8250008B12C
S31508014500FBF7E4FD04F1100151F825003EF0CAFF5E
S31508014510074604F1100151F82500816831604FF012
S31508014520010202FA05F16079FFF74EFC3846BDE84B
S31508014530F08170B504460D4616464FF00000FDF7AA
S31508014540FDFE08B1FBF7C2FD0CB1042D01DBFBF73B
S31508014550BDFD04F1100050F8250020B104F1280032
S3150801456050F8250008B9FBF7B1FD36B104F1100181
S3150801457051F825003EF06AFF70BD04F1100151F8AB
S3150801458025003EF07EFFF7E770B504460D46164650
S3150801459004B10DB9012070BD324629462046FBF704
S315080145A00FFFF8E72DE9F04104460F4616461D466A
S315080145B00CB106B117B90120BDE8F081681C874224
S315080145C005D24FF0000020704FF00100F4E74FF0DC
S315080145D0000060552A4631462046FCF781F800203E
S315080145E0EAE77FB504460D46164632462946204671
S315080145F0039BFBF743FE04B070BD014621F07F40E3
S31508014600704702464FEA026061F317007047014698
S315080146104FEA1160704710B501F0E8FB012010BDA3
S3150801462001464FF0110008604FF001007047000085
S315080146302DE9FF4F87B007468B461D464FF0000808
S31508014640404606908146059007B115B90BB0BDE8FD
S31508014650F08F3D483FF013F8064616E030463FF026
S3150801466038F88246BAF1000F03D050463FF031F8C8
S3150801467008B94FF0000AF06AA84205D130463EF063
S31508014680ACFE30463EF0D0FA5646002EE6D1344608
S315080146901AE02E4850F83400A0B12C4850F83400DE
S315080146A0806A78B1294850F8340006A9826A2846F2
S315080146B0904738B1254850F8349000EBC40040685B
S315080146C0059005E004F10104214800688442E0D31D
S315080146D000BFB9F1000F02D14FF0010006904FF06B
S315080146E000042BE034203EF0A5FA8046B8F1000F0D
S315080146F000D1ABE734214046FBF7CBFFB9F1000FF8
S3150801470001D0012000E00020CDE90195CDE9034063
S31508014710059800905A4639464046099B1FF0C6FB44
S3150801472018B940463EF080FA06E0434600220121C8
S31508014730032000F0E7FC00BF04F101040698844257
S31508014740D0D300BF82E70000E80A0010C8050010B0
S315080147505451050810B50446601C03D10E480F498B
S31508014760086005E04FF47A7004FB00F00B49086015
S3150801477001230B4A0B490C4815F0CEFF30B10A4B01
S315080147800022114609A0FFF753FF02E04FF07F40D0
S3150801479010BD0020FCE70000A0252600200500101A
S315080147A02C050010780500102C4300105344000016
S315080147B030B5024614460B4620889D88A84202DA7F
S315080147C04FF0FF3030BD2088DD88A84201DD012089
S315080147D0F8E70020F6E710B50446204615F098FBE1
S315080147E010BD00001CB525480079042802D024A074
S315080147F03DF03CF81BF024FB12F036F800BF4FF0F1
S31508014800000001900090694601A801F093F8DDE9DE
S31508014810001002F09EFD00BF00F030FA00F036FEEF
S3150801482001F03EFA00F073FF0020FDF797FD15F041
S3150801483023FE03F0CDFA15F081FEFFF7FFFD1FF009
S315080148406DFAFFF7F9FD1FF0B9FA00F032F804F036
S31508014850C5FF00F027F800F031FF01F0E7FE00F090
S315080148604FFC00F01DFF01F063F801F080FD01F037
S31508014870E0F800F01BF803F011FA1CBD00C00008AF
S31508014880436F6E66696775726174696F6E207665C6
S315080148907273696F6E20213D2076657273696F6E3A
S315080148A00A00000010B507F0B1F810BD4FF04A40F4
S315080148B070470120704700002DE9F0410246102A91
S315080148C002D30020BDE8F0812448835C2448845C37
S315080148D0A3F10100DFF88C8058F82010224D11F45D
S315080148E0803F01D005F10405C1F384284FF001008A
S315080148F000FA08F62868304213D1286840EA06000B
S3150801490028604FF0840008804FF001008882012B4F
S3150801491001D0082B05D1B1F8440040F40040A1F8B4
S3150801492044004FF0000801F1340020F824804FF0CC
S31508014930680714F0010F01D04FEA072701F1180C97
S3150801494014F0020F01D001F11C0CBCF8000040EA7A
S315080149500700ACF800004FF00100B3E7E4BB050817
S31508014960F4BB050814BC0508403802407CB504466A
S315080149700D4664B100216846FDF7C2FC00222946AE
S31508014980204604F019F96846FDF7BFFC00BF7CBD57
S315080149902DE9FE4306460C4617464FF00008002E41
S315080149A05CD030463AF0C2FF054644F480300090A8
S315080149B000BF684600F104013868086078684860F5
S315080149C0A54202D14FF0010839E0192C0CD1102D5E
S315080149D006D130463AF06DFE10B94FF0010001E0FC
S315080149E04FF0000080462AE0102C0CD168463AF0B8
S315080149F060FE20B9192D02D14FF0010001E04FF0F8
S31508014A00000080461BE005EB8500164951F8200099
S31508014A1010F4003F01D1FBF759FB05EB850011495D
S31508014A2001EB80004079042809D104EB840001EBED
S31508014A3080004079042802D22C464FF00108B8F1CB
S31508014A40000F0AD02146304619F069FD00BF06F16C
S31508014A500400396801607968416000BF4046BDE8D5
S31508014A60FE8300005898050870B504460D464FF0B8
S31508014A700202294620461CF034FD70BD70B5044675
S31508014A800D462946204609F073FE70BD70B50446E9
S31508014A900D462946204607F0C3FC70BDF0B505460C
S31508014AA00B464FF00006E86800B9F0BD46E004463B
S31508014AB047883C4401460778022F0AD003DC97B39E
S31508014AC0012F31D104E0032F09D0FF2F2CD113E098
S31508014AD000BF07789F4201D14FF001062AE0077807
S31508014AE09F4208D14778B2F802C00CF0FF0C67451F
S31508014AF001D14FF001061DE00F7992F800C0674514
S31508014B0010D14F7992F801C067450BD1CF88B2F819
S31508014B1002C0674506D10F89B2F804C0674501D1BD
S31508014B204FF0010606E000E000BF4FF001064FF026
S31508014B30000000BF00BF06B9204600BF002EB6D050
S31508014B4000BFB2E710B50446204607F08DFC10BD3C
S31508014B5070B504460D46164632462946204607F0E4
S31508014B6025FD70BD014640F6746008604FF00100EE
S31508014B7070470FB4F8B504460D4609A800902946B2
S31508014B802046009B089A00F004F906464FF00000FB
S31508014B9000903046F8BC5DF814FB704710B54FF02D
S31508014BA0FF341C6014600C6000B110BD054C245C18
S31508014BB00C60054C245C1460044C245C1C6000BF2A
S31508014BC0F3E70000645105086551050866510508B3
S31508014BD000487047007A030A2DE9F04104460D465C
S31508014BE04FF00A024FF000062146A1FB020705FB1A
S31508014BF0027204FB062504464FF001024FF000033A
S31508014C0020462946FBF766FA04460D4620462946FC
S31508014C10BDE8F08130B5024614460B46B4F90000EA
S31508014C20B3F90050A0EB050030BD01464FF0000076
S31508014C3070471020704710B50446FEF7F9F910BD04
S31508014C4030B50546039C4FF0FF3030BD30B50546FB
S31508014C50039C4FF0FF3030BD70B504460D464FF04A
S31508014C600702294620461CF03CFC70BD10B50248D7
S31508014C7006F0ACFF10BD0000C028001010B50248B0
S31508014C8006F0AEFF10BD0000C0280010F8B50446B6
S31508014C900D46164622462B460248009607F002F8AC
S31508014CA0F8BD0000C028001010B504464FF00100F9
S31508014CB0FEF768FC0220FEF765FC4FF6FD70094910
S31508014CC00880FDF76CFB084B0CCB801A994101D380
S31508014CD011F078FD0220FEF72DFC0120FEF72AFCD3
S31508014CE010BD0000100C0040380000102DE9FC41F1
S31508014CF004460E4617464FF000016846FDF700FBCD
S31508014D00E6B14FF0000517E004F1100050F8250050
S31508014D1020B104F1280050F8250000B10AE004F199
S31508014D20100151F825003EF079FB2946204600F08E
S31508014D306DF800BF05F10105042DE5DBB7B14FF0AC
S31508014D40000511E004F1100050F8250050B104F1F6
S31508014D50280050F8250028B104F1100151F8250062
S31508014D603EF05CFB05F10105042DEBDB6846FDF71A
S31508014D70CCFABDE8FC8110B50446204607F0A5FC2F
S31508014D8010BD70B504460D462946204607F0E8FCD5
S31508014D9070BD2DE9FF4104460D46904629682068F5
S31508014DA04246039BFFF71DFC064600BF4FF0010074
S31508014DB000EBE67707B92E682068304420604FF08B
S31508014DC00000216808702868A0EB060028603846AC
S31508014DD004B0BDE8F081000070B50546284600F02C
S31508014DE06FFC04464FEA940104F00302024B985CF7
S31508014DF0FFF707FC70BD000094CD0508014609B10F
S31508014E00002070470048FCE7F82800107CB50546E5
S31508014E100C464DB105F1100050F8240020B105F1FA
S31508014E20280050F8240008B100207CBD4FF0A046A8
S31508014E304FF000016846FDF763FA06F5306000EBAE
S31508014E404410006810F0004F15D105F12400005DEB
S31508014E5040F4002106F5306000EB4410016106F5C7
S31508014E60306000EB4410006840F0044106F53060FC
S31508014E7000EB441001606846FDF747FA0120D4E7C4
S31508014E8010B504464FF0000003490860204605F0B6
S31508014E90BAFA002010BD0000F001001070B50546F1
S31508014EA01EF084FF04461BE0E06AA84214D120469E
S31508014EB01EF057FF06464FF0010120461EF03AFF45
S31508014EC0214609483EF001FA234600220221032021
S31508014ED000F018F9344603E020461EF042FF044666
S31508014EE0002CE1D170BD0000E80A001070470000EF
S31508014EF010B50448FFF7D2FF0121024815F0D8FA88
S31508014F0010BD00002C43001070B504464FF0040094
S31508014F1020804FF0020060804FF00000A080E08002
S31508014F204FF038054FF0370309A24FF0380104F165
S31508014F300800FFF737FB0E48006D206430220C4944
S31508014F40543104F14400FBF784FA012070BD0000D6
S31508014F50436F707972696768742047484920456CC0
S31508014F60656374726F6E6963732C204C4C43000041
S31508014F7000C4000830B504460D462946204614F0FB
S31508014F80D3FF30BD10B54FF000040BE0204850F8B0
S31508014F90240020B11E4951F82400804700E003E0AF
S31508014FA004F10104102CF1D300BF00F05FF800F002
S31508014FB031F801F03FFB02F08EFB00F05AFD01F0DB
S31508014FC037FB01F013FD03F0DDFC00F027F801F0D3
S31508014FD019FE02F0BAF903F061FA04F01DFF1EF09A
S31508014FE02FFF15F017FB01F0F3F901F085FB02F02D
S31508014FF077F901F09BFF0020FDF7AAF901F01AF8ED
S3150801500000F014FB1AF008FF11F0C8FB10BD0000F0
S315080150107C06001010B506F021FD10BD4FF04A4080
S31508015020704710207047000070B586B004464FF4EB
S31508015030C026214668461FF037FB002802DA002001
S3150801504006B070BD0398C07B00EB8000064901EBF2
S315080150508005286800F4C020B0F5C02F01D10120D1
S31508015060EEE70020ECE70000589805080120704794
S315080150702120704703464FF0000070472DE9F041A3
S3150801508002461A48865C1A48845CA6F10100194D45
S3150801509055F820104FF0FF0714F0010F01D04FF417
S315080150A07F4701F1180314F0020F01D001F11C0327
S315080150B0188820EA07001880088B8D8B284312D19F
S315080150C00D4811F4803F01D000F10400C1F3842892
S315080150D04FF0010C0CFA08F5D0F800C02CEA050CC3
S315080150E0C0F800C000BF0120BDE8F081E4BB050897
S315080150F0F4BB050814BC0508403802402020704757
S31508015100704700002DE9FC4104460D4616461F4628
S315080151100C48006898B100216846FDF7F1F84FEA96
S31508015120064040EA042040EA05083A464146054851
S31508015130006803F041FD6846FDF7E7F800BFBDE8E2
S31508015140FC810000F001001010B504464FF0FF3055
S3150801515010BD03464FF0FF30704703464FF0FF304E
S31508015160704700002DE9F04706464FF00100FEF7AB
S3150801517009FA0220FEF706FA2B4850F82680B8F1FC
S31508015180000F49D04FEAA600284951F820004FEAF6
S3150801519086714FEA117120FA01F000F00F0946EA0B
S315080151A0091A4FF0010000FA06F706EB8601204AB4
S315080151B002EBC10011F0B0FB1E48008838420FD03F
S315080151C0FDF7EDF81C4A1268841841F1000306EB55
S315080151D08601174A02EBC100224611F09DFA1AE030
S315080151E04FF000041548006838420DD04FF001040D
S315080151F013480068384207D0124800EB8920006935
S3150801520020FA06F000F001040F4850F8262021463E
S315080152105046C04700BF00BF0220FEF78BF90120A8
S31508015220FEF788F9BDE8F087D00700100838014075
S31508015230500800103000001024000010083C0140FE
S315080152400C3C0140000002401008001070B50446ED
S315080152500D464FF00802294620461CF042F970BD5A
S3150801526070B504460D46164633462A462146024877
S3150801527006F02CFD70BD0000C02800102DE9FC4782
S3150801528004460D4616461F46DDE90A893B4632465F
S3150801529029462046CDE9008908F0E6FDBDE8FC87E8
S315080152A070B5044694F84700B4F86410884202DAE7
S315080152B094F8470001E0B4F86400054604F1400497
S315080152C02A46216A2068FBF7C4F82571206A284412
S315080152D02062A08CA0EB0500A084E079A4F140042B
S315080152E0A84206D1B4F86600A0EB0500A4F866004A
S315080152F003E04FF00000A4F86600B4F8660018B1A0
S31508015300AFF26300E06502E04FF00000E06570BDB2
S315080153102DE9F04381460C4615464FF000024FF041
S3150801532002014846FFF7BAFB8046B8F1000F02D1E1
S315080153300020BDE8F08308F10D06B8F8020000EB7D
S315080153400807206820B926604FF00000286022E08F
S315080153502068B0421DD92068B8421AD22868B042DE
S3150801536017D32868B84214D220684078052810D186
S315080153702068007807280CD128684078042808D1C5
S3150801538028680078092804D1206800F10700206000
S3150801539001E00020CDE719E020684078042806D10D
S315080153A020680078092802D12068286009E0206869
S315080153B04078052805D120680078072801D1012001
S315080153C0B7E7266820680078064426602068B84250
S315080153D0E2D30020ADE710B50446204607F0F4F9FC
S315080153E010BD000030B5039C4FF0FF3525601D60E8
S315080153F015600D60032800D330BD084D2D5C0D6086
S31508015400074D2D5C1560032800D3F5E7054D2D5C86
S315080154101D60054D2D5C256000BFEDE7A8A60508B2
S31508015420ABA60508AEA60508B1A605082DE9F04103
S3150801543004460D4616464FF0000704F47F40B0F5C2
S31508015440807F06D0B0F5007F0BD0B0F5407F18D12C
S315080154500FE0E1B2481E32462946FEF792FA0746A0
S315080154600FE0E1B2481E3246294605F0E7FE074637
S3150801547007E0E1B2481E32462946FEF79DFC07467B
S3150801548000BF00BF3846BDE8F081000000BF4FF0FD
S31508015490000004490860486000BF034908604FF0EE
S315080154A0010070476045001074000010014602486B
S315080154B0006800EA01007047740000103EB5054611
S315080154C018A0FEF7B8FC044616A000210B460222D6
S315080154D0CDE901040091042128460FF020FF19485F
S315080154E0D0F80401A0B11748D0F80401406978B191
S315080154F01448D0F80401406900F11C04E0880090C2
S31508015500A3886288218805F1400039F0D2FE08E0B7
