S315000050000CE000201D50000031500000315000001F
S3150000501031500000315000003150000003F0E4BE72
S31500005020DFF808D003F0D8FE03F078BFF0FF0010D9
S31500005030FEE76E2900F0C687702901F01781662900
S315000050401DF08DA565291DF08AA567291DF087A588
S3150000505061291DF086A503681B0A28BF41F080015F
S31500005060692900F07387642900F07087752900F0BC
S315000050706D876F2901F0A280782901F0E380E92984
S3150000508001F03A80E42901F03780F52901F03480F7
S31500005090EF2901F09F80F82901F0E2800368DB091F
S315000050A028BF41F08001632902F0CA82732902F009
S315000050B0CF82E32902F0DA82F32902F0DF820020B0
S315000050C0704700000B49D1F800C04A685CF8043B01
S315000050D01068184442F8040B8C4528BFA1F1DC0C7B
S315000050E08A4228BFA1F1DC02C1F800C04A6020F064
S315000050F000407047542829A07047000000487047B8
S31500005100482729A053EA020C00F069802DE9F04BEC
S315000051104FF00006002B1FBFB3FA83F503FA05F420
S3150000512024FA05F65E4012BF1643B2FA82F502FA79
S3150000513005F4C5F120051EBF22FA05FC44EA0C045D
S31500005140203556EA044C4FEA144418BF641C4FF04D
S3150000515000084FF00009904271EB030C39D3002987
S3150000516019BFB1FA81F701FA07F6B0FA80F700FA2B
S3150000517007F6C7F120071EBF20FA07FC46EA0C0611
S315000051802037B6FBF4FCA7EB0507103F07F01F0B13
S31500005190CBF120060CFA0BFB2CFA06F644BFB346FD
S315000051A00026202FA4BF5E464FF0000B5BEA060CDC
S315000051B008BF4FF0010B19EB0B09ABFB027C48EB68
S315000051C00608C01B06FB02CC0BFB03CC71EB0C01E3
S315000051D0C1E70B46024641464846BDE8F08B13B58B
S315000051E04FF000004FF0000100F03CFEBDE81C400F
S315000051F07047B2F120030AD5C2F1200301FA02F189
S3150000520020FA03F300FA02F041EA0301704700FABC
S3150000521003F14FF000007047B2F120030AD5C2F146
S31500005220200320FA02F001FA03F321FA02F140EA20
S315000052300300704721FA03F04FF000017047B2F106
S3150000524020030AD5C2F1200320FA02F001FA03F383
S3150000525041FA02F140EA0300704741FA03F04FEACF
S31500005260E171704710B54C1084EA530404D54042EE
S31500005270C1F1000138BF491E1B4204D55242C3F199
S31500005280000338BF5B1EFFF73DFF14F0804F04D0CC
S315000052904042C1F1000138BF491E14F0004F04D04E
S315000052A05242C3F1000338BF5B1E10BD7CB51546E4
S315000052B01A460C00009001D02044401E074B7B4448
S315000052C069460190284600F098FE05461CB100206C
S315000052D0694600F0A5FE28467CBD0000690D000069
S315000052E00FB400B58DB010A9099000910B904FF046
S315000052F0FF300A9000200C90064878440690064835
S3150000530078446A4607900F9909A801F04FFA0DB044
S315000053105DF814FBD3140000EB14000070B50646CC
S31500005320FFF7ECFE0468054630460A22002100F02D
S3150000533002F82C6070BD2DE9F0470F469146804675
S315000053400446002614F8015B2DB100F083FD0068C9
S31500005350405DC007F6D12B2D02D02D2D18D0641E2E
S315000053604A463946204601F053FA27B13968A14228
S3150000537001D1C7F800804FF0020471050BD54042F9
S31500005380002803DDFFF7BAFE0460A007BDE8F0873A
S3150000539046F48066E4E70028F8DAFFF7AFFE04601B
S315000053A06FF00040F2E72DE9F05F0F469346804626
S315000053B004460026FFF7A2FED0F80090824614F8B5
S315000053C0015B2DB100F046FD0068405DC007F6D1D7
S315000053D02B2D02D02D2D1CD0641E0021CAF80010E2
S315000053E05A463946204601F013FA014627B1386875
S315000053F0A04201D1C7F80080DAF80000022805D0E3
S31500005400CAF800907205C1F1000000D40846BDE854
S31500005410F09F46F48066E0E70A460146014801F03F
S31500005420FCBB00004C2729A00B4910B5A1F17C025A
S315000054300A4BC2E93712372106E000EB104442F866
S315000054402140074C00FB04300C1EA1F10101F4DCE5
S3150000545010BD0120E8E70000F42729A0E119D6666F
S31500005460CD0D01002DE9F04F16469B464FF0010980
S31500005470C1B020910090A9F1010920A85DF829503A
S3150000548050F82900C5E04FEA6A0070432C185FEA1D
S31500005490CA7100D1801B5A462146271828469047D4
S315000054A000280EDD304646EA0501890765D02278D8
S315000054B02978401E05F8012B04F8011BF7D1AD1B16
S315000054C0A41B5A46394620469047002823DD5A46F3
S315000054D039462846904700280EDD304646EA050143
S315000054E0890751D03A782978401E05F8012B07F82C
S315000054F0011BF7D1AD1BBF1B304646EA04018907E5
S3150000550049D03A782178401E04F8012B07F8011B90
S31500005510F7D1A41BBF1B314646EA0402B81B92070B
S3150000552040D003782278491E04F8013B00F8012B8D
S31500005530F7D12C46871BB84634445A464146204686
S3150000554090470028F8DB5A464146BF1B384690472D
S315000055500028F8DC304646EA0401A7424FEA81718A
S315000055602ED931B33A782178401E04F8012B07F87A
S31500005570011BF7D1A41BBF1BDEE722682968001FA9
S3150000558004C502C4F9D19AE73A682968001F04C520
S3150000559002C7F9D1AEE73A682168001F04C402C702
S315000055A0F9D1B6E703682268091F08C404C0F9D117
S315000055B0BFE73A682168001F04C402C7F9D1D9E7DA
S315000055C0E1B198F800202178401E04F8012B08F874
S315000055D0011BF6D1A21B501BB0FBF6F0401EAAEB36
S315000055E00001491E884216DD0A2910DD20AB4DF860
S315000055F0295043F8290009F1010919E0D8F80020DB
S315000056002168001F04C448F8041BF7D1E2E70A2802
S3150000561011DD824637E70A2808DD4C464DF8292079
S3150000562020AA09F1010942F82410F2E70A2902DD4D
S3150000563015468A4627E7B9F1000F7FF41CAF41B043
S31500005640BDE8F08F2DE9F04707460E46994614004F
S3150000565038D0002E36D00A2E01D9FFF703FF761E6A
S315000056603D4606FB04582BE02E46254400E0361B3B
S31500005670BE4205D34A462946304690470028F6DC06
S3150000568044EA0500311980070BD0002016E02A18DD
S31500005690136801E016681651121B8A42FAD2001DE1
S315000056A01351A0420CD2F2E72A18137801E01678BB
S315000056B01655121B8A42FAD2401C1355A042F3D348
S315000056C04545D1D3BDE8F0872DE9F04782460E4621
S315000056D014469846DDF8209094B1012C0BD04A462A
S315000056E05046650805FB08673946904700280CD0E8
S315000056F00DDA2C46F0E74A4631465046904710B13F
S315000057000020BDE8F0873046FBE73846F9E7641B22
S31500005710641E07EB0806DFE770B504460D46481E13
S315000057200E2810D21B48AFF300801B4800EB850003
S3150000573050F8044CE11C03D04FF0FF3140F8041C34
S315000057401448AFF30080204670BD70B504460D4680
S31500005750401E0E2805D3FFF7D1FC03210160481F28
S3150000576070BD0C48AFF300800B4800EB840209487B
S3150000577052F8044D1560AFF30080204670BD064A0E
S315000057800020411E42F82010401C0E28FADB01487A
S3150000579000F05DBBF8B200A05C2829A0072811D252
S315000057A0DFE800F00406080E100C0A0006A0704799
S315000057B00BA0704714A070471EA0704723A0704727
S315000057C02CA0704733A070474E6F206572726F72BF
S315000057D020286572726E6F203D203029000000007F
S315000057E045444F4D202D2066756E6374696F6E209B
S315000057F0617267756D656E74206F7574206F6620B3
S3150000580072616E67650000004552414E4745202D86
S315000058102066756E6374696F6E20726573756C743D
S31500005820206E6F7420726570726573656E74616246
S315000058306C650000454E4F4D454D202D206F75740B
S31500005840206F66206D656D6F7279000045494E5672
S31500005850414C202D20696E76616C69642061726707
S31500005860756D656E7420746F2066756E6374696FEE
S315000058706E000000455349474E554D202D20696C5A
S315000058806C6567616C207369676E616C206E756DFF
S3150000589062657200556E6B6E6F776E206572726F01
S315000058A072000000401ECAB210F8011F8A4202D0E0
S315000058B00029F9D10020704730B505460B462A4627
S315000058C013F8014B12F8010B08B1A042F8D01CB135
S315000058D0002802D06D1CF1E7284630BD40EA0103DE
S315000058E010B59B070DD1042A0BD310C808C9121F87
S315000058F09C42F8D021BA1ABA0120914200D8801EE3
S3150000590010BD1AB1D30703D0521C07E0002010BD0A
S3150000591010F8013B11F8014B1B1B07D110F8013B96
S3150000592011F8014B1B1B01D1921EF1D1184610BD77
S3150000593040EA0103024630B59B0710D14FF001340F
S3150000594000E008C208C91D1B9D4315EAC41FF8D014
S3150000595013F0FF0102F8011B0DD01B0AF8E711F83E
S31500005960013B002B02F8013B05D011F8013B002B4F
S3150000597002F8013BF3D130BD10B5431C02E010F82C
S31500005980011B71B18107FAD14FF0013202C88C1A9E
S315000059908C4314EAC211F9D0C01A0A0603D0C01EFD
S315000059A010BDC01A10BD0A0401D0801E10BD090228
S315000059B0FCD0401E10BDCBB22AB101788B4203D079
S315000059C0401C521EF9D10020704740EA010370B511
S315000059D09B072CD14FF00136042A28D308C810C9DA
S315000059E0121F9D1B9D4315EAC61517D0D8B2E1B20A
S315000059F0401A50EA056110D198B2A1B2401A50EA95
S31500005A0005410AD123F07F4024F07F41401A50EA35
S31500005A10052102D1180EA0EB146070BDA342DBD0A5
S31500005A2019BA22BA01209142F7D8801E70BD0AB970
S31500005A30002070BD10F8013B11F8014B63B1A34281
S31500005A400AD1521E08D010F8013B11F8014B1BB1C8
S31500005A50A34201D1521EEDD1181B70BD421E12F891
S31500005A60013F002BFBD111F8013B002B02F8013B53
S31500005A70F9D17047032A40F2308010F0030C00F091
S31500005A80158011F8013BBCF1020F624498BF11F872
S31500005A9001CB00F8013B38BF11F8013BA2F104022B
S31500005AA098BF00F801CB38BF00F8013B11F00303A3
S31500005AB000F06B80083AC0F0088051F8043B083AC1
S31500005AC051F804CBA0E80810F5E7121D5CBF51F8A9
S31500005AD0043B40F8043BAFF30080D20724BF11F823
S31500005AE0013B11F801CB48BF11F8012B24BF00F888
S31500005AF0013B00F801CB48BF00F8012B7047431A61
S31500005B0028BF9A427FF6B6AF032A1044114440F2EA
S31500005B10268010F0030F1EBF11F8013D521E00F83B
S31500005B20013D10F0030F7FF4F6AF11F0030300F010
S31500005B307180083AC0F00B8051F8043D083A51F8DC
S31500005B4004CD40F8043D40F804CDFFF7F3BF121D25
S31500005B505CBF51F8043D40F8043DAFF30080D20726
S31500005B6024BF11F8013D11F801CD48BF11F8012CF1
S31500005B7024BF00F8013D00F801CD48BF00F8012C14
S31500005B80704701B5FFF776FF01BD10B5203AC0F0AA
S31500005B900B80B1E81850203AA0E81850B1E8185028
S31500005BA0A0E81850BFF4F5AF5FEA027C24BFB1E865
S31500005BB01850A0E8185044BF18C918C0BDE81040D6
S31500005BC05FEA827C24BF51F8043B40F8043B08BFDF
S31500005BD07047D20728BF31F8023B48BF11F8012BA6
S31500005BE028BF20F8023B48BF00F8012B7047431A34
S31500005BF028BF9A427FF6C9AF104410F0030F114434
S31500005C001EBF11F8013D521E00F8013D10F0030FB2
S31500005C107FF4F6AF103AC0F00A8010B531E918509B
S31500005C20103A20E91850BFF4F9AFBDE81040530709
S31500005C3024BF31E9081020E9081044BF51F8043D9B
S31500005C4040F8043D12F0030F08BF7047D20728BF83
S31500005C5031F8023D48BF11F8012C28BF20F8023D5B
S31500005C6048BF00F8012C704702F0FF0343EA032205
S31500005C7042EA024200F002B84FF000020429C0F0E6
S31500005C80128010F0030C00F01B80CCF1040CBCF168
S31500005C90020F18BF00F8012BA8BF20F8022BA1EBBA
S31500005CA00C0100F00DB85FEAC17C24BF00F8012B9F
S31500005CB000F8012B48BF00F8012B70474FF0000297
S31500005CC000B5134694469646203922BFA0E80C50EC
S31500005CD0A0E80C50B1F12001BFF4F7AF090728BFC7
S31500005CE0A0E80C5048BF0CC05DF804EB890028BF43
S31500005CF040F8042B08BF704748BF20F8022B11F06C
S31500005D00804F18BF00F8012B704710B5044610F0FD
S31500005D10030F08BF11F0030F40F015804FF0013E4E
S31500005D20121FC0F20E8051F8043BA3EB0E0C2CEAB6
S31500005D30030C1CEACE1C08BF40F8043BF0D0A1F1CE
S31500005D40040102F10402521E08DB11F8013B002B8C
S31500005D5000F8013BF7D11146FFF78EFF204610BD34
S31500005D604FF0013C50F8042B51F8043B9A4221D1E4
S31500005D70A2EB0C03934313EACC1317D150F8042B70
S31500005D8051F8043B9A4215D1A2EB0C03934313EA54
S31500005D90CC130BD150F8042B51F8043B9A4209D18D
S31500005DA0A2EB0C03934313EACC13DBD04FF00000B5
S31500005DB0704700BFD01A01BAB1FA81F101F018019B
S31500005DC022FA01F0CB40C1F12001DBB2C0B2C01A09
S31500005DD02CFA01F3D11A914311EAC311E6D17047A7
S31500005DE0014900F09FBF0000942829A070B5064C19
S31500005DF07C44064D7D4403E0206820448047241DF2
S31500005E00AC42F9D170BD0000649906006C99060099
S31500005E10A0E8004FF0C040F804DB01B5AFF3008006
S31500005E20BDE8024001C10020704700F12C080C4675
S31500005E3058F8040DAFF3008058F8040D854620008D
S31500005E4008BF012038E9F00018E9004F704700202C
S31500005E507047000010B500F0B7FF001D10BD00BF71
S31500005E6025B205004EF0D8BD00487047C02829A0CD
S31500005E7010B5FFF743F9006810BD10B50446FFF7EB
S31500005E803DF9046010BD70B504468569006830268A
S31500005E90C10600D42026C00708D070BDD4E9012170
S31500005EA030469047206A00F1010020626D1EF5D54C
S31500005EB070BD70B5044685690068C00708D170BD1D
S31500005EC0D4E9012120209047206A00F101002062D8
S31500005ED06D1EF5D570BD09684A0501D540B27047FB
S31500005EE0C905FCD500B2704709684A0501D5C0B29C
S31500005EF07047C905FCD580B2704770B505460C469B
S31500005F00012A05D02868800600D5EA69002302E048
S31500005F10012305E05B1C934202D2E05C0028F9D124
S31500005F20A869E618C01AA861286A18442862284693
S31500005F30FFF7A9FF04E0D5E9012114F8010B90470A
S31500005F40B442F8D32846FFF7B4FF70BD2DE9F041FF
S31500005F500746002510687529394616A411D0FFF7A3
S31500005F60BAFF002803DAC0F1000013A407E039687D
S31500005F708A0701D511A402E0490704D510A401251A
S31500005F8001E0FFF7B1FF00210A2307F1240607E02D
S31500005F90B0FBF3F203FB1200303070541046491C7C
S31500005FA00028F5D12B4622463846BDE8F04100F0E0
S31500005FB05DBF0000000000002D0000002B00000067
S31500005FC02000000011680268006A530501D50870B8
S31500005FD00BE0D30501D5088007E0130603D5C217E9
S31500005FE0C1E9000201E05206086001207047000086
S31500005FF001694A1C02610878704700B58FB0CDE987
S3150000600001310021059105497944CDE90310114676
S31500006010684600F037F90FB000BD0000E5FFFFFF4E
S315000060200A6802F8010B0A607047D1E900239A4218
S3150000603002D2531C0B601070704700002DE9FF5F01
S3150000604004468A461546DFF8AC80F8440027D8E9AE
S3150000605000103E46CDE9001011E03AF816106A46E7
S3150000606002A801F068FF411C07D02168890603D504
S31500006070E269391891420ED8074406F101062068F4
S31500006080800602D5E069B84205DDAE42E5DB3AF8A6
S3150000609016000028E1D1A069C01BA0612046FFF7C9
S315000060A0F2FED8E90010CDE90010002016E03AF81B
S315000060B018106A4602A801F03EFF8146401C0BD02C
S315000060C000250DF1080B05E0D4E901211BF80500B8
S315000060D090476D1C4D45F7D308F10100B04280464C
S315000060E0E5DB206A384420622046FFF7E2FEBDE881
S315000060F0FF9F0000FA6306002DE9F0418046D21D9D
S3150000610022F007020026D2E90002F52914A512D0D2
S31500006110002A06DA0023D0EB030063EB020211A586
S3150000612008E0D8F800108B0701D50FA502E0490753
S3150000613001D50EA501261146002408F1240704E026
S3150000614000F046FE30323A55641C50EA0102F7D19F
S3150000615033462A4621464046BDE8F04100F086BE59
S31500006160000000002D0000002B00000020000000B1
S3150000617030B4002100F124040CE002F0070505F11B
S3150000618030054FEAD20242EA4372655401F1010139
S315000061904FEAD30352EA0305EFD10468002310A2A5
S315000061A0250708D504F020040C4304D0C469012354
S315000061B00CA2641EC46130BC00F058BE10B5044683
S315000061C021461068FFF790FE02462046BDE81040C3
S315000061D00023CDE7D21D22F00701D1E90023C7E74E
S315000061E00000000030000000F0B40F460168090509
S315000061F002D5234C7C4402E0214C7C440E34002121
S3150000620000F124050BE002F00F064FEA1212A65D1C
S3150000621042EA03724FEA13136E5401F1010152EA86
S315000062200306F0D1224604680023240704D5702F04
S3150000623005D009B111320223F0BC00F017BE1032AE
S315000062400123F9E770B504460D4621461068FFF7AD
S315000062504BFE024629462046BDE870400023C3E7B0
S31500006260D21D22F00703D3E90023BDE703681268B5
S3150000627043F0200303600823C3610023B4E7000052
S31500006280586206002DE9F05F4FF0000A0446894681
S315000062904FF0800BC0F820A02046E1688847002810
S315000062A076D0252806D0D4E901219047206A401CE3
S315000062B02062F1E7564F00267F442046E168884772
S315000062C02028054608DB312D06D207EB050010F81D
S315000062D0200C08B10643F0E7B00701D526F0040606
S315000062E0C4F81CA00027C4F818A02A2D09D02846F7
S315000062F04EF0D1FB38B304EB8708303DC8F8185090
S3150000630019E059F8041B204604EB87029161E16805
S315000063108847012F054618D1E069002820DA26F0C3
S3150000632020061DE0D8F8180000EB800005EB4000C1
S315000063303038C8F818002046E168884705464EF010
S31500006340AAFB0028EED1012F0AD02E2D08D1204617
S31500006350E16888477F1C0546022F46F02006C4DB0D
S31500006360A069002803DA404246F00106A061F00762
S3150000637001D026F010066C2D0BD0682D09D04C2DBF
S3150000638036D06A2D34D0742D32D07A2D30D017E025
S315000063903BE0E1682F4620468847B84205460AD1C9
S315000063A058466C2F01D04FF48060E16806432046C2
S315000063B08847054604E040206C2F00D08000064345
S315000063C01DB3A5F14100192802D8203546F4006610
S315000063D04A462946204626604E46FEF72AFE90B1DA
S315000063E001280DD0F61D26F0070000F1080953E735
S315000063F04C2D5046D9D058466A2DD6D00020D4E729
S3150000640006F1040948E728464DE7206ABDE8F09FF3
S31500006410BC6106002DE9FF4F1C4692464FF0FF393E
S31500006420002781B03E46D4E901508046A169029812
S3150000643009F101098847216A834688470028F5D172
S315000064401BF101000DD0B8F1000F25F4C0651DDD6C
S31500006450680618D5BBF12B0F0AD0BBF12D0F12D150
S3150000646004E04FF0FF3005B0BDE8F08F45F48065DD
S31500006470A169029809F101098847A8F10108834634
S31500006480B8F1000F02DDBBF1300F03D05FEA0A005E
S315000064902BD02CE0A169029845F40075A8F10108FB
S315000064A009F101098847B8F1000F834605DDBBF104
S315000064B0780F06D0BBF1580F03D05FEA0A0012D05E
S315000064C015E05FEA0A0002D0BAF1100F0FD1A169F8
S315000064D0029825F40075A8F1010809F10109884719
S315000064E08346102002E0082000E00A208246C117F9
S315000064F0009113E0A7FB0A3C009A45F4007506FBE1
S315000065000AC1A8F1010809F1010907FB0216A169F0
S315000065101F1846EBE076029888478346B8F1000FCD
S3150000652005DD5146584601F0ADF80028E2DAE1698A
S3150000653002988847A80502D46FF0010093E7E807A0
S3150000654019D1680611D500200146D7EB000061EB92
S3150000655006016A0501D4384631460A4621680B1DF4
S3150000656023600968C1E9000205E02068011D216079
S315000065700068C0E90076484675E72DE9FF5F1D46CD
S315000065804FF0FF3B91464FF000085F46D5E90146C4
S31500006590A96901987F1C8847296A8246884700288E
S315000065A0F6D11AF101000CD0002E24F4C06419DDD6
S315000065B0600614D5BAF12B0F09D0BAF12D0F0ED102
S315000065C003E0584604B0BDE8F09F44F48064A9692E
S315000065D001987F1C8847761E8246002E02DDBAF19E
S315000065E0300F03D0B9F1000F26D032E0A969761E2C
S315000065F001987F1C44F400748847002E824605DD0E
S31500006600BAF1780F06D0BAF1580F03D0B9F1000FDE
S3150000661010D01EE0B9F1000F02D0B9F1100F18D159
S31500006620A969761E01987F1C24F400748847824667
S31500006630102002E0082000E00A20814609E0A9694E
S3150000664008FB0908761E01987F1C44F400748847ED
S315000066508246002E05DD4946504601F013F8002813
S31500006660EDDAE96901988847A00502D46FF00100C8
S31500006670A8E7E00726D1600613D56105C8F100003A
S3150000668000D44046296801F104022A6009682205FF
S3150000669001D5087016E0220701D5088012E00860CF
S315000066A010E0286800F1040129600068210502D580
S315000066B080F8008006E0210702D5A0F8008001E0FE
S315000066C0C0F8008038467DE72DE9FF5F14469946FD
S315000066D000273E469169D2E901B8DDF838A0019855
S315000066E08847054659EA0A0005D009E0A1690198DC
S315000066F0761C88470546216A284688470028F5D132
S31500006700681C03D05FEACB7005D015E04FF0FF3070
S3150000671004B0BDE8F09F2068011D216007680BE00A
S315000067205FEACB7001D107F8015BA1690198761C7D
S31500006730A8F1010888470546B8F1000F1ADD681C64
S3150000674018D0B9F1000F0DD0E81705EBD060421153
S3150000675020F01F0059F822102A1A01209040014209
S31500006760DED107E0BAF1000FDAD12846216A884760
S315000067700028D5D0E169019888470BF0010050EA5E
S315000067800A0000D13870A2686FF001004245BFDDF3
S31500006790BAF1000F02D0B8F1000FB9D13046B7E711
S315000067A00268114413780160184670470B4611467B
S315000067B0054A7A444A61054A7A440A620022C1E9D6
S315000067C0033200F06FBF0000EBFFFFFF9F060000E3
S315000067D0426842B1016811F8013B23B1521EC0E97B
S315000067E00012184670470121C160881E7047416833
S315000067F059B1C368026843B98368934205D0521EF3
S31500006800491CC0E90021002070474FF0FF30704757
S315000068102DE9F05F824604468B461546641C002728
S31500006820B9460078302801D09DB113E014F8010B69
S315000068300127782803D0582801D045B10AE00DB1C8
S31500006840102D07D1002714F8010B102502E00825AA
S3150000685000E00A250026B0460EE005FB080005FB11
S3150000686006F101271FFA80F801EB1046B6F5803FC6
S3150000687000D3B94614F8010B294600F003FF00289F
S31500006880EBDABBF1000F04D0641E07B95446CBF80F
S315000068900040B9F1000F06D0FEF730FC022101607E
S315000068A0C81EBDE8F09F48EA0640FAE72DE9FF4F0B
S315000068B014469A4685B00027B9463E465068DDF82C
S315000068C048B00090D2F8088001970297916906981F
S315000068D0884705465AEA0B0005D009E0A1690698E3
S315000068E0761C88470546216A284688470028F5D140
S315000068F0681C03D00098C00705D02AE04FF0FF308F
S3150000690009B0BDE8F08F2068011D2160076820E00E
S3150000691001AA03A8E9B201F0F0FA411C07D0801CD5
S3150000692009D04FF000090098C00707D00AE0E169D6
S315000069300698884731E04FF0010905E0BDF80C00E4
S3150000694027F8020BA8F10108A1690698761C88476A
S315000069500546B8F1000F1ADD681C18D0BAF1000F11
S315000069600DD0E81705EBD060421120F01F005AF851
S3150000697022102A1A012090400142C9D107E0BBF13A
S31500006980000FC5D12846216A88470028C0D0E16992
S3150000699006988847B9F1000F02D06FF00100AFE703
S315000069A0009800F0010050EA0B0000D13880A26880
S315000069B06FF001004245A3DDBBF1000F02D0B8F134
S315000069C0000F9DD130469BE72DE9FF4F4FF00008A1
S315000069D014469B46454683B0D2E901A6CDF8008011
S315000069E0CDF804809169DDF84890049888470746F9
S315000069F05BEA090005D009E0A16904986D1C884787
S31500006A000746216A384688470028F5D1781C03D006
S31500006A105FEACA7005D01BE04FF0FF3007B0BDE853
S31500006A20F08F2068011D2160D0F8008010E05FEA39
S31500006A30CA7007D16A464046B9B201F07CFA411CD9
S31500006A4015D08044A169761E04986D1C88470746B8
S31500006A50002E17DD781C15D05FEA0B000AD03B46E6
S31500006A60DDE9101201F03AFA0028E0D10AE06FF0F1
S31500006A700100D3E7B9F1000FD9D13846216A88471A
S31500006A800028D4D0E169049888470AF0010050EA4A
S31500006A90090001D188F80000A1686FF00100B14239
S31500006AA0BCDDB9F1000F01D0002EB7D12846B5E7FD
S31500006AB02DE9FF5F14469B46002635469169D2E9CB
S31500006AC001A7DDF840900198884780465BEA0900F7
S31500006AD005D009E0A16901986D1C88478046216AA6
S31500006AE0404688470028F5D118F1010003D05FEA37
S31500006AF0CA7005D014E04FF0FF3004B0BDE8F09F37
S31500006B002068011D216006680AE05FEACA7001D1AB
S31500006B1026F8028BA1697F1E01986D1C8847804666
S31500006B20002F15DD18F1010012D05FEA0B0007D027
S31500006B304346DDE90E1201F0D1F90028E5D107E060
S31500006B40B9F1000FE1D14046216A88470028DCD020
S31500006B50E169019888470AF0010050EA090000D16E
S31500006B603080A1686FF00100B942C6DDB9F1000FAF
S31500006B7001D0002FC1D12846BFE700002DE9F04122
S31500006B800646484231EA00001DD02A20741C002522
S31500006B90307000F019F90746002057F82520110F2C
S31500006BA01201092901F1570300D8273B401C082888
S31500006BB004F8013BF3DB6D1C052DEDDB0020207096
S31500006BC03046BDE8F081042913D004DC012908D041
S31500006BD0022904D109E008290FD0102911D000207C
S31500006BE0EFE700F0F1F800680EE000F0EDF840681D
S31500006BF00AE000F0E9F8806806E000F0E5F8C06811
S31500006C0002E000F0E1F8006928B120F0030050F836
S31500006C10041C0844D5E741A0D3E72DE9F04709B1A4
S31500006C204B0902D00020BDE8F08732B113782A2B39
S31500006C3006D0BDE8F04700F025B8BDE8F0479DE76F
S31500006C40551C81460F464FF00108002400263146A8
S31500006C5015F8010B3928A0F1300200D9273A491C52
S31500006C60082942EA0616F3DB08FA04F0384203D094
S31500006C7000F0AAF840F82460641C052CE6DB3946CF
S31500006C804846DAE72DE9F04106460C4615468807E0
S31500006C900AD51146224878445AF0F4F9070090D0F4
S31500006CA000F092F87F1C4760E0070AD029461C488E
S31500006CB078441A38AFF30080070082D000F084F8D9
S31500006CC0076060070AD52946154878443438AFF37B
S31500006CD00080070021D000F077F8876020070AD5EA
S31500006CE029460F4878444E385AF0E2F9070014D086
S31500006CF000F06AF8C760E0060AD5294608487844D5
S31500006D006838AFF30080050007D000F05DF8056134
S31500006D1021463046BDE8F04130E752E74300000027
S31500006D208E89060070B50C46016800204A1C34D0D6
S31500006D3040F2B5553C23B1FBF3F203FB121121607F
S31500006D40B2FBF3F103FB112218236260B1FBF3F2ED
S31500006D5003FB1211A16046F2E0310A440721B2FB9F
S31500006D60F1F301FB1321B2FBF5F305FB1322A1613D
S31500006D709900B2F5B77F06D3521EAD10B2FBF5F3FC
S31500006D80194405FB13220F4BE261616189077B44BD
S31500006D900CD03B2A0AD3521C08E02C212046FEF7D1
S31500006DA08DFF0120E0600AE0521A401C195C9142F6
S31500006DB0FAD9521CC4E903204FF0FF302062204666
S31500006DC070BD0000D458060000487047C42829A0AA
S31500006DD030B5B0F10A024FEA900E71F100034EEAA7
S31500006DE0817EB0EB0E0061EB91014FEA101E4EEA78
S31500006DF0017E10EB0E0041EB11114FEA102E4EEA08
S31500006E00016E10EB0E0041EB11214FEA104E4EEAD7
S31500006E10014E10EB0E0041EB1141401841F100010B
S31500006E204FEAD00040EA41704FEAD10110EB8005ED
S31500006E304FEA810444EA907444EB01046D1944EB73
S31500006E400404521BA3414FF0000348BF0A3200D589
S31500006E5030BD401C41F1000130BD10B50446FEF7BF
S31500006E60F9FF0068005D00F0010010BD2DE9F04754
S31500006E700D4604469246994600F1240801688806A4
S31500006E8004D5E06921F01001216000E0012000270F
S31500006E90A84201DDA0EB0507A16907EB050202EB9D
S31500006EA00300A1EB0000A0612068C00602D42046C2
S31500006EB0FEF7E9FF002608E0D4E901211AF80600EA
S31500006EC09047206A401C761C20624E45F4DB206801
S31500006ED0C0060AD52046FEF7D6FF06E0D4E9012112
S31500006EE030209047206A401C2062381EA7F1010717
S31500006EF0F4DC07E0D4E9012118F805009047206A80
S31500006F00401C2062281EA5F10105F3DC2046FEF791
S31500006F10D0FF21680220090600D40120BDE8F087D1
S31500006F2070472DE9FF4F0C461E464FF0FF378DB0D8
S31500006F30D2E90001DDF868800A908946C1F30A5556
S31500006F4005B93D46002108464FF00000B9F1000F93
S31500006F5000F4400005DA00EB80004FF4400101EA3E
S31500006F6050004FEA905ABAF1010F00DDBA460A986E
S31500006F7050EA490030D044F61050A5F2FF3545439B
S31500006F80CAF100000B902F14B8F1000F3DD07542E6
S31500006F900B9A291E00DC524600DA694206A801F067
S31500006FA029F806AB07CB03AB07C348460A9901F09D
S31500006FB0B7FA8DE80700A0F500501F380090039837
S31500006FC0002D25DD42F21F015246084403A9039015
S31500006FD0684601F040FD24E0B8F1010F4FF00000D3
S31500006FE001D1F24307E0302101E02154401CB042B8
S31500006FF0FBDB30460022002121540D99C1F80880A0
S31500007000C1E9002011B0BDE8F08FBD1B6D1CBFE7C4
S31500007010A0F5005052461F3803A90390684601F0B8
S3150000702042FD8DE807000004000C03D04FF0FF304E
S31500007030410800E01046B8F1000F03D0002200928C
S3150000704015461FE0751E06D4FFF7C2FE02F1300298
S3150000705062556D1EF8D5B3460122084302D00022C0
S315000070607F1C04E02078302801D100227F1E002AF0
S31500007070099789D01DE0112D07DAFFF7A9FE3032F6
S3150000708062556D1C50EA0102F5D108430FD100216B
S31500007090681E05E0235C625C6354491C2254401E52
S315000070A08142F7DBAB46A81B401E099001E0009821
S315000070B048B1002004F80B000D98099AC0F8088022
S315000070C0C0E9002B9EE711264FF000085CE72DE98A
S315000070D0F04F88460446D21D22F0070191B0D1E94F
S315000070E00001CDE90A014CF006FE02460B98C10FDD
S315000070F04FF02D0007D123682B205FEA837C02D452
S31500007100202000EAC300032A099001D0072A05DBE4
S3150000711003464146204600F02FFF0BE1206880061B
S3150000712001D5E06900E0062011238146B8F1650F1C
S3150000713006D0B8F1660F16D0B8F1670F6ED130E001
S315000071400020B9F1110F0090484600DA431C0AAA44
S3150000715001A90CA8FFF7E5FEDDE90C70002609F190
S315000071600105834646E001204B4600904FF000475C
S315000071700AAA01A90CA8FFF7D4FEDDE90DB00C9907
S315000071805D46002618B909F1010001EB0005B9EBCF
S31500007190050003D4C0F1FF3609F10105A5EB09008E
S315000071A029E0B9F1010F01DA4FF001090020B9F128
S315000071B0110F0090484600DC03460AAA01A90CA854
S315000071C0FFF7AFFEDDE90C704D46002683462068CA
S315000071D000070AD4AB4500DA5D4601A8012D04DD9F
S315000071E0411911F8011C302907D04F4502DA17F171
S315000071F0040F04DA0120824610E06D1EEEE7002F30
S3150000720002DCED1B3E4403E0781CA84200DD054687
S31500007210A7EB060000F1010A4FF0004720680007BF
S3150000722003D4AA4501DB4FF0FF3A0021B7F1004F26
S315000072300DF143088DF8431022D002202B23002F96
S3150000724001DA7F422D230A22011EA0F1010000DC93
S315000072504FB197FBF2F102FB117C0F460CF1300C9B
S3150000726008F801CDF0E7A8F101004FF045010370E1
S315000072702268120500D46521A0F1010800F8011C5E
S3150000728009980FA9A1EB080707F1070700B101202C
S3150000729000EB050101EBEA70A1693844A1EB00009F
S315000072A0A0F10100A0612068C00602D42046FEF7C6
S315000072B0EAFD099830B1D4E901219047206A00F12E
S315000072C0010020622068C00620D52046FEF7DBFDBF
S315000072D01CE0002E04DBB34502DD01A8805D00E062
S315000072E03020D4E901219047206A761C401CBAF16F
S315000072F0010A20620AD1FFF767FDC0680168405C99
S31500007300D4E901219047206A401C2062281EA5F17D
S315000073100105DEDC07E0D4E9012118F8010B9047EE
S31500007320206A401C2062381EA7F10107F3DC2046C4
S31500007330FEF7BFFD022065E62DE9F04F04460D4637
S31500007340D21D22F0070089B0D0E900974846394699
S315000073504CF0D1FC0246F80F4FF02D0306D1206801
S315000073602B23810702D4202101EAC0038DF82030A7
S315000073700BB1012000E00020032A824601D0072A33
S3150000738004DB2946204600F0F7FD3CE12068800634
S3150000739001D40D2500E0E569C7F30A560D2D4ADA3A
S315000073A000214FEA175B08464FF00000002F00F45B
S315000073B0400007DA00EB80004FF4400100EBD0708C
S315000073C001EA60004FEAA05CBCF1010F01DD4FF05D
S315000073D0FF3CAB000021182B06D30A46A3F1180088
S315000073E04FF08051C14002E04FF48012DA400C3376
S315000073F0202B03D3203B09FA03F001E007FA03F040
S31500007400BCF1000F4FF0004801DD18B913E012D1AE
S31500007410404510D319EB010357419946BCF1000FC3
S3150000742004D1404502D1974323EA0109BBEB175F1C
S3150000743001D006F101067B4878442168090500D48D
S3150000744013384FF0300C08AA0AF1010102F80AC0FD
S31500007450037C002E0AF1020A5354694601DD4FF0FF
S31500007460310C4FF001088DF800C002D0A6F2FF36AD
S3150000747003E059EA470200D06B4E002D02DC226879
S31500007480120704D54FF002082E228DF80120C446BB
S3150000749000230BE0C7F303423F01825C5B1C6D1EB9
S315000074A001F80820052B08F1010801DA002DF1DCAE
S315000074B000220CE000EB1973521C1B786D1E082A83
S315000074C001F8083008F101084FEA091901DA002D20
S315000074D0F0DC2268920602D514E0A8F10108E04526
S315000074E005DD01EB080212F8012C302AF5D0B8F1BF
S315000074F0000F07DD01EB080212F8012C2E2A01D13C
S31500007500A8F10108002D05DD3E2201F808206D1EB8
S3150000751008F10108407C002E01F8080008F1010876
S3150000752006DA2D2001F80800764208F1010804E089
S315000075302B2001F8080008F101080A274FF47A7396
S315000075409E420ADB96FBF3F000F1300203FB106665
S3150000755001F8082008F1010801E0642E0BDB642322
S3150000756096FBF3F000F1300203FB106601F80820E9
S3150000757008F1010801E00A2E07DB96FBF7F000F19F
S31500007580300001F8080008F1010896FBF7F007FB48
S31500007590106000F1300001F80800A16908F1010847
S315000075A008EB050202EB0A00A1EB0000A0612068CF
S315000075B0C00602D42046FEF766FC216A08AE01EB3F
S315000075C00A00206204E0D4E9012116F8010B904775
S315000075D0BAF1010AF7D22068C00602D52046FEF7A6
S315000075E052FC6E4609E016F8010B3E280FD0D4E98E
S315000075F001219047206A401C2062B8F10108F2D2AE
S315000076002046FEF756FC09B00220BDE8F08F206A3E
S315000076102844206203E0D4E90121302090476D1E02
S31500007620EBD3F8E71752060002FCFFFF10B54369DB
S3150000763013B1AFF3008001E0FEF75FFC012010BD3F
S31500007640126800F124010A7000224A700122EDE757
S3150000765011684FF0FF32E9E710B5436913B1AFF394
S31500007660008001E0FEF7EAFC012010BD126800F17F
S31500007670240182840022C2840122EDE711684FF0C2
S31500007680FF32E9E73A2800D2303820F02002412ABA
S3150000769001D3A2F137004FF0FF32884200D20246F2
S315000076A0104670472DE9F34F4FF0000A0C46564638
S315000076B08FB0012083460D9001F10C000B9062699A
S315000076C00B980121904705002DD0252D2CD0216A3D
S315000076D08847C0B162690B9801219047216A8847A3
S315000076E00028F7D16269411E0B98904700E0761C8E
S315000076F0A1690F988847216A88470028F7D1E16970
S315000077000F988847DBE7A1690F988847A842074684
S3150000771001D1761CD3E7E1690F9888477F1C02D117
S31500007720BAF1000F72D04AE162690B9800273D4614
S31500007730394690472A2804D162690B98012190475F
S315000077400125DFF8E48262690B9801219047A0F1D8
S3150000775030010A290DD2BBF1000F0AD04745E2DC01
S3150000776007EB870100EB4107303FDCD445F01005FD
S31500007770E9E7E90601D46FF000476C280AD04C28E7
S3150000778014D0682815D06A280DD074281CD07A2801
S315000077901AD01DE062690B98012190476C2802D02F
S315000077A045F0040514E045F002050DE045F020051E
S315000077B00AE062690B9801219047682802D045F0DB
S315000077C0080505E045F4006562690B9801219047BC
S315000077D0C4E90157652842D019DC58287ED00CDC54
S315000077E045283CD004DC252826D0412831D136E076
S315000077F0462834D047282CD131E05B287BD061283D
S315000078002DD0632877D0642823D15EE022E06F284C
S315000078104CD008DC662822D0672820D0692826D0DC
S315000078206E2816D12CE0702849D073286CD07528A4
S315000078304BD078280DD151E0A1690F9888472528AB
S3150000784005463FF466AFE1690F9888476D1C3FF423
S3150000785067AFB4E04FF0FF3011B0BDE8F08F0F997D
S3150000786023466A466FF001005BF0DFF9C8E045F099
S31500007870400023464FF000026060A80735D43DE083
S31500007880206800F1040121600068290501D5067011
S3150000789015E7290701D5068011E7A90704D54FEAA0
S315000078A0E671C0E900610AE7066008E745F04000B6
S315000078B023464FF008026060A80716D41EE040F683
S315000078C00E0125EA0100606016E045F040002346FF
S315000078D04FF00A026060A80707D40FE045F04000A9
S315000078E06060A80708D5234610220F996FF00100A3
S315000078F0FEF790FD84E007E0102223460F996FF013
S315000079000100FEF73AFE7BE04FF0000963284F4680
S31500007910C8464B46CDF8309002D05B2806D02FE003
S31500007920E80601D4C4F808B0012729E062690B987B
S31500007930012190475E2805D14FF001094946626949
S315000079400B989047216979B3E168891E0C9160B361
S31500007950216959B308F1010862690B980121904722
S315000079605D28F4D1B9F1000F09D0002003A951F820
S315000079702020D24341F82020401C0828F7DB03AB27
S315000079802069002860684FEA40702AD02246CDF868
S315000079900080CDE901970C9B0F9900286FF001003C
S315000079A02CDAFFF785F82BE001E008E009E0002378
S315000079B003AA42F82130491C0829FADBC7E75046DA
S315000079C04AE7C11700EBD16303A95A1123F01F033D
S315000079D001EB8201C31A0A680BFA03F002430A603C
S315000079E0BAE7009722460F9900286FF0010002DAE5
S315000079F0FEF75CFF04E0FEF767FE01E0FEF7E4FF3A
S31500007A00002808DA4FF0FF31401C01D10D9800B96B
S31500007A105146084620E7E90701D10AF1010A064462
S31500007A2000200D904BE60000CCCCCC0C2DE9F04F9D
S31500007A3080469B4689B00878FF2806D0491C2D2829
S31500007A4005D000244FF0000908E000200CE00124D6
S31500007A50F8E709EB8903491C00EB43090878FF287E
S31500007A60F7D114B1C9F100008146107800242646EA
S31500007A70A2462D2801D02B2813D1521C2D2802D026
S31500007A80002082460DE00120FBE70A200025A4FB2A
S31500007A90007C521C06FB00C004FB0500CC1945EB1C
S31500007AA000061178FF29F0D1002108464FF00000AA
S31500007AB0BAF1000F02D000EB80004008C0F38157F6
S31500007AC0012F01DD4FF0FF3754EA060009EB0B05E5
S31500007AD04FF0000906D14FEACA71C8E9009109B012
S31500007AE0BDE8F08F15F5FA7F4FF0020B04DA4FEA86
S31500007AF0CA71C8E900910CE0B5F5FA7F0EDDF448CD
S31500007B007844D0E90012C8F8001042EACA71C8F8F1
S31500007B100410FDF7F3FAC0F800B0E0E7291EC7F13C
S31500007B20000200DB3A4600DA694206A800F062FA73
S31500007B3006AB07CB03AB07C344F23E0059EA060186
S31500007B400090484604D144F21E0126464C46009158
S31500007B50310C0904014306D10099360446EA14465D
S31500007B6024041039009106F07F41014306D10099A3
S31500007B70360246EA146624020839009106F070417E
S31500007B80014306D10099360146EA14762401091FFD
S31500007B90009106F04041014306D10099B60046EA3D
S31500007BA09476A400891E009106F00041084304D192
S31500007BB0009824197641401E00903A466846CDE961
S31500007BC00164002D03A902DD00F081FF01E000F051
S31500007BD056FFBAF1000F04460D4601D084F000446A
S31500007BE040F2FF7624F00040284303D0C4F30A5045
S31500007BF0B04214D1FDF782FAC0F800B0C4F30A50BF
S31500007C00B0420CD1B3487844D0E90012C8F800104D
S31500007C1004F0004142EA0100C8F804005FE7C8E941
S31500007C2000545CE72DE9FF4F1F464FF0000A4FF066
S31500007C30FF38454691B0D7E90146CDF83CA0FFF79D
S31500007C40C3F8C0680168405C1090B96912986D1C51
S31500007C508847396A814688470028F6D119F101001C
S31500007C600AD0002E24F4D06412DDB9F12B0F08D00F
S31500007C70B9F12D0F0CD102E0404615B030E744F4BF
S31500007C808064B96912986D1C88478146A6F1010681
S31500007C902D20620504A900D42B20002E01F1010B32
S31500007CA00DF130088DF810003FDDB9F1690F08D0ED
S31500007CB0B9F1490F05D0B9F16E0F02D0B9F14E0FE7
S31500007CC01CD13B4601A80095A0E85002DDE912123E
S31500007CD06FF002005AF0ADFFC11CCED10EE0B969BB
S31500007CE012986D1C884781461398761E44F40074DA
S31500007CF005600F98401C002E0F9016DDB9F1300F6D
S31500007D00EDD0B9F1780F02D0B9F1580F0DD10F9817
S31500007D1001280AD13B46CDE90054DDE91212001FC5
S31500007D2002965AF084FFC11CA7D1109989453ED10D
S31500007D3044F0800406E01399681CAAF1010A44F491
S31500007D4000740860B969761E12986D1C8847302841
S31500007D508146F0D02BE01099894505D1200603D441
S31500007D60761E44F0800418E048464CF094FE08B3B2
S31500007D70761E0DF123018B4544F4007408D2A9F157
S31500007D8030000BF8010B200607D5AAF1010003E02D
S31500007D90200602D40AF101008246A00502D51399F5
S31500007DA0681C0860B96912986D1C88478146002EC8
S31500007DB0D1DC5BE0002E59DDB9F1650F02D0B9F1D7
S31500007DC0450F53D1A00551D5B969761E12986D1C81
S31500007DD024F44074884781462020002E00DD484662
S31500007DE02B2803D02D2808D144F48074B969129841
S31500007DF06D1C88478146A6F10106E00505D52D20B4
S31500007E0088F8000008F1010004E02B2108F10100C8
S31500007E1088F800108046009021E0761E0DF13901A9
S31500007E20884544F400740ED24146A9F1300010F0A2
S31500007E30FF0088F8000003D108460099884207D958
S31500007E4008F1010804E02448E10500D440428246D6
S31500007E50B96912986D1C8847814613980560002EF3
S31500007E6004DD48464CF017FE0028D6D1F969129871
S31500007E708847FF2053468BF8000088F80000002052
S31500007E800A900B9004AA0CA90AA8FFF7CFFDA0053B
S31500007E9002D46FF00100F0E614F0240F0AD0E007D8
S31500007EA014D13868DDE90A12031D3B600068C0E999
S31500007EB000120BE00AA968464CF062FDE00705D106
S31500007EC03868009A011D3960006802602846D4E6C9
S31500007ED0107B06000A7A0600F1D8FFFF10B508E00D
S31500007EE030F8024B9C4204D10120002A00D0002029
S31500007EF010BD491EF4D2104610BD70B505460C469D
S31500007F001646FDF7A7FF036893F80101012804D080
S31500007F10185D68B101202C8070BDD3F8030132468C
S31500007F20214603442846BDE8704003F20313184770
S31500007F304FF0FF3070BD70B505460C461646FDF78E
S31500007F4089FF036893F80101012806D0FF2C0FD89A
S31500007F50185D68B101202C7070BDD3F80701324658
S31500007F60214603442846BDE8704003F2071318472C
S31500007F704FF0FF3070BD00002DE9F04104461F466A
S31500007F8003260168072A01F4006003DB15A520B962
S31500007F9015A502E015A500B915A521F01000206071
S31500007FA0A069C01EA0610FB1401EA0612046FDF76A
S31500007FB06AFF4FB1D4E9012138469047206A401C38
S31500007FC02062C01C206206E0206AFAE7D4E901219B
S31500007FD015F8010B9047761EF8D22046FDF769FF8B
S31500007FE0BDE8F0814E414E006E616E00494E46007E
S31500007FF0696E66002DE9F047814616468AB0354817
S315000080007844D0E9002380680092CDE901303148F8
S3150000801078440C38D0E90223006903924FF0370206
S31500008020CDE9043041F69B30014491FBF2F0A0F11A
S31500008030800502FB10141B3C02D56442012000E0BF
S315000080400020DFF890A080460027FA44AAF1C60A6D
S315000080500DE0E00709D03246684607EB47010AEB18
S31500008060810100F020FD8DE8070064107F1C002CC4
S31500008070EFD1184F7F44B43F17E0E80713D007EB62
S3150000808004100DF1180A90E80E00AAE80E00C06868
S31500008090F04201D198190890324606A903A800F0CB
S315000080A002FD03AB07C36D10641C002DE5D13246FB
S315000080B06946B8F1000F03A802D000F0CCFC01E03D
S315000080C000F0F1FCC9E90001C9F808200AB0BDE8D2
S315000080D0F0870000EC4606002DE9FF4F984687B072
S315000080E04FF00042DDE9141001F10109DDF858A056
S315000080F002EA405003900020059083460546044658
S3150000810004909969461E08983C278847AAF1010AF7
S315000081100290BAF1000F36DD02982E2813D01021F6
S31500008120FFF7B0FA002829DB4FF0010B0599014350
S3150000813014D0002F0ADB3A46C117FDF75AF805435B
S315000081400C433F1F05E00120049007E008B145F00D
S31500008150010501200590049800B9361DD8F81810BD
S31500008160089809F101098847BBF1000FAAF1010A35
S315000081700290CED00999C1F80090CAE702987028FB
S3150000818009D0502807D0D8F81C1008988847BBF1AA
S31500008190000F15D04FE0002002900120BBF1000F28
S315000081A0049009D0D8F81810089809F101098847F1
S315000081B0AAF10107002F08DCD8F81C100898884798
S315000081C06FF001000BB0BDE8F08F2B2804D02D28EE
S315000081D00BD14FF0FF300490D8F81810089809F129
S315000081E0010988477F1E002FE6DD411CE4D00A21E5
S315000081F0FFF748FA0028DFDB029909F1010901EBD4
S31500008200810100EB41000290D8F8181008988847C1
S315000082100A21FFF737FA099A7F1E002FC2F800904D
S3150000822001DD0028E8DAD8F81C1008988847049978
S31500008230029800FB016655EA040001D1039894E018
S3150000824004F04041090004D1A40044EA9574AD004D
S31500008250B61E04F00041080002D16D196441761E75
S31500008260159810F0240F03D04FF00B0A5A4803E07C
S315000082704FF0280A6FF07D0083465E4507DAABEBC8
S3150000828006018A44BAF1410F01DD4FF0410A012788
S3150000829000213846AAF10102FCF7ABFF034628404D
S315000082A00A462140084300D10027591E42F1FF32F9
S315000082B0012029402240114300D10020029038437A
S315000082C04CD0002108464FF00000039900F440000E
S315000082D039B100EB80004FF4400100EBD07001EAA9
S315000082E060008015012802DD4FF0FF3000E010D05D
S315000082F0401C33D057B3029858B901275246002183
S315000083003846FCF776FF28402140084300D1002775
S31500008310E7B1012052460021FCF76BFF02464019E7
S315000083200B4661412D1A8C4111D3BAF1400F09DD7C
S31500008330159810F0240F02D0ABF1340603E0ABF130
S31500008340170600E0761C00254FF0004406E0541E98
S31500008350E54343F1FF32054021EA0204CBF1010077
S31500008360B04206DA1D4903980843019000200090A8
S315000083700EE0039AC4F3D321E80A0A43184940EAF7
S3150000838044500A433146CDE9000268464CF078FB7A
S31500008390159810F0240F0DD01598C00719D1D8F8EC
S315000083A00000DDE90012031DC8F800300068C0E9CE
S315000083B000120EE002A869464CF0E2FA1598C007D2
S315000083C007D1D8F80000029B011DC8F8001000680C
S315000083D003604846F6E6000002FCFFFF0000F07F5F
S315000083E00000F03F2DE9FF4F91461D4685B04FF046
S315000083F00042DDE9124BDDE914717F1E02EA4B50A3
S31500008400434A40F0FF4A40EA0208002221F02000D9
S315000084104928049202D04E282BD04FE03DA00126D9
S31500008420D0E9001280680091CDE90120A96906987B
S31500008430641C88477F1E014606D41DF8060018B145
S3150000844021F0200181420BD0E96906988847032E66
S3150000845034D0082E32D06FF0010009B0BDE8F08F9D
S31500008460761C032E01D0082EE0D1601CC9F800004E
S31500008470DCE7A9690698641C88477F1E2AD420F089
S315000084802000412826D1A9690698641C88477F1ECA
S3150000849020D420F020004E281CD1A9690698641C1F
S315000084A088477F1E48F400284AF4800AC9F800402D
S315000084B001D4282806D0E969069888475FEACB7078
S315000084C012D022E0A9690698641C88477F1E01D451
S315000084D0002803DAE96906988847BCE72928F1D11C
S315000084E0641CC9F80040E9E71BF0240F07D0286890
S315000084F00499031D2B600068C0E9001805E0286890
S31500008500021D2A600068C0F800A02046A5E700000A
S315000085100000F07F494E46494E495459000000007C
S315000085205FEA400C08BF91F0000F4FEA8C234FEA38
S31500008530C12243EA51514FEA1C5018BF00F5F040E2
S315000085404FEA300018BF41F000415FEA6C5C00F072
S315000085502980BCF1FF3F08BF40F080407047130CF4
S3150000856006BF12044FF0100C4FF0000C130E04BFA0
S3150000857012020CF1080C130F04BF12010CF1040CCB
S31500008580930F04BF92000CF1020CD30F04BF5200EC
S315000085900CF1010C11464FF00002A0F11F00A0EBF8
S315000085A00C00704711F0004F08BF704731F00041D2
S315000085B03FF4D5AF0B0C06BF09044FF0100C4FF07B
S315000085C0000C0B0E04BF09020CF1080C0B0F04BFC4
S315000085D009010CF1040C8B0F04BF89000CF1020C8D
S315000085E0CB0F04BF49000CF1010CCCF12003A0EB2A
S315000085F00C0022FA03F302FA0CF241EA030100F13D
S315000086000100704720F07F4C80EA030023F07F478B
S31500008610ACEB070303F57C5300F0004003F1FF03C6
S315000086202DE980494FEA154B09B44FEA144325EA70
S315000086300B4E24EA03480FF2042606EB13274908DB
S315000086403E785FEA320203FB0667C7F5000707FBC1
S3150000865006F64FEA54374FEAD64606F1020607FBFE
S31500008660066CCCF1005C4FEA1C472CEA074C07FB72
S3150000867006F40CFB06F504EB15464FEA961634BFD6
S3150000868000204FF000404FEAD13706FB07FC4FEAC7
S315000086901C4C0CFB0BF7D21B03FB0CF761EB070121
S315000086A00CFB0EF7B0EB074072EB17420CFB08F71A
S315000086B034BFA2EB0742B2EB074261EB17414FEA28
S315000086C00C444FEA910706FB07FC4FEA1C4C0CFBD7
S315000086D00BF7B0EBC74072EB573203FB0CF734BF16
S315000086E0A2EBC742B2EBC74261EB57310CFB0EF768
S315000086F0B0EBC70072EB57720CFB08F734BFA2EB66
S31500008700C702B2EBC70261EB5771039F4FEA816163
S3150000871041EA921104EBCC044FEAD1374FEA826268
S3150000872006FB07FC42EA90124FEA80604FEA1C4CB7
S315000087300CFB0BF7D21B03FB0CF761EB07010CFBE1
S315000087400EF7B0EB074072EB17420CFB08F734BF8D
S31500008750A2EB0742B2EB074261EB17414FEA8C5599
S315000087604FEA910704EB9C2406FB07FC4FEA1C4CDE
S315000087700CFB0BF7B0EBC74072EB573203FB0CF761
S3150000878034BFA2EBC742B2EBC74261EB57310CFBD9
S315000087900EF7B0EBC70072EB57720CFB08F734BF4D
S315000087A0A2EBC702B2EBC70261EB577115EB4C2582
S315000087B04FEA816141EA92114FEA82624FEAD1376C
S315000087C042EA901206FB07FC44F100044FEA80607F
S315000087D04FEA1C4C0CFB0BF7D21B03FB0CF761EBAF
S315000087E007010CFB0EF7B0EB074072EB17420CFBD0
S315000087F008F734BFA2EB0742B2EB074261EB174121
S3150000880015EB1C154FEA813141EA92414FEA82325B
S3150000881042EA90424FEA80304FEA0C7644F1000477
S3150000882048EA03434EEA0B484FF0000EB2EB080C41
S3150000883071EB030724BF624639464EEB0E0E4FF02E
S31500008840000B0018524149414BEB0B0BB2EB080CE5
S3150000885071EB03077BF1000B24BF624639464EEBF2
S315000088600E0E4FF0000B0018524149414BEB0B0B1B
S31500008870B2EB080C71EB03077BF1000B24BF6246D9
S3150000888039464EEB0E0E51EA020718BF46F00106B6
S3150000889016EB0E7655F1000254F1000103D5BDE842
S315000088A08901BDE80088BDE88901BDE80048B61920
S315000088B0524141EB0101A3F10103704780807F7EA5
S315000088C07D7C7B7A79787776767574737271717040
S315000088D06F6E6E6D6C6C6B6A6A69686867666665F2
S315000088E06464636362616160605F5F5E5E5D5D5C80
S315000088F05C5B5B5A5A5959585857575656555555F1
S315000089005454535352525251515050504F4F4F4E50
S315000089104E4D4D4D4C4C4C4B4B4B4A4A4A4949499E
S3150000892048484847474747464646454545444444E0
S3150000893044434343434242424241414146EA06469A
S31500008940A3F570534FEA164646EA42564FEAD2223C
S3150000895042EA415210B54FEAD121A3F1010300F0DA
S3150000896017F820F0004000F1010C00F0004701EB81
S3150000897000501146BCF5006F40EA070000D210BD5A
S3150000898002484FF0000140EA070010BD0000F07FEA
S31500008990002B26D4770021D01CB54FEA370703B445
S315000089A04FF010004FF010014FF000000FBCBDE873
S315000089B010400BF1010BBBF1010F08BF5FEA17076F
S315000089C022BF12F1010211F101014FF0004143F102
S315000089D0000300F0004043EA00007047F9D357084F
S315000089E0DAE746EA064613F1400F4FEA16461FDD60
S315000089F013F1200FDFBF16430A46002120335B42E6
S31500008A00C8D0C3F1200746EA064602FA07F74FEA3E
S31500008A10164646EA0706C3F1200722FA03F201FAD0
S31500008A2007F721FA03F14FF0000342EA0702B1E724
S31500008A3046EA020646EA06464FEA164646EA0106B0
S31500008A40BCBF46EA0646360C4FF000034FF0000264
S31500008A504FF000019EE72DE9C048934630B491E8F7
S31500008A60380007C831EA400C48BF34EA430C03D546
S31500008A70FFF7C8FDFFF78CFFF0BCBDE800882DE9C5
S31500008A80C048934630B491E8380007C831EA400C34
S31500008A9048BF34EA430C03D5FFF7B4FDFFF74EFF9A
S31500008AA0F0BCBDE800882DE9C048934630B491E893
S31500008AB0380007C810F0804F08BF13F0804F03D16D
S31500008AC000F019F8FFF764FFF0BCBDE800882DE957
S31500008AD0C048934630B491E8380007C810F0804F7C
S31500008AE008BF13F0804F03D100F005F8FFF726FF0B
S31500008AF0F0BCBDE8008820F07F4780EA030023F041
S31500008B007F4C07EB0C03A3F57C5300F00040A3F168
S31500008B10FE0392F0000F00F0B38095F0000F00F016
S31500008B2077802DE901494FEA11404FEA144621EAC0
S31500008B30004800FB06FC24EA064708FB06F607FB8E
S31500008B4008F800FB07F718EB06484CEB164C4FEA03
S31500008B50124B18EB07484FEA15464CEB174022EA32
S31500008B600B4E0BFB06FC25EA06470EFB06F607FB3B
S31500008B700EFE0BFB07F71EEB064E4CEB164C4FF0AA
S31500008B8000061EEB074E4CEB174B18EB0B0840F19B
S31500008B90000018EB0E0B58EB000840F100008F1A8E
S31500008BA04FF000013CBFC943661B14BFB5EB040C74
S31500008BB000213CBFC943F61B4FEA17444EEA8E0E0E
S31500008BC027EA04454FEA1C4704FB07622CEA074CD8
S31500008BD005FB07F70CFB05F604FB0CFC16EB07463A
S31500008BE042EB174216EB0C4642EB1C421BEB060609
S31500008BF058EB0202414146EA9E0601D5BDE80189CD
S31500008C00B619524141EB0101A3F10103BDE8018907
S31500008C104FEA14454FEA114724EA054621EA074C74
S31500008C2005FB07F406FB07F70CFB06F105FB0CFC3E
S31500008C3011EB074144EB17444FEA124711EB0C4185
S31500008C4044EB1C4422EA074C05FB07F206FB07F738
S31500008C500CFB06F605FB0CFC16EB074642EB17422F
S31500008C6016EB0C4642EB1C456A1854F1000148BF4E
S31500008C707047B619524141EB0101A3F10103704758
S31500008C8095F0000F37D04FEA11424FEA144721EA18
S31500008C90024624EA074C02FB07F106FB07F70CFB2A
S31500008CA006F402FB0CFC14EB074441EB17414FEAB8
S31500008CB0154714EB0C4441EB1C4125EA074C02FB1B
S31500008CC007F506FB07F70CFB06F602FB0CFC16EB9A
S31500008CD0074645EB174516EB0C4645EB1C421219A9
S31500008CE051F1000148BF7047B619524141EB0101ED
S31500008CF0A3F1010370474FEA14454FEA114724EAEE
S31500008D00054621EA074C05FB07F106FB07F70CFBB6
S31500008D1006F24FF0000605FB0CFC12EB074241EB96
S31500008D20174112EB0C4251EB1C4148BF7047921899
S31500008D3041EB0101A3F1010370470000814208BF26
S31500008D40704702F0030332F0030205D050F804CB5B
S31500008D5041F804CB121FF9D1002BD8BF704710F889
S31500008D60012B5B1E01F8012B002BF8DC704701F08C
S31500008D70030231F003014FF0000303D040F8043B37
S31500008D80091FFBD1002AD8BF704700F8013B521ECD
S31500008D90002AFADC704710B507480849084AFFF769
S31500008DA0CDFF08480849094AFFF7C8FFBDE810404B
S31500008DB007480849DBE7000064F70600000000A04A
S31500008DC0C403000028FB0600C40300A088B000000E
S31500008DD04CB400A08C8D280010B501F019F8BDE840
S31500008DE01040FFF7D8BF7047FCF71AB9EFF31082AF
S31500008DF072B602607047016881F310887047EFF31E
S31500008E000581006809B14FF001007047016881F3E0
S31500008E101088704772B670470168EFF3108281F3CD
S31500008E20108882F310887047EFF31080EFF3058106
S31500008E3080F0010009B14FF000007047EFF3108099
S31500008E4072B680F001007047EFF3108062B680F0D2
S31500008E5001007047EFF3108172B601607047016838
S31500008E6081F310887047C0EB00108000704730B562
S31500008E7083B0044600216846FFF7B8FF002000F0E3
S31500008E802DF805462046FFF7EEFFC01E032894BFC7
S31500008E900324C41E002000F021F8401BA042F9D98B
S31500008EA06846FFF7A8FF03B030BDC0EB0010C00056
S31500008EB00C3800F0A9BF10B43C22A0FB02C401FB91
S31500008EC00241002300FB031110BC60467047806816
S31500008ED040687047806880687047000010B5044697
S31500008EE0042828BF01F062FF032C88BF01F05EFF53
S31500008EF0002C08BF4FF0402007D0012C08BF0448C3
S31500008F0003D0022C0CBF03480348806810BD000044
S31500008F1000800040000009400040094010B584B0C0
S31500008F206FF0030029496844884228BF284A03D3C2
S31500008F3040F804298842FBD2274C2648606027481F
S31500008F40A06001F069FF264826490844A168084444
S31500008F50A06006F04BFF206002F03DFE06F066F8CA
S31500008F6002F0C4FF002003460090022204211EA046
S31500008F7001F0C2FB22A325A2274928A001F0BCFBD1
S31500008F802D492EA001F0B8FB01A902A801F038FF77
S31500008F90DDE90110FCF770FE01214EF6602008F0B5
S31500008FA001F80121022008F00BFC0121084607F018
S31500008FB0F7FF06F0FBFE28A052F025FC2FA04DF08F
S31500008FC03FFA0BF00EFA04B010BD000000040010CA
S31500008FD00DF0ADBA00500000C80300A064A706005B
S31500008FE0C403000088B000002E4E65744D462076FE
S31500008FF025642E25642E25642E25640D0A000000A6
S3150000900031333A35303A323100000000466562208D
S315000090103133203230313300282F060025732C20BF
S315000090204275696C6420446174653A0D0A092573BA
S315000090302025730D0A0000005944060041524D20B8
S31500009040436F6D70696C65722076657273696F6EB9
S315000090502025640D0A0000000C6D61696E2065789C
S315000090606974656421213F3F3F2E202048616C745E
S31500009070696E67204350550D0A0000006D61696EE8
S315000090802065786974656421213F3F3F2E20204882
S31500009090616C74696E67204350550D0A000000002C
S315000090A0002110F035B810F021B8512070472DE995
S315000090B0F04184B00F461646984601AA02A90A9CBA
S315000090C02BF0E5F800281CBF04B0BDE8F081CEB156
S315000090D0C4B1019DA86BD0F8D400002819BFD0F800
S315000090E004C0BCF1000F542004B008BFBDE8F081F5
S315000090F043463246394605F118000094E04704B06D
S31500009100BDE8F08104B00720BDE8F0812DE9F04309
S3150000911095B00C4615461E4612AA13A92BF0B7F8B1
S3150000912000281CBF15B0BDE8F08364B35EB34FF0F2
S31500009130FF30306021680020002940F05381A1688B
S31500009140042940F04F816168012D09681BD302296B
S3150000915018BF032928D0042940F04481129FB86B18
S31500009160D0F8D00000281CBFD0F814C0BCF1000F06
S3150000917000F03881E068B0F5807F40F033812069E7
S31500009180022D016803D215B00720BDE8F083A0695F
S31500009190112840F02781009607F11800236AE2693A
S315000091A0E04715B0BDE8F083DDF848C0DCF83820AC
S315000091B0D2F8D020002A00F01581E368B3F5807F4D
S315000091C040F01081236903291B680CBF0127002783
S315000091D0012B03D0002B65D000F004B9D16900291A
S315000091E000F0008100900190029003900490059099
S315000091F0069007900222089009900A900B900C9016
S31500009200022D3FD902EB420054F82010B1F5987FA9
S3150000921011D009DC112923D0B1F5917F28D0A1F511
S31500009220807123392BD11CE0A1F58071313909D029
S31500009230012924D10DE004EB80004168009180688B
S3150000924001901CE004EB8000416808918068029060
S3150000925015E004EB800041680991806803900EE0F8
S315000092603FB104EB800041680B918068059006E0F1
S315000092702FB104EB800041680A9180680490521C6B
S31500009280AA42BFD303980690DCF8380033463A4624
S31500009290D0F8D0006946C4690CF11800A04715B093
S315000092A0BDE8F083916900297ED002900390049076
S315000092B00590069007904FF00008089009900A90D4
S315000092C00B900C900222C1460D900E900F901090BC
S315000092D01190022D78D902EB420054F82010B1F516
S315000092E0927F32D011DC112904BF04EB8000D0E953
S315000092F001894CD0B1F5907F12D0B1F5917F16D08F
S31500009300A1F58071233942D118E0A1F58071253984
S3150000931022D0012927D002292CD0032937D130E0C9
S3150000932004EB800041680A91806802902FE004EB0C
S31500009330800041680C918068049028E004EB80006E
S3150000934041680B918068039021E004EB800041683E
S315000093500D91806805901AE004EB800041680E913B
S315000093608068069013E004EB800041680F918068E6
S3150000937007900CE004EB800041681091806808902B
S3150000938005E004EB80004168119180680990521C49
S315000093909542A0D8B8F1000F16D0B9F1000F13D03E
S315000093A00220CDE9000601E01CE00DE0DCF8380003
S315000093B000234A46D0F8D0004146446A0CF1180012
S315000093C0A04715B0BDE8F083DCF8380033463A46CE
S315000093D0D0F8D00002A984690CF11800A04715B096
S315000093E0BDE8F083129FB86BD0F8D400002819BFEF
S315000093F0D0F800C0BCF1000F542015B008BFBDE87E
S31500009400F08333462A46214607F11800E04715B097
S31500009410BDE8F0832DE9F04184B00E461746984624
S3150000942001AA02A90A9C2AF032FF00281CBF04B038
S31500009430BDE8F081CEB1C4B1019DA86BD0F8C400DF
S31500009440002819BFD0F814C0BCF1000F542004B096
S3150000945008BFBDE8F08143463A46314605F118009B
S315000094600094E04704B0BDE8F08104B00720BDE8F1
S31500009470F0815420704730B583B00C4615466A46D5
S3150000948001A92AF004FF00281CBF03B030BDACB10F
S31500009490A5B1DDF800C0DCF83800D0F8C40000281B
S315000094A019BFC369002B542003B008BF30BD2A463C
S315000094B021460CF11800984703B030BD03B00720D1
S315000094C030BD30B583B00C4615466A4601A92AF070
S315000094D0DEFE00281CBF03B030BD002C02BF0720F3
S315000094E003B030BDDDF800C0DCF83800D0F8C400A9
S315000094F0002819BF0369002B542003B008BF30BDF4
S315000095002A4621460CF11800984703B030BD2DE9D4
S31500009510F04184B00E4690461F4601AA02A90A9C55
S315000095202AF0B5FE00281CBF04B0BDE8F081E7B103
S31500009530002E18BF002C18D0019DA86BD0F8C400CF
S31500009540002819BFD0F818C0BCF1000F542004B091
S3150000955008BFBDE8F0813B464246314605F118009A
S315000095600094E04704B0BDE8F08104B00720BDE8F0
S31500009570F081542070472DE9F04184B00E46DDE9B4
S315000095800A541746984602AA03A92AF080FE002824
S315000095901CBF04B0BDE8F081D6B1CCB10298816B96
S315000095A0D1F8D0C0BCF1000F19BFDCF810C0BCF177
S315000095B0000F542004B008BFBDE8F0814346CDE952
S315000095C000543A4631461830E04704B0BDE8F08111
S315000095D004B00720BDE8F08110B582B00C466A469B
S315000095E001A92AF054FE00281CBF02B010BD009B42
S315000095F0986BD0F8D40038B182682AB1214603F1BD
S315000096001800904702B010BD02B0542010BD2DE9DD
S31500009610F04184B00E4690461F4601AA02A90A9C54
S315000096202AF035FE00281CBF04B0BDE8F081E6B183
S31500009630002F18BF002C18D0019DA86BD0F8C800C9
S31500009640002819BFD0F804C0BCF1000F542004B0A4
S3150000965008BFBDE8F0813B464246314605F1180099
S315000096600094E04704B0BDE8F08104B00720BDE8EF
S31500009670F0815420704730B583B00C4615466A46D3
S3150000968001A92AF004FE00281CBF03B030BDACB10E
S31500009690A5B1DDF800C0DCF83800D0F8C800002815
S315000096A019BF0369002B542003B008BF30BD2A46FA
S315000096B021460CF11800984703B030BD03B00720CF
S315000096C030BD10B582B00C466A4601A92AF0DFFD0E
S315000096D000281CBF02B010BD002C02BF072002B03C
S315000096E010BD009B986BD0F8C800002819BF02680F
S315000096F0002A542002B008BF10BD214603F118000D
S31500009700904702B010BD10B582B00C466A4601A95A
S315000097102AF0BDFD00281CBF02B010BD009B986B4F
S31500009720D0F8C80038B1C2682AB1214603F1180042
S31500009730904702B010BD02B0542010BD30B583B0C2
S315000097400C4615466A4601A92AF0A1FD00281CBF51
S3150000975003B030BD002C02BF072003B030BDDDF8DA
S3150000976000C0DCF83800D0F8C800002819BF8368AC
S31500009770002B542003B008BF30BD2A4621460CF109
S315000097801800984703B030BD2DE9F04184B00E466D
S315000097901746984601AA02A90A9C2AF078FD0028D5
S315000097A01CBF04B0BDE8F081CEB1C4B1019DA86B69
S315000097B0D0F8C400002819BFD0F804C0BCF1000FCF
S315000097C0542004B008BFBDE8F08143463A4631460E
S315000097D005F118000094E04704B0BDE8F08104B03C
S315000097E00720BDE8F08130B583B00C4615466A46C1
S315000097F001A92AF04CFD00281CBF03B030BDACB156
S31500009800A5B1DDF800C0DCF83800D0F8C4000028A7
S3150000981019BFC368002B542003B008BF30BD2A46C9
S3150000982021460CF11800984703B030BD03B007205D
S3150000983030BD30B583B00C4615466A4601A92AF0FC
S3150000984026FD00281CBF03B030BD002C02BF072038
S3150000985003B030BDDDF800C0DCF83800D0F8C40035
S31500009860002819BF0368002B542003B008BF30BD81
S315000098702A4621460CF11800984703B030BD2DE961
S31500009880F04184B00E4690461F4601AA02A90A9CE2
S315000098902AF0FDFC00281CBF04B0BDE8F081E6B14B
S315000098A0002F18BF002C18D0019DA86BD0F8C4005B
S315000098B0002819BFD0F808C0BCF1000F542004B02E
S315000098C008BFBDE8F0813B464246314605F1180027
S315000098D00094E04704B0BDE8F08104B00720BDE87D
S315000098E0F08100002DE9F041144F3968002904BFCA
S315000098F04FF4C870BDE8F08100281CBF0720BDE802
S31500009900F08100240E4E3068002888BF0D4D10D916
S3150000991020462AF0B7FC05EBC4004068D0F8C0002A
S3150000992000281EBF406800288047641C30688442B7
S31500009930EED300203860BDE8F0810000383700A083
S3150000994058BA06002C5C00A0F0B583B00E46174648
S315000099501D466A4601A92AF09AFC00281CBF03B0DE
S31500009960F0BD002D02BF072003B0F0BD009CA06B28
S31500009970D0F8D400002819BFD0F81CC0BCF1000FE5
S31500009980542003B008BFF0BD2B463A46314604F1D9
S315000099901800E04703B0F0BD00B583B06A4601A9E0
S315000099A02AF075FC00281CBF03B000BD009A906B1E
S315000099B0D0F8D40030B1016A21B102F1180088470D
S315000099C003B000BD03B0542000BD30B583B00C46D3
S315000099D015466A4601A92AF05AFC00281CBF03B0A6
S315000099E030BD002C02BF072003B030BDDDF800C03B
S315000099F0DCF83800D0F8D400002819BF8369002BA2
S31500009A00542003B008BF30BD2A4621460CF1180089
S31500009A10984703B030BD2DE9F04184B00E46174695
S31500009A20984601AA02A90A9C2AF031FC00281CBF0C
S31500009A3004B0BDE8F081E6B1002F18BF002C18D0A5
S31500009A40019DA86BD0F8D000002819BFD0F800C03F
S31500009A50BCF1000F542004B008BFBDE8F0814346B6
S31500009A603A46314605F118000094E04704B0BDE8D7
S31500009A70F08104B00720BDE8F0812DE9F04F87B0F2
S31500009A808846DDE91245DDE9106791469A4604AA43
S31500009A9005A92AF0FCFB00281CBF07B0BDE8F08F23
S31500009AA0B8F1000F21D0002C18BF002D1DD0DDF815
S31500009AB010B0DBF83800D0F8D000002819BFD0F875
S31500009AC004C0BCF1000F542007B008BFBDE8F08FFA
S31500009AD053464A4641460BF11800CDE90245CDE909
S31500009AE00067E04707B0BDE8F08F07B00720BDE884
S31500009AF0F08FF0B583B00E4615461F466A4601A99B
S31500009B002AF0C5FB00281CBF03B0F0BD002D02BF24
S31500009B10072003B0F0BD009CA06BD0F8D40000284D
S31500009B2019BFD0F810C0BCF1000F542003B008BF15
S31500009B30F0BD3B462A46314604F11800E04703B023
S31500009B40F0BD0000002804BF0720704701490160EE
S31500009B50002070473C3700A051207047154909681E
S31500009B60002904BF4FF4C8707047002804BF0720BF
S31500009B70704702210170142141700F490A68C0F82C
S31500009B8002204A68C0F806200A8942810022426201
S31500009B90D1F80A308362D1F80E30C3624B8A03864D
S31500009BA0097D80F83210012180F8481080F849209C
S31500009BB010467047383700A098B4060030B583B019
S31500009BC00D4614466A4601A92AF061FB00281CBF0F
S31500009BD003B030BD002C02BF072003B030BDDDF856
S31500009BE000C0DCF83800D0F8D400002819BFC368DC
S31500009BF0002B542003B008BF30BD224629460CF185
S31500009C001800984703B030BD00281CBF07207047D6
S31500009C102DE9F041144F386800281CBF40F291101E
S31500009C20BDE8F0812AF029FB2AF022FB0F4E002422
S31500009C303068002888BF0E4D0DD905EBC40040687A
S31500009C40D0F8C00000281EBF006800288047641CAA
S31500009C5030688442F1D3074808F080F80120386064
S31500009C600020BDE8F0810000383700A058BA060091
S31500009C702C5C00A035CB0000F0B583B00E4615462F
S31500009C801F466A4601A92AF002FB00281CBF03B042
S31500009C90F0BD002D02BF072003B0F0BD009CA06BF5
S31500009CA0D0F8D400002819BFD0F814C0BCF1000FBA
S31500009CB0542003B008BFF0BD3B462A46314604F1A6
S31500009CC01800E04703B0F0BD542070472DE9F04F6F
S31500009CD087B08846DDE91274DDE91056924699464A
S31500009CE004AA05A92AF0D3FA00281CBF07B0BDE8CC
S31500009CF0F08FB8F1000F22D0B9F1000F18BF002C79
S31500009D001DD0DDF810B0DBF83800D0F8D000002800
S31500009D1019BFD0F80CC0BCF1000F542007B008BF23
S31500009D20BDE8F08F4B46CDE90274CDE900565246A8
S31500009D3041460BF11800E04707B0BDE8F08F07B0C9
S31500009D400720BDE8F08F2DE9F04184B00E46DDE92D
S31500009D500A451746984602AA03A92AF098FA002847
S31500009D601CBF04B0BDE8F081EEB1002C18BF002D79
S31500009D7019D00298816BD1F8D0C0BCF1000F19BF81
S31500009D80DCF808C0BCF1000F542004B008BFBDE8E1
S31500009D90F08143463A4631461830CDE90045E04762
S31500009DA004B0BDE8F08104B00720BDE8F08110B52D
S31500009DB005F02CFCBDE810400AF013BB04B02DE9F9
S31500009DC0FF0F6846EFF30581FFF7F1BF21F028BFCB
S31500009DD081B000B52DE9FF5F6846EFF30381C163EB
S31500009DE0AFF3008010B582B0044600216846FEF746
S31500009DF0FDFF0021204605F009FC0AF0F2FA68464C
S31500009E00FEF7F9FF02B010BD001FFDDCF7460000AB
S31500009E1023482121C0F8A011D0F8A01111F0400F5D
S31500009E20FAD00122C0F80C210921C0F88410C0F82C
S31500009E308020AA23C0F88C304FF0550CC0F88CC097
S31500009E40D0F8881011F4806FFAD02321C0F8A4103E
S31500009E50C0F8A020C0F8AC30C0F8ACC0D0F8A8104C
S31500009E6011F4806FFAD040F20111C0F8041140F2EB
S31500009E700121C0F80811C0F800210221C0F8A8117C
S31500009E806FF48031C0F8C4104FF48071C0F8C81167
S31500009E9046F23A01016003494FF08050086070476E
S31500009EA000C00F4008ED00E0034951F820000028EB
S31500009EB0CCBF0120002070478CB400A0FFF786BFFE
S31500009EC010B586B0044600216846FEF78FFF0120D4
S31500009ED0012C08BF134908D0022C08BF124904D030
S31500009EE06846FEF788FF06B010BD086004AA02A9FE
S31500009EF0204605F0AFF800231A460221029804F026
S31500009F00B9FC00231A460221049804F0B3FC20464B
S31500009F1009F0ECF9204608F099FE6846FEF76BFF5B
S31500009F2006B010BD00400440008004402DE9F04F0B
S31500009F308046C248C2499BB0081AC01C16904FEA18
S31500009F40186017901FFA88F04FF0000B18904FF02A
S31500009F50000A15F025F9002302220421B9A0CDF844
S31500009F6000B049F059FB0FF0BBF8BFA049F054FB15
S31500009F70C14CC4F8008025F08FFE0028C0F2148181
S31500009F80BEA049F049FBC8F3074020B1BF480168AD
S31500009F9041F000410160BD4825F078FE0028C0F27E
S31500009FA00381BBA049F038FB18F0F6FD01202071B3
S31500009FB0DFF8C492BBA049F02FFB16989F4920F00A
S31500009FC003079F4D0C4601AA684618F093F900282E
S31500009FD01CBF0098002808D0C268806881681046B7
S31500009FE08847006810F0020F0FD0002000283EDBE3
S31500009FF02A462146AFA049F00FFB291B0022204626
S3150000A00004F072F9B349086027E00C2138460FF0D6
S3150000A0105BF8060008BF4FF07A40E7D0DDE900C1E3
S3150000A0200346DCF80C00DCF808C03A46DCF80CC045
S3150000A030E04700280EBF4FF077403446F519D5D0DB
S3150000A040D3E76A462146484649F00EFA00280EDB59
S3150000A050606E2044C01C20F0030404F17C00A8427A
S3150000A06004D2204649F036FD0028EAD10020002817
S3150000A070C0F2968098A049F0CFFA50210AA820F0A5
S3150000A080C9F918B99DA049F0C7FA6DE01398C268DE
S3150000A09080688168104688470AAC7C26B4E80E10B2
S3150000A0A08DE80E100EACB4E80E1004ACA4E80E1049
S3150000A0B0DDE91212CDE908120068CDF850B0C0F300
S3150000A0C040044CB9012130460FF022F814900028C4
S3150000A0D045D03146FBF7D0FD7742324614A9684693
S3150000A0E020F01AFB80B3149D284649F0BBFC58B3F8
S3150000A0F0686EC01C20F003052CB90C2128460EF012
S3150000A100E3FF1590F8B101223946684620F05CFB62
S3150000A1102A4615A9684620F0FFFAA8B1159D2846DB
S3150000A12049F0D8FC58B182A049F076FA19AA294616
S3150000A130484649F099F9002807DA0CB10FE074B9DE
S3150000A14015980EF0D3FF07E005E01998016941F074
S3150000A15008010161C1E714B914980EF0C7FF0AA8F7
S3150000A16020F08CF9002891D178A049F055FA7B4867
S3150000A1701DF06CFD002813DB79482CF0AFF877480A
S3150000A1801EF0A8FB00280BDB76A049F045FA00215B
S3150000A1903E48189A27F0EEFA75A049F03DFA03E01A
S3150000A1A0014675A049F038FA384C206810F0005F77
S3150000A1B017D1206820F440602060206840F40060D9
S3150000A1C0206071480068006830B1012100230091C9
S3150000A1D01A4609210EF048FF1798002818BF19F0F3
S3150000A1E03BF9206810F0005F20D0A06810F0010F46
S3150000A1F01AD0052131EA00000CBF0120002060F3CF
S3150000A20017480020FEF71AFE55482CF012FC25F0E0
S3150000A21053FD194880F804B002F03AFF01F066FEDB
S3150000A2200020FEF711FE92E62AF01DF8BAF1000FA3
S3150000A2307FF48DAE1BB0BDE8F08F0000B056E8A0ED
S3150000A2400CCEE9A00D0A54696E79434C522028427F
S3150000A25075696C642025642E25642E25642E25647C
S3150000A260290D0A0D0A0000005374617274696E6745
S3150000A2702E2E2E0D0A000000D60300A04372656143
S3150000A2807465642045452E0D0A000000D84C02A0D6
S3150000A2905374617274656420486172647761726593
S3150000A2A02E0D0A004372656174652054532E0D0A03
S3150000A2B000000000204C6F6164696E672073746152
S3150000A2C072742061742025782C20656E64202578B0
S3150000A2D00D0A0000700400A04C6F6164696E67206F
S3150000A2E04465706C6F796D656E7420417373656D2E
S3150000A2F0626C6965732E0D0A000000004552524FCC
S3150000A300523A20436F756C64206E6F742066696ED6
S3150000A310642064657669636520666F7220444550E3
S3150000A3204C4F594D454E542075736167650D0A00B3
S3150000A330417474616368696E67206465706C6F79D7
S3150000A34065642066696C652E0D0A00005265736FA0
S3150000A3506C76696E672E0D0A000000000C5002A094
S3150000A360905302A052656164792E0D0A0000000028
S3150000A370446F6E652E0D0A004572726F723A202583
S3150000A3803038780D0A000000640400A00A494868C5
S3150000A3900A4A28B113685B1C13608B6818438860EF
S3150000A3A0C868002808BF704753685B1C53600A6979
S3150000A3B0104308617047000000000820303900A0F3
S3150000A3C00020704730B583B0044600216846FEF78A
S3150000A3D00DFD0648016801EA04050168A143016014
S3150000A3E06846FEF708FD03B0284630BDF00300A01E
S3150000A3F010B582B0044600216846FEF7F7FC074A0E
S3150000A400116841EA04001060516800291CBF906879
S3150000A41088476846FEF7EFFC02B010BDF00300A0C7
S3150000A4202DE9F04389B00500109E88461F467CD072
S3150000A430D8F80040002C11BF002A002009B0BDE862
S3150000A440F08304F1B000C8F80000A2F10109B021C0
S3150000A4502046FBF733FC002F08BF2F4627602878DD
S3150000A46060606878A0606888E060002E18BF306879
S3150000A47014D0C4F8980060681B2856D2DFE800F0B4
S3150000A4805517171717171717171717171717171C13
S3150000A490374141453755555555174F00294602A8AE
S3150000A4A022F02CFE0028A8BF0398E4DBE1E7D5E9FB
S3150000A4B00101C4E9040138E06D688DB12846C4F88D
S3150000A4C0945000F0E4FEC4F890007F2828BF7F2057
S3150000A4D003462A46802104F1100001F063FB24E0C4
S3150000A4E00020C4F89400C4F8900020741DE0686849
S3150000A4F000234A4641460096FFF792FF09B0BDE8A1
S3150000A500F0836868C4F898000FE0E868C4F89C0017
