S315F002000000F004B8002000F0FDB8000070B5174DFE
S315F00200100024686830BB164A00234FF0FF3CC2E961
S315F002002016C3C2F854C0C2F850C01846136600EBA5
S315F0020030400102EB8101401CC1E919C3CB663028AD
S315F0020040F5DB5360137000F059F800F06BF800F02E
S315F00200501BF8002808BF4FF0FF3403D000F00AF86F
S315F002006001206860601C18BF012070BDE00300A08B
S315F0020070502C29A010B541F24811024856F0AEFCB8
S315F0020080012010BD502F29A000F066B800F08AB802
S315F0020090032824BF4FF07D40704770B50C460546E5
S315F00200A0144900EB450001EB401000F10801602213
S315F00200B0204656F084FC206810F0010F18D00E4846
S315F00200C050F8250061F078F970B141686160816895
S315F00200D0A160C068E060002000F0ECF82061012029
S315F00200E000F0E8F8606103E000206060A060E06084
S315F00200F0002070BD080500A0402C29A010B50748C5
S315F00201004FF49472064956F0A1FB002818BF10BDB1
S315F00201100021BDE81040084600F028B818CEE9A044
S315F0020120080500A010B5094CA068002818BF10BD3C
S315F002013007484FF4CA72074956F088FB18B90021EE
S315F0020140084600F099F80120A06010BDE00300A077
S315F00201500CCEE9A0300600A010B500F001F900F0CF
S315F0020160C3F800F0CDF8012010BD000010B5032849
S315F0020170A8BF10BD41B100EB4000084A02EB4010A7
S315F00201800830602256F01BFCBDE8104004480123FB
S315F00201904FF49472014956F068BB0000080500A0BE
S315F00201A018CEE9A070B5144E01207168002908BF77
S315F00201B070BD124856F0D6FB00281CBF0F4856F009
S315F00201C040FB0F4C04F1300056F0C7FB04F1080077
S315F00201D056F0C3FB00252570012000F013F800F05D
S315F00201E077F8681EA0656065206500F07BF875609B
S315F00201F0B560F56070BD0000E00300A0A0B500A0F8
S315F0020200502C29A02DE9F0471A4E00258046376E6C
S315F0020210002FC6BF4FF000094FF0FF3ABDE8F08756
S315F002022005EB450006EB8004606E411C06D0B8F182
S315F0020230000F10D1A16E11F0020F0CD0002D05DDCA
S315F0020240D6E91901F26EE266C4E919016D1CBD42E6
S315F0020250E6DBBDE8F087E16E11B161F0CBF801E0C3
S315F002026003F00EF8C4E919A9C4F86C90306E401E7A
S315F00202703066EBE7502C29A010B50128A8BF10BDB7
S315F002028059B100EB4010094A00EB400002EB800046
S315F002029008304FF4C67256F092FBBDE8104004489F
S315F00202A001234FF4CA72014956F0DFBA300600A0B4
S315F00202B00CCEE9A0022822BF034800687047034922
S315F00202C051F82000704700000454EBA0240B00A064
S315F00202D010B500F091F8024A0021116010BD00003D
S315F00202E0C40700A000F0B0B810B500F04FF803490B
S315F00202F00028086018BF012010BD0000C40B00A042
S315F002030010B5134C86B0204662F065FA0590204689
S315F002031062F061FA03906FF0FF0062F05CFA04900B
S315F002032000200C4A00900C49CDE9011205AB04AA53
S315F002033003A90A4861F0A8F9044661F0DFF92046FC
S315F002034062F029F8054890F8380006B010BD0000B2
S315F00203500100007F7D09DFA0B503DFA0502B29A0A5
S315F002036010B500F0EFFB00F025F900F0D3F800F03D
S315F0020370EFF856F094F90021084656F095F900F098
S315F0020380AFF8BDE8104000F075B800000548006807
S315F0020390002808BF704704490160044941600449D6
S315F00203A081607047783900A0B10ADFA0AD0ADFA0FC
S315F00203B0F10ADFA010B54FF48061818502494161EF
S315F00203C000F0B4FB002010BDB908DFA070B50646F8
S315F00203D00024304600F042F905000AD164224FF4B7
S315F00203E08041202056F078FA56F0A5F8641C322C9B
S315F00203F0EFDB284670BD000070B501260E4D0024D5
S315F0020400C4EBC40000EB041055F8200000281CBF12
S315F0020410204600F001F9641C302CF1D30749002084
S315F0020420C1F8400100F0CCF800F0D8F804494FF0DA
S315F0020430FF300860304670BD502F29A0503F29A0EA
S315F0020440E83600A0FFF724BE70B500F085F9084D36
S315F002045000246868002806DD204656F010FA68681F
S315F0020460641CA042F8DC00F07FFB012070BD0000A6
S315F0020470080500A038B513A000F00EFB00904FF46B
S315F00204808C61124856F0AAFA114C00204FF4007112
S315F0020490A060E0600F4856F0A1FA62F09DF8606045
S315F00204A0002808BF38BD00220B4962F035F8002259
S315F00204B00A49606862F0A4F86946002061F092FF8A
S315F00204C038BD0000302E302E302E3000C45314A02A
S315F00204D01C0B00A0245814A00454EBA07907DFA04B
S315F00204E0074910B500200860064862F074F906491B
S315F00204F00860064862F06FF90549086010BD000011
S315F0020500AC0B00A0010000E0B00B00A0020000E07E
S315F0020510B40B00A010B50C480C4C20F003004FF4BD
S315F0020520801200216060C0E90021017200F580119D
S315F00205300123A1600B720A604A60E060184640F03F
S315F0020540F9FA206010BD0000275A14A0300B00A063
S315F002055070B40020401C80B21028FBD31248DFF89A
S315F002056050C020F003010020104B0546ACF12004E8
S315F002057043F820503CF810600022002E0DD953F8B3
S315F002058020600E6043F8201034F81060521C31449B
S315F00205903CF8106092B29642F1D8401C80B2102814
S315F00205A0E6D370BC704700004BA024A008A024A09C
S315F00205B0B851EBA00149002008607047480B00A033
S315F00205C010B5054C2068002808BF53F0B9F820682A
S315F00205D04068BDE810400047943800A010B50220EC
S315F00205E040F01CFD012040F019FD4FF0FF3040F0C5
S315F00205F015FD00F0D7FA06480168022903D1002159
S315F0020600016000F0DDFABDE8104000F0FFBA00002C
S315F0020610406000A000F0F6BB70B5302819D2002871
S315F002062017DBC0EBC0010C4D01EB001455F82400AA
S315F002063078B100F001FB05EB84005C2156F0CEF9AF
S315F002064005F58050D0F84011491EC0F8401101203E
S315F002065070BD002070BD0000502F29A070B588B083
S315F0020660012600240196CDE9066400281EBF00206B
S315F002067008B070BD2C4D286D401C52D12B482C4928
S315F00206802246846156F0CEF801230622194602204C
S315F00206904BF08AF82865411C43D002940221ADF84A
S315F00206A0081049F26501ADF80A1003940494059412
S315F00206B001AA204960F090FE401C24D00424009444
S315F00206C006AB01220621286D60F08CFE401C1AD082
S315F00206D0009407AB80224FF6FF71286D60F082FE20
S315F00206E0401C10D0102202A9286D49F0AFFF401C21
S315F00206F009D00121286D00F053FB401C03D02E7067
S315F002070000F09EFB0DE0286D411C0AD060F068FEF9
S315F00207104FF0FF30286560F061FE014606A056F004
S315F00207202BF908B0012070BD502C29A0B0B500A05D
S315F0020730010EDFA07E6604804442474C495354457D
S315F00207404E455220534F434B45545F4552524F52FA
S315F00207503A2025640D0A000010B5064861F002FE43
S315F002076004484BF03BF84821024856F037F901208D
S315F002077010BD0000502B29A02DE9F0411746128931
S315F002078084B0B2F5007F75D81A2A73D3002348498C
S315F0020790384661F03DFE398988426BD1444E308845
S315F00207A050F0E5FBC0B2042864D2C0EBC00000EB07
S315F00207B08000A6F58C6101EBC0042078022859D19D
S315F00207C003202070F07800F00F006071B08850F0CE
S315F00207D0CEFB00F0FF08F08850F0C9FBC5B2B07846
S315F00207E010F0800F39D06079002808BFB8F1010FF8
S315F00207F033D12F4E04F10C0006F10C0100F08CFB04
S315F002080058BB06F10C0000F0A4FB001D2DB300F05E
S315F0020810A0FB016800914168064601910089ADF896
S315F00208200800BDF8000050F0A0FB01280BD1BDF87E
S315F0020830020050F09AFB012805D1BDF8080050F0ED
S315F002084094FB04281CD0BDF8080050F090FB30440D
S315F00208500A30691E11F0FF05D9D1D4F810312BB147
S315F0020860002104F10C00D4F81421984700202070DE
S315F0020870C4F8100104B03846BDE8F04161F0EABCB4
S315F0020880019861F0E4FC0B49A060884288BFA16040
S315F0020890D6F80A00C4F80C01D4F81031002BE9D0CE
S315F00208A004F5867104F10C00D4F814219847E1E7B7
S315F00208B0245814A0803A0900F0B50E46054683B0D6
S315F00208C014460E2130464FF0BBFA00281EBF6FF0D9
S315F00208D0010003B0F0BD294620464EF0F1FC002897
S315F00208E018BF254B28D14FF0704061F0B0FC21685B
S315F00208F000EA01074FF0604061F0A9FC874223D17C
S315F002090001208DF8000000208DF801005E208DF8A0
S315F00209100200206861F09BFCC0F306408DF80300EC
S315F0020920206861F094FC000A8DF80400206861F0FA
S315F00209308EFC8DF805006B4605F12F0231462846EE
S315F00209404AF096FF03B0F0BD2168A8686A680140D4
S315F00209501040814208D0E868002809BF6FF0030012
S315F002096005F10C0403B0F0BD32462146284600F0EC
S315F0020970F1FB03B0F0BD000054CFE9A070B5044618
S315F002098040680D46808950F0F2FAB0F5006F08D053
S315F0020990A0F5006006381ED0204661F05BFC002010
S315F00209A070BD2146284600F095FB6FF00D012046FA
S315F00209B04FF046FA50B10B4B40F28F420AA113A008
S315F00209C055F0DAFF204661F045FCE8E72946204675
S315F00209D04EF0B6F8E3E7224605F12F01284600F07D
S315F00209E0C9FADCE760CFE9A043616E2774206D6F28
S315F00209F07665206F76657220686561646572206936
S315F0020A006E207061636B6574000000004C574950AC
S315F0020A1020417373657274696F6E202225732220EA
S315F0020A206661696C6564206174206C696E65202567
S315F0020A306420696E2025730A0000000010B5044692
S315F0020A4007480368002B08BF10BD5868A04203D1BF
S315F0020A50052118464EF07AFA1B68002BF5D110BD27
S315F0020A60AC0B00A010B504460A4901F03BFE002883
S315F0020A7004BF4FF0FF3010BD02214173017C491CC7
S315F0020A800174E36B1BB1012202492046984700200C
S315F0020A9010BD0000B00B00A008B5694600F0DAFC04
S315F0020AA0002814BF00984FF0FF3008BD70470000D1
S315F0020AB010B50B4904460868C4F82F008888A4F8D4
S315F0020AC033004FF40071074855F088FF06480123BA
S315F0020AD006492246836155F0A5FE012010BD0000AD
S315F0020AE0AC54EBA0C0E828A0C0EA28A0B50DDFA060
S315F0020AF00C4A10B50A4B506843F82010401C50605F
S315F0020B00802804BF0020506042F21071064855F06A
S315F0020B10BBFE42F210704DF0EBFE002010BD00005D
S315F0020B20C0E828A0783900A0C0EA28A06C2180F895
S315F0020B3036106F2180F83710014941610020704765
S315F0020B40B542DFA010B5C821044855F05BFF044951
S315F0020B50002008600349086010BD0000405A24A036
S315F0020B60743900A0483900A010B555F0A2FDBDE8D1
S315F0020B701040FFF7E7BF000070B50C46154605A119
S315F0020B8055F013FF18B92946204600F029F900203E
S315F0020B9070BD000074637069705F74687265616439
S315F0020BA00000000010B5054C0349206864F032FCE1
S315F0020BB00020206010BD00004516DFA00C6000A0EA
S315F0020BC070B50E4CA06800281EBF0220A06070BD52
S315F0020BD06068002808BF70BD00250949056258F013
S315F0020BE0AFFD0849606858F0ABFD0749606858F0F8
S315F0020BF0A7FD60685DF0CAFB656070BD386000A055
S315F0020C006116DFA06516DFA06916DFA070B5084C85
S315F0020C100025206818B1074964F0FCFB256060687E
S315F0020C20002808BF70BD64F0A3F9656070BD0000CE
S315F0020C30446000A07116DFA0002808BF704738B5DF
S315F0020C40044640F2FD100090514B10224FF0FF3156
S315F0020C5004F1FC0064F090FA0028C8BF38BD206F9A
S315F0020C60002818BF57F01DF904F1F00221460120C1
S315F0020C7060F074FA606958B12169884203D1084676
S315F0020C8064F0C2F92061606964F082F90020606163
S315F0020C90E068002818BF5CF034FC206900281EBF0B
S315F0020CA0E16888425CF02DFCE06B002818BF63F027
S315F0020CB0F0FE606F002818BF64F05AF9A06F0028A2
S315F0020CC018BF64F055F9D4F8C00030B1204600F0F0
S315F0020CD0F1FED4F8C00064F0E1F9204656F0CAFD00
S315F0020CE004F1840064F0D0F904F1900064F0CCF9D8
S315F0020CF0D4F89800002818BF56F082FDD4F82001E7
S315F0020D00002818BF64F070FBD4F87001002818BFF1
S315F0020D105FF01AFFD4F84801002818BF64F064FBAC
S315F0020D20D4F85001002818BF64F05EFBD4F85401E1
S315F0020D30002818BF64F058FBD4F8340100281CBF11
S315F0020D40144964F067FBD4F8300100281CBF12493D
S315F0020D5064F060FBD4F83801002818BF64F044FB55
S315F0020D60D4F8F80000281CBF0C4964F053FBA068C5
S315F0020D7010B1C16820468847D4F8E400002818BFAD
S315F0020D805FF0E2FE2046BDE8384064F02DBB00007D
S315F0020D90003AEBA01D16DFA00916DFA05FAEE4A0B5
S315F0020DA000F0EEBD00234AF0FFBC00F0EBBD00F010
S315F0020DB0C3BD00000146084810B54268002A0CBFC0
S315F0020DC07F22521E054850F822000A699047BDE874
S315F0020DD01040042000F038BC783900A0C0E828A002
S315F0020DE000F0C0BC0146014800F044BCC4B300A008
S315F0020DF00146014800F0C8BD1CB400A000F002BED6
S315F0020E0060F0B4BA00281CBF0020704770B50B4CD6
S315F0020E100020207055F06AFD054660F0A7FA206DB5
S315F0020E20411C04D060F0DCFA4FF0FF302065002D53
S315F0020E3004BF002055F055FD012070BD502C29A0AD
S315F0020E40F0B589B0264F01260196F868002844D1FC
S315F0020E5000222449244855F0E5FC0024029402209D
S315F0020E60ADF8080049F26510ADF80A0002210394C4
S315F0020E70049405942346112208464AF095FC1B4D2C
S315F0020E80411CA86529D01A49CDE9061401AA1949C7
S315F0020E9060F0A2FA401C12D00820009006AB0C2299
S315F0020EA00021A86D00F0C4FB401C08D0102202A954
S315F0020EB0A86D49F0CBFB401C18BFFE600DD1A86DA2
S315F0020EC0411C0AD060F08CFA4FF0FF30A86560F052
S315F0020ED085FA014608A055F04FFD09B00120F0BD94
S315F0020EE0E00300A09D17DFA0A0B500A0502C29A01A
S315F0020EF0EA66622C7E6604804D554C544943415352
S315F0020F005420534F434B45545F4552524F523A2069
S315F0020F1025640D0A0000000010B44FF0C00C11F861
S315F0020F20012B3CEA020311D062B103780C78A3429A
S315F0020F3002D010BC01207047491C401C521E12F010
S315F0020F40FF02F2D10A78401C002AE8D110BC002038
S315F0020F507047C02210F8011B32EA010308D021B112
S315F0020F60401C491E11F0FF01FAD101780029F1D196
S315F0020F70401C70472DE9F84306000F4690463FD0D5
S315F0020F80B8F80A002A2838BF10467CD3D8F804509D
S315F0020F90012005F10E044FF0EAFF2188884271D153
S315F0020FA040F204604FF0E3FFA18888426AD14FF421
S315F0020FB000604FF0DCFF6188884263D140F606009C
S315F0020FC04FF0D5FFA98988425CD1D4F80E00009083
S315F0020FD07068A169002808BF4FF0000919D0814254
S315F0020FE00CBF4FF001094FF00009B9F1000F10D014
S315F0020FF0012304F108026946304642F017FB0FE07E
S315F0021000234B40F26A2223A126A055F0B5FCBDE897
S315F0021010F883002304F108026946304642F006FBE3
S315F0021020E0884FF0A4FF01282CD1B9F1000F29D0A6
S315F002103002204FF09CFFE080D4F80E00A0617068A9
S315F0021040C4F80E0096F82E00062807D0104B40F290
S315F0021050C32203F1500113A055F08EFC0620401E68
S315F002106010F0FF0004EB00010A7A8A742A543A5C03
S315F00210700A7205EB0002395C9171F0D1B269414610
S315F002108030469047404661F0E5F8BDE8F883000047
S315F002109060CFE9A06E6574696620213D204E554CFD
S315F00210A04C0000004C5749502041737365727469C5
S315F00210B06F6E2022257322206661696C6564206159
S315F00210C074206C696E6520256420696E2025730A8A
S315F00210D00000000030B498B14A6883684468D2F8D8
S315F00210E01AC002F10E010CEA030C23409C451CBF08
S315F00210F030BC70470023921D30BC0C3142F096BAD8
S315F002110030BC034B40F2352202A106A055F034BCA6
S315F002111060CFE9A06E6574696620213D204E554C7C
S315F00211204C0000004C574950204173736572746944
S315F00211306F6E2022257322206661696C65642061D8
S315F002114074206C696E6520256420696E2025730A09
S315F0021150000000002DE9F05F0C46824600F12F0BED
S315F0021160014616464FF0FF3920464EF0A9F8002800
S315F002117034D14FF0704061F06AF8216800EA010557
S315F00211804FF0604061F063F8854227D0002C1CBF17
S315F00211902068002822D00121204600F051FF0028C5
S315F00211A0B8BFBDE8F09F00EB8007DFF8F08008EBF0
S315F00211B08705A87B002806BF0120A873012811D055
S315F00211C0022809D0364B40F28E3236A13FA055F0B6
S315F00211D0D3FBA87B012805D026B10AE06FF00900FF
S315F00211E0BDE8F09F2146504662F05EF88146002E39
S315F00211F051D0A87B022805D0012804BF0025344629
S315F002120009D048E005F108035A46314650464AF0FD
S315F00212102FFB81463FE060892189884208D1206808
S315F002122030B11F4B40F2AF3234A128A055F0A4FBE7
S315F0021230207B012803D12468002CECD175B12189D9
S315F0021240002203205EF0FEFC040024D031464DF06D
S315F00212507BFB40B1204660F0FDFF1CE03446304691
S315F00212604EF040FFBCB10B204EF0BCFE0028F1D090
S315F00212700021C0E9001458F82710002908BF48F8E1
S315F0021280270006D00A681AB111461268002AFBD165
S315F002129008604FF000094846BDE8F09F405A24A086
S315F00212A060CFE9A06172705F7461626C655B695DC3
S315F00212B02E7374617465203D3D2050454E44494E6F
S315F00212C047206F7220535441424C45004C574950C7
S315F00212D020417373657274696F6E20222573222022
S315F00212E06661696C6564206174206C696E6520259F
S315F00212F06420696E2025730A000000006E6F20706C
S315F002130061636B65742071756575657320616C6CCC
S315F00213106F776564210000002DE9F05F804689460B
S315F002132092469B4600222A2103200B9F5EF08AFCFE
S315F0021330060004BF4FF0FF30BDE8F09F70892A28FF
S315F002134006D22A4B40F21B4229A136A055F014FBD5
S315F002135075680D9805F10E044FF009FEE08098F8D5
S315F00213602E00062807D0214B40F2234203F150010A
S315F00213702CA055F001FB0620401E10F0FF0004EBF6
S315F002138000011BF800200A723A5C8A741AF80010FF
S315F0021390295405EB000219F800109171ECD10A9864
S315F00213A00068C4F80E000C980068A06101204FF0A6
S315F00213B0DEFD20804FF400604FF0D9FD608040F2F0
S315F00213C004604FF0D4FDA08040F606004FF0CFFD4A
S315F00213D0A881D8F818203146404690470446304650
S315F00213E060F038FF2046BDE8F09F000060CFE9A02C
S315F00213F0636865636B2074686174206669727374DE
S315F002140020706275662063616E20686F6C6420736B
S315F00214107472756374206574686172705F68647261
S315F0021420000000004C57495020417373657274698D
S315F00214306F6E2022257322206661696C65642061D5
S315F002144074206C696E6520256420696E2025730A06
S315F002145000000000F0B585B002786D4603AEA2F149
S315F002146030030A2B66D200234FF00A0C302A07D13A
S315F002147010F8012F782A1CBF582A4FF0080C08D012
S315F0021480A2F13004092C09D803FB0C4310F8012F02
S315F0021490F6E74FF0100C10F8012FF1E7BCF1100F40
S315F00214A00FD02E2A20D0002A18BF202A23D00C2AA9
S315F00214B018BF0A2A1FD00D2A1CBF092A0B2A1AD0D6
S315F00214C038E0A2F16104052C84BFA2F14107052F91
S315F00214D0E7D8192C94BF61244124121B0A3242EA3E
S315F00214E0031310F8012FCBE7B54223D245F8043B9C
S315F00214F010F8012FB3E76846281A012202EBA00082
S315F0021500052823D2DFE800F01622030B1400B3F10C
S315F0021510807F3CBF009843EA00630BD216E0B3F536
S315F0021520803F07D20098019A000640EA02400CE09A
S315F0021530FF2B02D905B00020F0BD0098019A0006F3
S315F002154040EA0240029A40EA0220034319B11846E1
S315F002155061F041F9086005B00120F0BD2DE9F047D0
S315F0021560074688460025274E4DF05EF904001CBF5B
S315F00215702068002823D0306878B100F0BAFA3168D2
S315F002158088423ABFC9430144411A226853688342EA
S315F002159092BF5560581A506035602168486808B3A2
S315F00215A04A68414638463FF08CFD411C13D021680B
S315F00215B04A68824286BF101A48604D6008E00022EF
S315F00215C0414638463FF07DFD401C08BF356005D0E8
S315F00215D00020BDE8F08700F08CFA30604FF0FF3063
S315F00215E0BDE8F0874FF0FF30421CE0D1086820607A
S315F00215F0D1E902490D204EF083FD002C1CBF48466E
S315F0021600A047B1E74C3900A010B5024661F068FD7B
S315F00216100146BDE8104010465CF0AFBD10B502467B
S315F002162000F0B2FA0146BDE8104010465CF0A5BDE6
S315F002163008B5DDF808C0CDF800C05FF0D3FE08BDEE
S315F002164063F0D2BE63F0D0BE10B504281CBF0228E8
S315F002165055F0CEF94FF48040BDE8104055F037B959
S315F002166000F0D4BA00F0DBBA00F0DEBA00F00ABB42
S315F002167063F0BABE70B5174D040082B04FF0FF307A
S315F0021680A86002BF002002B070BD1348002690F891
S315F00216903800B8B1104848F073F80F4860F062FEAF
S315F00216A00D484AF09BF80220CDE9006000231A4665
S315F00216B01946E06A55F0DEF8084855F0C2F80648D1
S315F00216C000F0D1FA482104482E6055F087F902B0AD
S315F00216D0012070BDA00900A0F82E29A0402F29A054
S315F00216E02DE9F04182B08046089F15461E46042930
S315F00216F019D00FDA59B3012918BF022913D00024E1
S315F00217002246334621464046009754F0B9FF02B0CE
S315F0021710BDE8F08106291FD011291CBFA1F57F4033
S315F0021720B0F1FF00EBD140F6FF74104600F01EFB5D
S315F0021730024615F1810F18BF15F1050FE1D1306898
S315F002174000280CBF0120002001AE0190D9E7002449
S315F0021750104600F0E3FA03E00624104600F0FEFA23
S315F00217600246CEE710B50A4C0A4B4FF0000CA062C7
S315F00217700A4604F108001946C4F820C055F052F89A
S315F002178004F10800BDE81040034955F07DB80000A9
S315F0021790502C29A0ED1EDFA020A107002DE9F0476D
S315F00217A0CCB048A844A9CDE9001052481025489576
S315F00217B0806D002340222CA900F04BFA061EDCBFF6
S315F00217C04CB0BDE8F0870024A0460FF22C1A504622
S315F00217D055F0FFF88146A6EB09072CAE30194A46BA
S315F00217E0514655F00AF940B1641CBC42F6D9B8F13B
S315F00217F0000F04BF4CB0BDE8F08740204990414944
S315F002180001204A904A680020002AC8BF4FF47F435D
S315F00218100DDD00EB400C01EB4C1CDCF808C023EAB2
S315F00218200C0CBCF1000F1CBF401C8242F1DC02A979
S315F0021830FEF708FE03981A9009981B9002460AA929
S315F00218401CA855F0BCF8022100231122084649F0E3
S315F0021850ABFF0446401C04BF4CB0BDE8F087002045
S315F0021860429002213C9040901A9AADF800114192B2
S315F00218704390ADF802013E903F90ADF8F01049F278
S315F00218806510ADF8F20020483D904AAA1F4920465D
S315F002189000F0BAF9401C21D00420009049AB0A228C
S315F00218A0002120465FF09EFD401C17D0102240A971
S315F00218B0204600F0A3F9401C10D03CA8CDE9000563
S315F00218C0002348221AA9204600F042FB401C05D00C
S315F00218D020465FF085FD4CB0BDE8F08720465FF00C
S315F00218E07FFD5FF07BFD014609A055F045F84CB04F
S315F00218F0BDE8F087502C29A0444F544E45544D462E
S315F002190000000000080500A0EA66622D7E660480EB
S315F00219104D554C544943415354205245535020534C
S315F00219204F434B45545F4552524F523A2025640D70
S315F00219300A00000000F064B910B560B90F4B1878D0
S315F0021940022808D1586D10F1010C04D05B682BB156
S315F002195000F0E2F905E04FF0FF3010BD002356F03B
S315F002196093FD041E08DA5FF0EFFCA0F51C51333943
S315F00219700CBF00245FF0FAFC204610BD502C29A0C3
S315F002198000F061B900F063B970B51A4E040082B086
S315F00219904FF0FF30B06002BF002002B070BD1648B3
S315F00219A0002590F83800E0B1144854F0D6FF1248FA
S315F00219B047F0E6FE104860F0D5FC0F4849F00EFFFE
S315F00219C0E06A411C07D00221CDE9005100231A46F4
S315F00219D0194654F04FFF0A4854F033FF064800F018
S315F00219E049F948210448356054F0F8FF02B0012065
S315F00219F070BD00007C0900A0902A29A0E82A29A03F
S315F0021A00D82A29A010B5124C4FF0FF30A060114829
S315F0021A1090F83800A0B1104854F09FFF1C2054F003
S315F0021A20A8FD0E4854F00DFF0A4847F0A9FE0948F2
S315F0021A3060F098FC074849F0D1FE064800F05AF9E2
S315F0021A40002020604821034854F0C8FF012010BD51
S315F0021A508C0900A0982B29A0F02B29A0E02B29A015
S315F0021A602DE9F041DFF8488007460026D8F8004015
S315F0021A70DCB1D4E90050B84218BF264613D1D8F8E3
S315F0021A800000844208BFC8F80050002E18BF356027
S315F0021A90FB6B23B1002204F1080138469847214630
S315F0021AA00C204EF02DFB2C00E3D10020BDE8F08196
S315F0021AB0AC0B00A010B50446D0F8C00078B1206B8C
S315F0021AC010F0010F0BD1204663F076F910F4405F67
S315F0021AD005D1204663F070F910F4804F01D0002052
S315F0021AE010BDD4F8C010D4F8E40063F0C9F90120AF
S315F0021AF010BD10B554F0E6FEBDE8104042F2107289
S315F0021B00002354F070BF000010B506A154F04DFF4B
S315F0021B10002818BF10BD4FF0FF30BDE810404CF062
S315F0021B20E7BE000074637069705F74687265616421
S315F0021B300000000010B584B0009000690290002801
S315F0021B4004BF04B010BD4FF4697301910C4A0C2125
S315F0021B50092063F099F9029802996A46046A00200C
S315F0021B6008620849029800F0E4FD029840F2AA33AE
S315F0021B70034A04620C210A2063F086F904B010BD10
S315F0021B805856EBA07524DFA000487047EC65EBA031
S315F0021B90002808BF70472DE9F04186680546002403
S315F0021BA0304663F0A5FB00280FDD2146304663F090
S315F0021BB093FB074600F0A1FB384600F08FFB641C4E
S315F0021BC0304663F095FBA042EFDC304663F0D0F985
S315F0021BD00949686863F01EFC05F13C0229460420B7
S315F0021BE05FF0BCFAE868002818BF56F05AF92846A2
S315F0021BF0BDE8F04163F0F8BB9524DFA000F01EB912
S315F0021C0000F05BBC0120704700F031B94268002158
S315F0021C1091604068416941F00D0141617047406849
S315F0021C208168491C8160704710B54168044688682E
S315F0021C30421E8A6004BF60685FF0ECFE2046BDE893
S315F0021C40104063F0D1BB00F03DBC00F03DBC00F0AB
S315F0021C503DBC10B582B0DDE9044CCDE9004C00F094
S315F0021C604EFC02B010BD10B500F006FCBDE8104007
S315F0021C7000F0FABBCA231B22014805215FF043B8E4
S315F0021C801CB400A0002808BF70470649C96800299D
S315F0021C9003DB02688A4218BF70470168806800F069
S315F0021CA0F1BA0000286000A070B50546806820B140
S315F0021CB0046863F099FB2000FAD12846BDE870402B
S315F0021CC063F092BB002808BF704770B50025056027
S315F0021CD00561456185600446C560681EA061E069DC
S315F0021CE0002808BF70BD024963F094FBE56170BD40
S315F0021CF0151AE5A00549002008600549086005485F
S315F0021D00016821F080410160704700000001E0FFA8
S315F0021D10E40FE0FFC4C00F4000F028BB01460020EC
S315F0021D20142919D2DFE801F0180B0B0C0A1818184F
S315F0021D30180E101214160B0B0B0B0B0B022070471E
S315F0021D40012070470620704705207047072070472C
S315F0021D50032070470420704708467047012808BFE1
S315F0021D60704708280CBF02207047704701460020D2
S315F0021D70B1F5807F04BF4FF48070704726DC0829E6
S315F0021D8004BF0820704712DC012904BF0120704706
S315F0021D9006DC11F1810F3ED011F1050F39D13FE08A
S315F0021DA0022904BF02207047042932D138E01029F3
S315F0021DB004BF10207047202904BF20207047402915
S315F0021DC004BF40207047802925D022E041F2060365
S315F0021DD0CA1A994204BF41F20600704709DC6FF451
S315F0021DE080500844052814D2DFE800F01F1C222593
S315F0021DF01700012A04BF41F207007047022A04BF06
S315F0021E0041F208007047A2F5C042053A14BF052A0E
S315F0021E107047084670478020704741F205007047C8
S315F0021E200420704741F20200704741F20100704708
S315F0021E3041F20300704741F20400704730B585B0B5
S315F0021E40102405468DF8004008888DF80100488870
S315F0021E50ADF8020048680190083102A85FF0DBF99C
S315F0021E6022466946284654F0C5FB05B030BD54F00B
S315F0021E70E4BB000070B5054682B01646401C2ED073
S315F0021E80194C206E3028A4BF02B070BD00216846FE
S315F0021E9054F03BFD216E01EB410004EB8000002182
S315F0021EA04566206E00EB400004EB80008166206EF2
S315F0021EB000EB400004EB8000C16646B1206E00EBF9
S315F0021EC0400004EB8000816E41F002018166206ED3
S315F0021ED0401C2066684654F013FD02B070BD54F003
S315F0021EE087FD02B070BD0000502C29A010B5164C2B
S315F0021EF0ADF5826DA16A8847A06D411C04BF0DF550
S315F0021F00826D10BD00210290012001900DF58160D5
S315F0021F10CDF80814CDF80C140B460A46009001A928
S315F0021F2001205FF009FA01281CBF0DF5826D10BD84
S315F0021F30064854F017FD002804BF044854F0DBFCB1
S315F0021F400DF5826D10BD0000502C29A0A0B500A0A1
S315F0021F5010B582B0DDE9044CCDE9004C00F0FBF996
S315F0021F6002B010BD0E4810B50468002C08BF10BDB3
S315F0021F70A06A88B1418C4A1E4284012909D0A06A1E
S315F0021F80018C4A1E0284012904BF204600F0F9FAA8
S315F0021F9002E0204600F0FEFA2468002CE8D110BDDB
S315F0021FA0740900A070B50B480468002C14BF002514
S315F0021FB070BDA06A48B1C18B012984BF491EC18395
S315F0021FC003D1C583204600F0EEFA2468002CF0D146
S315F0021FD070BD0000740900A003484068002808BFDD
S315F0021FE0704700F01DBB00001C0B00A02DE9F0416C
S315F0021FF00024124FA04604EB840607EB8605E87B25
S315F0022000401CC0B2E873A97B022902D0012903D091
S315F00220100DE0F02802D20AE0022808D357F826008B
S315F002202018B100F007FB47F8268085F80E80601C91
S315F0022030C4B20A2CDFD3BDE8F0810000405A24A0D6
S315F00220402DE9F35F4FF00A094FF00001DFF870C196
S315F00220500400CA464A460E460F46CB46884613D079
S315F00220605848007800EB80030CEB83039D7B022D2E
S315F00220700AD125685B689D4208BF40B204D102B01E
S315F0022080BDE8F09F0A2A0AD1DFF834E101EB8100BC
S315F00220900EEB8000807B002808BF4AB236D001EBF7
S315F00220A081030EEB830090F80EC0BCF1010F03D052
S315F00220B0BCF1020F17D029E024B1D4F800C045686C
S315F00220C0AC4516D05EF8233033B1C37B434524BF0B
S315F00220D04FFA81FB984619E0C57BB54224BF4FFA09
S315F00220E081F92E4612E054B12368D0F804C0634554
S315F00220F005D13448017002B048B2BDE8F09F90F8BD
S315F00221000FC0BC4524BF4FFA81FA6746481CC1B2DC
S315F00221100A29B7D30A2A03D1019810F0010F4AD03F
S315F0022120019810F0020F46D100260A2AB8BFD5B29E
S315F002213027DBBAF10A0F0FDA0AF0FF05204805EBA2
S315F0022140850150F82100E0B11F4B40F261121FA148
S315F002215024A054F011FC14E0B9F10A0FB8BF09F04B
S315F0022160FF050EDBBBF10A0F25DA0BF0FF05DFF8F0
S315F0022170508005EB850758F8270000F05BFA48F81F
S315F002218027600A2D06D3104B40F2771221A115A033
S315F002219054F0F2FB0A4805EB850100EB8100002CB6
S315F00221A086731CBF21684160C6730648057002B08B
S315F00221B068B2BDE8F09F02B04FF0FF30BDE8F09F85
S315F00221C0405A24A0410B00A060CFE9A06172705F73
S315F00221D07461626C655B695D2E71203D3D204E55E2
S315F00221E04C4C00004C574950204173736572746928
S315F00221F06F6E2022257322206661696C6564206108
S315F002220074206C696E6520256420696E2025730A38
S315F00222100000000069203C204152505F5441424C7C
S315F0022220455F53495A450000094810B50468002C29
S315F002223008BF10BDE08938B1401E0004000CE081F1
S315F002224004BF204600F06EFA2468002CF2D110BDCD
S315F0022250AC0B00A070B50A4800254468002C08BFF4
S315F002226070BDE07F20B1401EE0772546246804E089
S315F002227020462468294603F003FD002CF1D170BDF7
S315F00222806C3900A030B5144D024685B02868002896
S315F002229004BF05B030BD21F40041009102926946B7
S315F00222A05EF03CFE040004BF05B030BDA86860B124
S315F00222B063F01EF82168884207DDA86863F00CF81F
S315F00222C08368D4E9020221689847204663F08CF8C5
S315F00222D005B0012030BD0000286000A010B5040052
S315F00222E008BF10BDA16800291EBF8968002988476A
S315F00222F02046BDE8104063F077B88168002904BF34
S315F0022300002070470969002904BF01207047084779
S315F0022310002808BF70472DE9F05F0746C068DDF870
S315F002232028B0884691469A46451E48BFBDE8F09FBA
S315F0022330386850F8254054B166682068B8F1000F45
S315F002234002D05946D04700E0C8473400F4D16D1E9A
S315F0022350EED5BDE8F09F10B582B0DDE9044CCDE9CB
S315F0022360004C00F047FB02B010BD0000F0B583B0A0
S315F00223700F46054616461C4C0021684654F0C5FA2F
S315F0022380206E401E11D400EB400104EB8101496E30
S315F0022390A94208D100EB400004EB8000C46E684607
S315F00223A054F0AEFA05E0401EEDD5684654F0A8FAB0
S315F00223B00024002C11BF14F101004FF0FF3003B0DE
S315F00223C0F0BD40F2B450864288BF40F2B45632466F
S315F00223D03946204600F0B8F90546014620465CF03B
S315F00223E098FF03B02846F0BD502C29A02DE9F04104
S315F00223F004460D0017464FF000061CBF686C002815
S315F00224002CD037B140F29B23164A0C21092062F0F8
S315F00224103BFD2946206962F0D1FC8046A84209D1EB
S315F00224200126294620695EF079FD80462946204636
S315F00224305BF064FE37B140F2A3230A4A0C210A206C
S315F002244062F022FD56B10120C8F89400E26A12B198
S315F0022450414620469047404662F020FE3046BDE8AF
S315F0022460F08100005856EBA0014800F0CAB900000E
S315F0022470185B24A000F094B910B50024044800F0CB
S315F0022480B0F9002818BF4FF0FF34204610BD000007
S315F0022490185B24A010B504460068012805D002286E
S315F00224A004BF606855F07BFB02E0606862F096FB61
S315F00224B02046BDE8104062F097BF022B08BF012309
S315F00224C054F0C5B854F0BEB854F0E4B830B585B09F
S315F00224D0102405468DF8004008888DF801004888DA
S315F00224E0ADF8020048680190083102A85EF093FE4A
S315F00224F022466946284654F087F805B030BD2DE9E4
S315F0022500FF4F87B08146DDE914458A46934600209F
S315F00225104FF0100804F1080604AF84B18DF8088074
S315F002252020888DF809006088ADF80A00606803908B
S315F0022530314638465EF06FFE02A8C5F80080CDE956
S315F002254000055A46514648460A9B54F085F881469C
S315F0022550002C18BF19F101000DD0BDF80A006080F9
S315F0022560039860609DF809002080394630465EF097
S315F002257052FEC5F800800BB04846BDE8F08F00F079
S315F00225800DB9816A897C01291EBF0A29052970477E
S315F00225905EF0FABD816A897C01291EBF0A290529E6
S315F00225A0704700F055BA10B5826A0446917C0C2940
S315F00225B018BF062910D0012912D0052918D00429EE
S315F00225C01AD0032918BF10BDD07C0228204623D288
S315F00225D0BDE8104000F084BABDE810405FF044BC9C
S315F00225E0D07C052810D82046BDE8104000F028BB64
S315F00225F0BDE810405EF0C8BDD07C082804D820465D
S315F0022600BDE8104000F024BA204600F0BFFA20469A
S315F0022610BDE810405FF028BCBDE810405FF024BC76
S315F002262010B50024204600F089FB601CC4B2042CCD
S315F0022630F8D310BD70B5040005D1124B7F2212A15A
S315F002264014A054F099F9606828B90E4B80221DA1A6
S315F002265010A054F091F9002C08BF70BD2546D5E9BB
S315F0022660004028B9074B84221AA10AA054F084F933
S315F002267068685FF0EFFD29460B204DF041FD002C16
S315F0022680ECD170BD60CFE9A07120213D204E554CB2
S315F00226904C0000004C5749502041737365727469BF
S315F00226A06F6E2022257322206661696C6564206153
S315F00226B074206C696E6520256420696E2025730A84
S315F00226C000000000712D3E7020213D204E554C4CED
S315F00226D000000000722D3E7020213D204E554C4CDC
S315F00226E00000000070B506460C460D4D4BF016FC88
S315F00226F0002818BF70BD0C204DF074FC002808BFEE
S315F002270070BD4660002C0CBF00212168816000215B
S315F0022710C18141730173017429680160286070BD3B
S315F0022720AC0B00A0417B012918BF7047162148F077
S315F002273017BF08B50B46009200220121FFF7E8FD0C
S315F002274008BD80680840704708B5036A8BB1036B11
S315F002275013F0010F1AD00121816140F2DE300090B0
S315F00227600D4BCF22D021142062F0C8FD4FF0FF307E
S315F002277008BD40F2D7300090074B4FF48A72D02151
S315F0022780142062F0BBFD4FF0FF3008BD83681B6A70
S315F002279001B05DF804EB1847003AEBA000F05EBE1C
S315F00227A070B5054648680C4628B1D5E92A21114488
S315F00227B08842D8BF70BD2946A0685EF0AFFB2946B5
S315F00227C020685BF09BFC0120C5F894002068C26A81
S315F00227D0002A1CBF294690472846BDE8704062F0A1
S315F00227E05DBC00B585B00021009101910291039183
S315F00227F00821ADF81010122269465EF061FA05B0B2
S315F002280000BD00B597B000210091019102910391AC
S315F002281041F24401ADF8001045F25551ADF80610FB
S315F0022820542269465DF090FE17B000BD2DE9F043E3
S315F002283083B00546002607462A4C3146684654F0D0
S315F002284064F8206E411E12D401EB410004EB8000C5
S315F0022850406EB84209D101EB410004EB8000D0F89A
S315F00228606C80684654F04CF806E0491EECD5684692
S315F002287054F046F84FF00008B8F1000F11BF18F106
S315F002288001004FF0FF3003B0BDE8F083154C4FF076
S315F002289000092F464946684654F037F8206E411E25
S315F00228A00FD401EB410004EB8000406EB84206D132
S315F00228B001EB410004EB8000C0F86C9001E0491E88
S315F00228C0EFD5684654F01CF8284648F013FF404608
S315F00228D000F0AEFC28465EF083FD03B03046BDE85C
S315F00228E0F0830000502C29A00748007800281CBF6E
S315F00228F042F6FB20704710B554F05CF80068BDE86C
S315F0022900104000F01BBD00009C0900A02DE9F04725
S315F002291088B00D00109F16461C4614BF0DF1040A2E
S315F00229204FF0000A002E14BF0DF10C084FF000080C
S315F0022930002C14BF0DF114094FF0000900202B49A9
S315F00229404B68002BC8BF4FF47F420DDD00EB400C05
S315F002295001EB4C1CDCF808C022EA0C0CBCF1000FAF
S315F00229601CBF401C8342F1DC002C1CBF21680029ED
S315F002297008D01F4951F820005EF01EFD10B14BF051
S315F0022980C5FB18B3514628463EF075FB4146304624
S315F00229903EF071FB494620463EF06DFB4B46424601
S315F00229A051462820009753F05CFE074651462846CA
S315F00229B03EF05AFB414630463EF056FB494620462B
S315F00229C03EF052FB08B03846BDE8F0870020002DF5
S315F00229D018BF2860002E18BF306053F0EBFF642159
S315F00229E00160206808B0BDE8F0870000080500A085
S315F00229F0402C29A02DE9F04186B00E460C99102400
S315F0022A008DF80840B1F800C005468DF809C048882F
S315F0022A10ADF80A004868039017469846083104A8AC
S315F0022A205EF0F9FB02A8CDE9000443463A46314688
S315F0022A30284653F020FE06B0BDE8F08110B50446F4
S315F0022A4048F058FE2046BDE8104000F019BC0000E0
S315F0022A50F8B5846A0546042120465FF0F4F8284664
S315F0022A6046F03CFD060024D101223521204646F0EF
S315F0022A70B3FF0321204646F0E9FF02223921204620
S315F0022A8046F0AAFFA98D204646F040FE204646F0C3
S315F0022A9081FCA08BF03081B260694CF055FB009559
S315F0022AA043230E4A616960684AF070FC284646F094
S315F0022AB0D3FBE07C401CC0B2E0740A283ABF4FF464
S315F0022AC07A71484342F2107080B200F2F3104FF47A
S315F0022AD0FA71B0FBF1F0E0833046F8BD0854EBA092
S315F0022AE0F8B5846A0546032120465FF0ACF828461D
S315F0022AF046F0F4FC060031D101223521204646F09B
S315F0022B006BFF0321204646F0A1FF0222392120461F
S315F0022B1046F062FF4FF41071204646F0F7FD0422AC
S315F0022B203221204646F058FFA06A5FF090FB01463C
S315F0022B30204645F00FFF204646F02CFCA08BF030E5
S315F0022B4081B260694CF000FB009543230E4A61693D
S315F0022B5060684AF01BFC284646F07EFBE07C401C8F
S315F0022B60C0B2E0740A283ABF4FF47A71484342F28F
S315F0022B70107080B200F2F3104FF4FA71B0FBF1F07C
S315F0022B80E0833046F8BD00000854EBA0F8B5846A3D
S315F0022B9005460D2120465FF056F800206062E0629D
S315F0022BA0A06260632063E064A0646064A063284668
S315F0022BB046F094FC06001CD101223521204646F04F
S315F0022BC00BFF0721204646F041FF204646F0E2FB86
S315F0022BD0A08BF03081B260694CF0B6FA00954323CF
S315F0022BE004F12402616960684AF0D0FB284646F097
S315F0022BF033FBE07C401CC0B2E0740A283ABF4FF4C3
S315F0022C007A71484342F2107080B200F2F3104FF438
S315F0022C10FA71B0FBF1F0E08328465FF0A3FB0749B7
S315F0022C2028465FF0ABFA054928465FF0A2FA034957
S315F0022C3028465FF0D7FA3046F8BD00000454EBA000
S315F0022C40F8B50546846A90F835000121C609204692
S315F0022C505EF0F9FF284646F041FC070055D1012205
S315F0022C603521204646F0B8FE0321204646F0EEFE18
S315F0022C7002223921204646F0AFFEA98D204646F0C3
S315F0022C8045FD04223221204646F0A6FEA06A5FF0F8
S315F0022C90DEFA0146204645F05DFE04223621204644
S315F0022CA046F09AFE606A5FF0D2FA0146204645F097
S315F0022CB051FE002E14BF042203223721204646F08D
S315F0022CC08BFE0121204646F0C1FE0321204646F046
S315F0022CD0BDFE1C21204646F0B9FE1EB10621204655
S315F0022CE046F0B4FE204646F055FBA08BF03081B29A
S315F0022CF060694CF029FA009543230F4A61696068CE
S315F0022D004AF044FB284646F0A7FAE07C401CC0B2E3
S315F0022D10E07406283ABF012101FA00F03C204FF494
S315F0022D207A71484380B200F2F3104910B0FBF1F029
S315F0022D30E0833846F8BD00000854EBA070B50546AE
S315F0022D40C0EBC500374900EB800001EBC004042D4F
S315F0022D5006D3354B40F28E2234A13BA053F00CFE43
S315F0022D602078002808BF70BD0122002601280CD069
S315F0022D7002281CD0032850D0BDE870402A4B40F2FE
S315F0022D80DE223DA130A053F0F7BD0220207066701E
S315F0022D90A270E6702A4604F10C01304600F060FBA0
S315F0022DA00028A8BF70BDD4F8103103B319E0A0789B
S315F0022DB0401E10F0FF00A07018BF70BDE078401CF6
S315F0022DC0C0B2E070042813D0A07060782A4604F1ED
S315F0022DD00C0100F045FB0028A8BF70BDD4F81031F5
S315F0022DE02BB1002104F10C00D4F81421984710E01D
S315F0022DF06078411C022908D2274B03EB8000406819
S315F0022E0018B16170A270E67070BDD4F81031002B63
S315F0022E10E7D12670C4F8106170BDA068401EA060AC
S315F0022E20F7D070BDC45314A070CEE9A0617272617E
S315F0022E307920696E646578206F7574206F662062FA
S315F0022E406F756E64730000004C57495020417373DE
S315F0022E50657274696F6E2022257322206661696C31
S315F0022E606564206174206C696E6520256420696E44
S315F0022E702025730A00000000756E6B6E6F776E2068
S315F0022E80646E735F7461626C6520656E747279202C
S315F0022E9073746174653A0000240B00A02DE9F041C9
S315F0022EA006460F466FF008054FF070405FF0CFF917
S315F0022EB0396800EA010468075FF0C9F9844209D06B
S315F0022EC02A4B4FF4EB722AA137A053F055FD284650
S315F0022ED0BDE8F08140493868096888420AD1234B37
S315F0022EE040F2D7123DA130A053F046FD6FF0080034
S315F0022EF0BDE8F08146480468002C18BF4FF001087F
S315F0022F002CD094F8350010F0400F24D0002E1FBFBD
S315F0022F1030680028616881421DD139462046FFF7A4
S315F0022F20E1FB05001DD0687B88B9287C28B9E36BE4
S315F0022F301BB101223946204698471621284648F009
S315F0022F400FFB0521284602F00DFD85F80D80287C41
S315F0022F50401C287400252468002CD2D12846BDE8EE
S315F0022F60F0814FF0FF30BDE8F0810000B4D1E9A066
S315F0022F7069676D705F6A6F696E67726F75703A2016
S315F0022F80617474656D707420746F206A6F696E2057
S315F0022F906E6F6E2D6D756C74696361737420616406
S315F0022FA064726573730000004C5749502041737385
S315F0022FB0657274696F6E2022257322206661696CD0
S315F0022FC06564206174206C696E6520256420696EE3
S315F0022FD02025730A00000000B00B00A069676D702F
S315F0022FE05F6A6F696E67726F75703A2061747465A5
S315F0022FF06D707420746F206A6F696E20616C6C73E9
S315F0023000797374656D73206164647265737300001D
S315F0023010740900A02DE9F04106460F466FF0080844
S315F00230204FF070405FF013F9396800EA01044FF08F
S315F002303060405FF00CF9844209D0264B4FF40772D8
S315F002304025A133A053F098FC4046BDE8F0813C49F7
S315F00230503868096888420AD11E4B40F21D2239A10E
S315F00230602BA053F089FC6FF00800BDE8F0814348CD
S315F00230700468002C2BD094F8350010F0400F23D0C2
S315F0023080002E1FBF30680028616881421CD1394684
S315F002309020464AF043FF050016D0287C012884BF5B
S315F00230A0401E28740ED8287B18B11721284648F0FE
S315F00230B057FAE36B1BB10022394620469847284659
S315F00230C000F0EAFA4FF000082468002CD3D140460B
S315F00230D0BDE8F081B4D1E9A069676D705F6C656196
S315F00230E0766567726F75703A20617474656D707487
S315F00230F020746F206C65617665206E6F6E2D6D752E
S315F00231006C746963617374206164647265737300CD
S315F00231104C57495020417373657274696F6E202261
S315F0023120257322206661696C6564206174206C697E
S315F00231306E6520256420696E2025730A0000000062
S315F0023140B00B00A069676D705F6C6561766567723A
S315F00231506F75703A20617474656D707420746F20A7
S315F00231606C6561766520616C6C73797374656D73E9
S315F0023170206164647265737300000000740900A034
S315F0023180002808BF704738B505464FF4DD70009049
S315F0023190174B0F224FF0FF3105F1580061F0ECFFAB
S315F00231A00028C8BF38BD286800281CBF114962F044
S315F00231B031F9002405EBC400C068002818BF61F09D
S315F00231C00DFD641C082CF5DBE86C002818BF61F0D5
S315F00231D091FD286D002818BF61F00AFD686D002880
S315F00231E018BF61F057FD2846BDE8384062F0FCB8DA
S315F00231F0543AEBA0DD4BE5A08069704770B5094CF7
S315F00232000546226B002A1CBF002190472846616AB8
S315F00232108847226B002A08BF70BD0121BDE87040C5
S315F002322000201047583800A0C06870470069704700
S315F002323008B50146006A40B129B1084661F0BCFD05
S315F002324010F4405F0ED0012008BD40F2EE3000903F
S315F0023250084B4FF48A72E021142062F04FF84FF0D7
S315F0023260FF3008BD8868426A01B008465DF804EB93
S315F002327010470000003AEBA0004870471C60EBA034
S315F002328000F044BA70B50446C068002500281CBF99
S315F0023290016D002902D02046884765612069002821
S315F00232A008BF70BD5EF066FE256170BD70B504465E
S315F00232B00022D4E9050101446FF0030000EB81011D
S315F00232C0206845584250606900281CBF401E606164
S315F00232D016D0E068401EE060206B401C2063226836
S315F00232E0616952F82100002804BF42F8215070BDEE
S315F00232F0416819B1084649680029FBD1456070BD9D
S315F0023300A0694FF4BC7381000B4A206860F004F8A0
S315F002331001000CD0606B401C60632069400820619C
S315F0023320A0694008A061401E21606061D1E7E06DAE
S315F0023330401CE06570BD000060B3EBA0612804BFDD
S315F002334042F23F70704733DC3D2804BF42F6FC2060
S315F0023350704720DC0D2804BF42F21D7070470EDC68
S315F0023360042804BF42F214707047052804BF42F2E3
S315F00233702670704706285CD00B282AD070470E2894
S315F002338004BF42F21E707047102822D0182808BFD8
S315F002339042F228707047A0F15801092928BF7047F8
S315F00233A0DFE801F01D202326292C2F053200F1E754
S315F00233B0A0F16201122928BF7047DFE801F0282B3D
S315F00233C02E313134373A3D3D40094346494C0D0AD8
S315F00233D0E0E742F23370704742F23570704742F2DC
S315F00233E03670704742F23770704742F23870704763
S315F00233F042F23970704742F23A70704742F23B70CD
S315F0023400704742F23C70704742F23E7070474FF49A
S315F00234101D50704742F24170704742F24270704757
S315F002342042F24370704742F24570704742F246707C
S315F0023430704742F24770704742F24870704742F264
S315F00234404A70704742F24C70704742F24D707047C4
S315F002345042F25070704742F25170704753F006B91B
S315F00234602DE9F047044689461646022806D3394B1B
S315F002347040F24A2238A13EA053F07EFA484800EBC9
S315F00234808408D8F8000030B9324B40F24B2245A1FD
S315F002349037A053F071FA00224FF4887110465CF0AF
S315F00234A0D1FB050008BF4FF0FF3450D0286830B189
S315F00234B0284B40F2512244A12DA053F05DFA6C68DC
S315F00234C00027304627606760A7604DF050FD2080E8
S315F00234D00120A0704DF04BFDA0800C34A9F1010043
S315F00234E0401C2346641C002104E0491C04F8012B0D
S315F00234F0C9B2401C02782E2A18BF002AF5D11970DB
S315F002350001780029ECD104F8017B01204DF02FFD62
S315F002351060F30F0601204DF02AFD60F31F46266088
S315F00235206868201A001D81B228464BF00DFE2D4C1C
S315F00235303522414660685EF03DFB35234246294618
S315F0023540606849F042F8044628465EF083FE20465B
S315F0023550BDE8F08770CEE9A0646E7320736572766B
S315F00235606572206F7574206F6620617272617900E0
S315F00235704C57495020417373657274696F6E2022FD
S315F0023580257322206661696C6564206174206C691A
S315F00235906E6520256420696E2025730A00000000FE
S315F00235A0240B00A0646E73207365727665722068D0
S315F00235B06173206E6F204950206164647265737383
S315F00235C0207365740000000070627566206D757375
S315F00235D07420626520696E206F6E6520706965637E
S315F00235E0650000001C0B00A0F8B50446C06D01266C
S315F00235F0401E0D46E06517D1E06BA8B12DB16123EF
S315F0023600124A1E210A2061F03FFCE16B20468847F0
S315F002361006462DB164230D4A1E21092061F034FCC1
S315F0023620002E04BF0020F8BD0021204600F0A6F8C7
S315F002363000281CBF3046F8BD72200090034B6A2268
S315F0023640BF21262061F05AFE0020F8BDB84AEBA051
S315F00236502DE9F04387B00646DDE90E450F46904662
S315F0023660994649F204404DF082FCADF814004FF051
S315F0023670000CADF816C0042005A90295CDE9031099
S315F0023680CDE900C44B4642463946304600F032FD9B
S315F002369007B0BDE8F08300000D4910B50A680024B2
S315F00236A0824204BF02680A600BD042B113688342B9
S315F00236B003D10168116022B901E01A00F6D16FF068
S315F00236C0090401460C204CF01BFD204610BD0000FB
S315F00236D0AC0B00A02DE9F041054614205EF0C2FACB
S315F00236E00446AF0038465EF0BDFA0646394653F058
S315F00236F075F900212160C4E90115C4E903162046D3
S315F0023700BDE8F08100487047985CEBA052F077BFB5
S315F002371008B51378012B18BF062B10D1126972B1B6
S315F0023720536813F0010F0AD000689368184441B148
S315F002373077230093D268054B61F01EFD08BD002089
S315F002374008BD01210160084608BD00002486ECA0F0
S315F002375010B55DF0E1FD040008BF10BD2068002839
S315F002376018BF61F041FE0020206060600120A06079
S315F002377010BD0068496840587047000038B504002B
S315F00237800BD0A1B174200090174B1E224FF0FF31DF
S315F002379004F1580061F0F0FC0CE06F200090124B3F
S315F00237A043226C21262061F0A9FD002038BDA06DD0
S315F00237B0401EA0650028C4BF012038BD204600F097
S315F00237C009F9204600F0E0F8616B00291CBF20469B
S315F00237D0884704F16002214609205DF0BFFC2046CD
S315F00237E061F002FE012038BD60A0EBA0002918BFEF
S315F00237F0096801600020704703B583B003AA0192FD
S315F00238004FF000020800ADF8002003D06A460A49DC
S315F00238103DF020FA03983DF0EFF9BDF800000028DC
S315F00238201EBF002005B000BD694603483DF08AF987
S315F002383005B0012000BD00002D3ADFA04FF4804014
S315F002384053F045B870B50546007C0C4648B1354B89
S315F00238504FF48C7234A13EA053F08EF86FF00C0048
S315F002386070BD12B900F066FA02464548016881B1A8
S315F0023870088B90420AD100291CBF086800283CD068
S315F0023880002C1EBF2368002B984236D0C968002947
S315F0023890EED1DFF8F0C0DCF8141081B1088B90425B
S315F00238A00AD100291CBF0B68002B26D0002C1EBFA4
S315F00238B020680028834220D0C9680029EED1DCF8BE
S315F00238C00C1081B1088B90420AD100291CBF0B68FB
S315F00238D0002B12D0002C1EBF2068002883420CD089
S315F00238E0C9680029EED1DCF8181061B1088B904254
S315F00238F006D108682368984202D16FF00A0070BDBB
S315F0023900C9680029F2D1002C1EBF20680028286061
S315F00239102A83DCF80C00E860CCF80C5052F02DFF4C
S315F0023920002070BD24D1E9A07463705F62696E6491
S315F00239303A2063616E206F6E6C792062696E642044
S315F0023940696E20737461746520434C4F534544008D
S315F00239504C57495020417373657274696F6E202219
S315F0023960257322206661696C6564206174206C6936
S315F00239706E6520256420696E2025730A000000001A
S315F0023980700B00A0600B00A0D0F830C0BCF1000FA5
S315F002399008BF704770B582B00023054601AA1946E2
S315F00239A0E047061E4FF00004DCBF02B070BD01987E
S315F00239B0D5F830C0002250F8243069462846E04750
S315F00239C000281CBF009800F064F9641CB442EEDBD8
S315F00239D002B070BDD0F82CC0BCF1000F08BF704722
S315F00239E070B582B00023054601AA1946E047061EC5
S315F00239F04FF00004DCBF02B070BD0198D5F82CC0C0
S315F0023A00002250F8243069462846E04700281CBFB9
S315F0023A10009800F057F9641CB442EEDB02B070BDB8
S315F0023A20002918BF09684160002070470121018012
S315F0023A304068006848F05DBCF0B50446007C83B08F
S315F0023A400E461F4650B1314B4FF4027230A13DA0E3
S315F0023A5052F092FF03B06FF00C00F0BD002E02BFE1
S315F0023A606FF0080003B0F0BD306860602284208BEE
S315F0023A7010B900F05FF9208303F024F8002565629F
S315F0023A80A065401EE064A0664FF400402085608584
S315F0023A90E562A4F85C004FF406702087314649F0DF
S315F0023AA06FFD2087012600EB8000A4F852604000EB
S315F0023AB0A4F8540002202F492074C4F89470C86800
S315F0023AC0A04213BFC861C068C860002809D0C068A8
S315F0023AD0A04203D1CA69E068D06002E0C86100285A
S315F0023AE0F5D14869E0604C6152F047FECDE90056E7
S315F0023AF0002202231146204649F0D0FD050004BFFC
S315F0023B0020464AF043FC284603B0F0BD24D1E9A092
S315F0023B107463705F636F6E6E6563743A2063616E91
S315F0023B20206F6E6C7920636F6E6E656374656420C8
S315F0023B3066726F6D20737461746520434C4F534502
S315F0023B40440000004C574950204173736572746902
S315F0023B506F6E2022257322206661696C656420618E
S315F0023B6074206C696E6520256420696E2025730ABF
S315F0023B7000000000600B00A02DE9F0410446007C35
S315F0023B800E4648B1264B40F2731226A12EA052F0F1
S315F0023B90F3FE0020BDE8F08103204CF023FA050085
S315F0023BA008BFBDE8F08160696861208B2883012037
S315F0023BB028742089002C40F002002881E07AE8720D
S315F0023BC0A07AA8720CBF002020682B492860C8682A
S315F0023BD0A04208BFC06806D0C86148B1C068A0421A
S315F0023BE003D1E068C969C86002E0C8610028F5D16E
S315F0023BF0002721460220E7604CF082FA1F48E8616E
S315F0023C0085F82170002E08BF012685F820601C4831
S315F0023C100168E960056052F0B0FD2846BDE8F08122
S315F0023C2024D1E9A07463705F6C697374656E3A208F
S315F0023C3070636220616C726561647920636F6E6E87
S315F0023C4065637465640000004C57495020417373F4
S315F0023C50657274696F6E2022257322206661696C23
S315F0023C606564206174206C696E6520256420696E36
S315F0023C702025730A00000000600B00A0273DDFA09C
S315F0023C80700B00A00022C0E900217047016041607C
S315F0023C907047002808BF704710B50446806810F0D8
S315F0023CA0020F08BF10BDE068002818BF61F09CFB48
S315F0023CB02069002818BF61F097FB2046BDE8104046
S315F0023CC061F092BB002808BF7047416811F0010FFE
S315F0023CD008BF704761F088BB08B5034B0093042315
S315F0023CE057F06AFB08BD0000993EDFA010B5044606
S315F0023CF000204CF077F9002808BF10BD00210160C2
S315F0023D00416081600161416181610474FF21C17288
S315F0023D1002490A68C260086010BD0000483900A076
S315F0023D20C0E9051270476FF004007047402002F0B8
S315F0023D3037B80000F0B4194E4FF4805706F1100070
S315F0023D40D6E905C405687088401C80B27080B0F56B
S315F0023D50004F28BF77805FEA0C0018BF718805D044
S315F0023D60028B8A42EFD0C0680028F9D1210018BF31
S315F0023D70738805D0088B9842E5D0C9680029F9D135
S315F0023D802A0018BF718805D0108B8842DBD0D26822
S315F0023D90002AF9D17088F0BC70470000600B00A0D1
S315F0023DA070B5050018BFC543204E306A002808BF1B
S315F0023DB070BD40F231131E4A1D21092061F064F8EC
S315F0023DC0706818B161F094FAA84208DCBDE8704058
S315F0023DD01D2140F23513164A0A2061F055B82946DC
S315F0023DE0706861F079FA04000BD02068401E2060FA
S315F0023DF00028C8BF002404DC00222946706856F069
S315F0023E0080FD40F24B130A4A1D210A2061F03CF86C
S315F0023E10002C08BF70BD40F24F12336A0449606845
S315F0023E2098472046BDE8704061F0DEBA345C00A0E7
S315F0023E30AC57EBA070B505004FF0000418BFC543B0
S315F0023E404FF4AD73104A1D21092061F01DF80F4E93
S315F0023E50706860B161F04CFAA84208DD29467068D4
S315F0023E6061F03AFA040002D02068401C206040F269
S315F0023E706113054A1D210A2061F006F8002C14BFD1
S315F0023E806068002070BD0000AC57EBA0345C00A067
S315F0023E900168491C0160704700F01AB970B549F023
S315F0023EA081FB0C4D01212C78297049F087FB002CFF
S315F0023EB018BF70BD00221146074852F0BDFC00281B
S315F0023EC008BF70BD49F06EFB00212970BDE8704055
S315F0023ED049F074BB400B00A09D43DFA070B5274D9F
S315F0023EE004466868844205D2254BE62225A12BA01A
S315F0023EF052F042FDA868844205D3214BE72233A152
S315F0023F0026A052F039FD207A28B11D4BE82236A1BF
S315F0023F1022A052F031FD2068B0F5801F05D9184B6A
S315F0023F20EB2238A11DA052F027FD206869680844EB
S315F0023F3084420ED0027A62B9AA68904209D0EA683F
S315F0023F40824208BFEC6002682260621A00680B1DAA
S315F0023F50C25060680844A04208BF70BD027A002AC7
S315F0023F6018BF70BDEA68A24208BFE8602268026024
S315F0023F70401A2268091D505070BD0000300B00A097
S315F0023F80BCCEE9A0706C75675F686F6C65733A209A
S315F0023F906D656D203E3D2072616D00004C574950B3
S315F0023FA020417373657274696F6E20222573222025
S315F0023FB06661696C6564206174206C696E652025A2
S315F0023FC06420696E2025730A00000000706C756724
S315F0023FD05F686F6C65733A206D656D203C20726187
S315F0023FE06D5F656E64000000706C75675F686F6C7C
S315F0023FF065733A206D656D2D3E75736564203D3DA2
S315F002400020300000706C75675F686F6C65733A20DC
S315F00240106D656D2D3E6E657874203C3D204D454DA7
S315F00240205F53495A455F414C49474E4544000000AB
S315F002403010B5044600695DF063FC2046BDE8104009
S315F00240405DF05EBC002101605DF05ABC0168491E5C
S315F0024050016070472DE9FF5F0024DDE90E9A0F46F5
S315F00240609846A346002A0DBF00200026154604B046
S315F002407008BFBDE8F09F16DD701900EBD070441052
S315F002408004FB087B59460098C8470028C8BF661C3F
S315F0024090B8BF254607D0B542EEDC1AF0010F08BFCD
S315F00240A04FF0000B0FE01AF0020F0CD0002C08DDD7
S315F00240B0601E00FB08710098C847002808BF641EFE
S315F00240C0F4D004FB087B04B05846BDE8F09F00002C
S315F00240D003680868064900EB400001EBC001DA68A4
S315F00240E0C868101A18BF70470969186952F085BC7A
S315F00240F004D0EBA02DE9FF5F0546DDF838A0109E4F
S315F0024100129C8946170004BF686800F1100778D040
S315F00241104FF01408DCB1E01C20F003001FFA80FB1C
S315F00241200BF114001FFA80F80FFA8BF128464BF0C8
S315F002413087FE88B922466868119952F045FC5C45BB
S315F002414005D26868ABEB0401204452F05BFC142103
S315F002415028464BF075FE20B104B06FF00100BDE8C1
S315F0024160F09F68896C68142806D2384B40F22922EF
S315F002417037A143A052F000FC2089DDF80CB04CF0D8
S315F0024180F4FE6BF31F204CF0F2FE20814CF0EDFEB4
S315F002419020F0FF010F9808434CF0E9FE20813868C1
S315F00241A020614FEA98004AEA002080B240F480404B
S315F00241B04CF0DDFE208028894CF0D9FEDFF8F0B015
S315F00241C060804FF0000AA4F806A0BBF800004CF09D
S315F00241D0CEFEA080BBF80000401CABF80000B9F19F
S315F00241E0000F1CBFD9F80000002802D1301D18BFFD
S315F00241F07068E060A4F80AA04146204649F008FF3C
S315F00242006081284645F008F838687168884207D117
S315F002421004B03A4629463046BDE8F05F00F04AB8A7
S315F0024220B08D00281CBF2989814207D904B03A46CD
S315F002423031462846BDE8F05F00F09EB9736904B0D6
S315F00242403A4629463046BDE8F05F184708D2E9A05B
S315F0024250636865636B20746861742066697273744F
S315F002426020706275662063616E20686F6C642073DD
S315F002427074727563742069705F686472000000007E
S315F00242804C57495020417373657274696F6E2022E0
S315F0024290257322206661696C6564206174206C69FD
S315F00242A06E6520256420696E2025730A00000000E1
S315F00242B0B80B00A02DE9F04105460C46098900220B
S315F00242C002205BF0BFFC060004BF4FF0FF30BDE8F2
S315F00242D0F08121464AF038FB040008BF344605D087
S315F00242E030465DF0B7FF2046BDE8F0812068002831
S315F00242F018BF0446FAD149F055F90746286C00284A
S315F002430008BFC5E910640BD0686C30B90A4B40F2AD
S315F002431057220AA114A052F02FFB686C06606C6457
S315F0024320384649F04BF9012229461B4852F084FAE5
S315F00243300020BDE8F081000020CEE9A06966206683
S315F00243406972737420213D204E554C4C2C206C61C1
S315F00243507374206D75737420616C736F20626520BF
S315F0024360213D204E554C4C004C5749502041737319
S315F0024370657274696F6E2022257322206661696CFC
S315F00243806564206174206C696E6520256420696E0F
S315F00243902025730A00000000CD46DFA070B549F073
S315F00243A001F90B4900250D7049F008F9094804682E
S315F00243B0002C08BF70BDD4F8840020B149F092FDFC
S315F00243C0C4F8845070BDE468002CF4D170BD0000CE
S315F00243D0400B00A0740B00A00A490A68824206BF8D
S315F00243E0D2680A60002A08D0D3681BB1834204BFA0
S315F00243F0C168D160D268002AF6D1014600204BF09E
S315F00244007FBE0000483900A0021D00F0E5B910B4E5
S315F0024410D0E900324FF0000C9A4202BFC368002B7B
S315F002442060460BD0531C43608468A34208BFC0F8B1
S315F002443004C0C0F80CC0006900EB8200002801BF7E
S315F00244404FF0FF30C1F800C010BC7047006808603A
S315F002445010BC0020704730B4D0F80CC000220368BC
S315F0024460BCF1000F11D103F1010CC0F800C0846851
S315F0024470A44514BF62460260D0F804C0624504BF88
S315F00244800122C260006900EB8302002A18BF1160A4
S315F0024490002030BC4AF02CBA10B5D0F80CC000227D
S315F00244A00368BCF1000F11D103F1010CC0F800C092
S315F00244B08468A44514BF62460260D0F804C062451F
S315F00244C004BF0122C260006900EB8302002A1EBF0C
S315F00244D00020116010BD00204AF00AFA4FF0FF30BA
S315F00244E010BD00B590F810C083B0BCF1040F18BF30
S315F00244F0BCF1070F08D0BCF1020F1FBFBCF1030FCE
S315F00245006FF0070003B000BD002A02BF002003B01F
S315F002451000BD4FF0000CCDE9003C634649F0BEF811
S315F002452003B000BD838A021D48F04FB830B583B0A0
S315F002453005460021684652F0E8F90E4C04F10800EF
S315F002454052F010FA0DB158B10FE000281CBF04F179
S315F0024550080052F002FA04F1080052F0CCF904E035
S315F0024560294604F1080052F08FF9684652F0C8F96C
S315F002457003B030BD502C29A02DE9F74F84B00222AA
S315F002458005984FF0140A0021878D10465BF05AFB0E
S315F00245905FEA000B02BF4FF0FF3007B0BDE8F08FC5
S315F00245A0ABF80A704848ABF8087020F00305CBF870
S315F00245B0045004984068016829604168696081681E
S315F00245C0A960C168E96000692861E8884CF0CDFC11
S315F00245D0C0F30C0600F400500190049800891438D8
S315F00245E00404A7F114004FEAE07100EB5170C0F336
S315F00245F0CF00240C009057D0A7F114000290009837
S315F0024600C000039002988442D4BF4FF001094FF0E4
S315F00246100009C6F30C010198B9F1000F41EA00084E
S315F002462006BF48F400580398204687B253463A46E6
S315F002463005F1140104985DF0EBFE50441FFA80FA7E
S315F002464040464CF094FCE88007F1140080B24CF03E
S315F00246508EFC6880002068811421284649F0D8FC37
S315F00246606881B9F1000F05D004F1140081B2584601
S315F00246704AF06AFD0022114602205BF0E3FA5FEA95
S315F0024680000818D0594647F0A0F805984146069A10
S315F00246904369984740465DF0DDFDE01B040400984F
S315F00246A0240C304486B2ADD158465DF0D3FD07B046
S315F00246B00020BDE8F08F58465DF0CCFD07B04FF014
S315F00246C0FF30BDE8F08F0000D3E228A02DE9F041DB
S315F00246D00546002748F066FF2E6C8046002E23D052
S315F00246E070893189344688420DD0206830B9174B2B
S315F00246F040F2822216A122A052F03EF92468608985
S315F002470021898842F1D1686CA04204BF6F642F649C
S315F002471009D02068286430B90C4B4FF4237224A1D7
S315F002472017A052F029F92760404648F047FF46B1F4
S315F0024730294630464AF004FA00281CBF30465DF09E
S315F002474089FD286C0028C5D1BDE8F08120CEE9A00C
S315F0024750626F67757320706275663A206C656E20BB
S315F0024760213D20746F745F6C656E20627574206EE5
S315F0024770657874203D3D204E554C4C2100000000DA
S315F00247804C57495020417373657274696F6E2022DB
S315F0024790257322206661696C6564206174206C69F8
S315F00247A06E6520256420696E2025730A00000000DC
S315F00247B073686F756C64206E6F74206265206E7517
S315F00247C06C6C2073696E636520666972737420215E
S315F00247D03D206C6173742100F0B50E46044683B039
S315F00247E01746142130464BF02BFB70B100221146CE
S315F00247F001205BF027FA050002BF4FF0FF3003B04D
S315F0024800F0BD314646F0E1FF10E035466FF0130198
S315F002481030464BF015FB48B1174BE92217A121A000
S315F002482052F0AAF803B04FF0FF30F0BD384648F028
S315F0024830F1FEC0B1002C1BBF21680029011D2146E3
S315F0024840227CA37ACDE900320290E37A3A462846F0
S315F002485049F054FB0446B5421CBF28465DF0FAFC0B
S315F0024860204603B0F0BDB5421CBF28465DF0F2FC0F
S315F00248706FF0030003B0F0BD2452EBA043616E2744
S315F00248807420726573746F7265206865616465720F
S315F0024890207765206A7573742072656D6F7665642C
S315F00248A0210000004C5749502041737365727469B8
S315F00248B06F6E2022257322206661696C6564206121
S315F00248C074206C696E6520256420696E2025730A52
S315F00248D000000000C161704741617047C0F89C104A
S315F00248E07047C0F8981080F835207047C0F89010DD
S315F00248F07047C0F88C1070472DE9F04744680546BA
S315F002490084B0884620884CF030FBC0F30320870041
S315F00249107942894628464BF093FA002840F0C58042
S315F002492028890428C0F0C18068680078082840F019
S315F0024930BC8001264FF070405DF089FC216900EAE7
S315F0024940010A4FF060405DF082FC824508BF002606
S315F0024950414604F110004AF0B3FC002840F0A5806D
S315F0024960002E00F0A28028890828C0F09E802846F2
S315F002497000F0FAFF002840F09880242128464BF0F8
S315F00249805FFA002800F03E80394628464BF058FA86
S315F002499038B1494B962249A155A051F0EDFF00F0EE
S315F00249A084B82989002202205BF04CF9060000F057
S315F00249B07C80708907F10801884205D23E4B9F221E
S315F00249C057A14BA051F0D8FF2946304649F0BCFF1B
S315F00249D030B1394BA32260A145A051F0CDFF64E07E
S315F00249E04946304674684BF02BFA30B1324BA92265
S315F00249F063A13FA051F0C0FF57E028465DF02AFCC4
S315F0024A0035460CE06FF0230128464BF019FA30B127
S315F0024A10294BB3225AA136A051F0AEFF45E06E689B
S315F0024A20E0682169E16020614FF0000986F80090A4
S315F0024A304FF2FF704CF09BFA718888424FF4006097
S315F0024A4006D84CF094FA7188401C0844708004E051
S315F0024A504CF08DFA71880844708020894CF085FA02
S315F0024A60C0B240F47F404CF082FA2081A4F80A905A
S315F0024A701421204649F0CCFA6081394628464BF09B
S315F0024A80DFF930B10C4BD5224AA119A051F074FFCF
S315F0024A900BE00120CDF80090CDE90108FF230022BA
S315F0024AA004F10C01284649F029FA04B02846BDE87B
S315F0024AB0F0475DF0CFBB0000B053EBA069636D70B9
S315F0024AC05F696E7075743A206D6F76696E672070E5
S315F0024AD02D3E7061796C6F616420746F206970206D
S315F0024AE0686561646572206661696C65640A0000D6
S315F0024AF04C57495020417373657274696F6E202268
S315F0024B00257322206661696C6564206174206C6984
S315F0024B106E6520256420696E2025730A0000000068
S315F0024B20636865636B207468617420666972737476
S315F0024B3020706275662063616E20686F6C64207304
S315F0024B407472756374207468652049434D50206809
S315F0024B50656164657200000069636D705F696E700D
S315F0024B6075743A20636F7079696E6720746F206E80
S315F0024B7065772070627566206661696C65640A0005
S315F0024B8069636D705F696E7075743A2072657374DD
S315F0024B906F72696E67206F726967696E616C2070F9
S315F0024BA02D3E7061796C6F6164206661696C656433
S315F0024BB00A00000043616E2774206D6F7665206FE0
S315F0024BC07665722068656164657220696E2070612F
S315F0024BD0636B6574000000002DE9F04106464068FB
S315F0024BE00D46174600884CF0C0F9C0F3032080004A
S315F0024BF0414230464BF024F9002848D17189082900
S315F0024C0045D37468204649F003FA00283FD1394665
S315F0024C10284649F083F9002839D02178112905D0A0
S315F0024C20162904BF417B012931D12BE039681A4F8D
S315F0024C303A68914204BF6368002B0CD0836803B3D1
S315F0024C40914204D1211D284649F068F9C8B161782C
S315F0024C504AF07CF91BE06078002804BF0A206070F5
S315F0024C600E4803686BB15868A84207D1986839684C
S315F0024C70884203D0617818464AF068F91B68002B1F
S315F0024C80F1D104E00021C181022242730173304660
S315F0024C90BDE8F0415DF0DEBAB00B00A0AC0B00A0AF
S315F0024CA02DE9F04107460C46164601F1100048F090
S315F0024CB0B1FC050018BFB5422ED020894CF055F94B
S315F0024CC04FF0FF3101EB102086B220894CF04DF9FE
S315F0024CD066F31F2080B24CF04AF920814CF045F978
S315F0024CE0000A0FD04FF6FF604CF041F96189884215
S315F0024CF04FF4807013D84CF03AF96189401C08449D
S315F0024D00608111E020894CF030F9C0B2012803D05D
S315F0024D100021384601F036FE0020BDE8F0814CF065
S315F0024D2026F96189084460816B6904F110023946FB
S315F0024D30284698472846BDE8F08100002DE9F05F45
S315F0024D4045688346002728884CF00FF9C0F3032004
S315F0024D5005287ED1E8884CF008F9C0044FEA1049DC
S315F0024D6068884CF002F9044628884CF0FEF8C0F345
S315F0024D700320404204EB80001FFA80FA584647F0BF
S315F0024D80CAFCDFF848810646B8F8000030440A2823
S315F0024D900AD93146284601F06FFC002859D0B8F8F6
S315F0024DA0000030440A2854D8D8F80440002C18BF22
S315F0024DB0E86817D06169814207D1A1692A699142EF
S315F0024DC003D1A189AA88914204D027462468002CEF
S315F0024DD0F0D107E034B1E8884CF0C7F8C004C00C53
S315F0024DE017D106E03146284600F01CFF040067D0D2
S315F0024DF00FE0E0894CF0B9F8C004C00C09D028687D
S315F0024E00A0606868E060A8682061E8686061286967
S315F0024E10A061B8F800003044A8F80000E8884CF029
S315F0024E20A4F810F4005F06D1A07F40F00100A0774D
S315F0024E3009EB0A00A0835946204600F0BBFD002884
S315F0024E4008BFBDE8F09FA08B1430A0836068466867
S315F0024E5000E035E03568A0683060E068706020698F
S315F0024E60B0606069F060A0693061A08B4CF07FF8A9
S315F0024E7070800020F08070811421304649F0C8F825
S315F0024E807081D4F8049065B16FF0130128466E680C
S315F0024E904AF0D6FF2946484647F064FD3568002DAC
S315F0024EA0F2D13946204601F071FD484647F033FC0F
S315F0024EB0B8F80010081AA8F800004846BDE8F09FB6
S315F0024EC058465DF0C7F90020BDE8F09F6C3900A0A6
S315F0024ED02DE9F0470746C81C20F003040C2C34BF1A
S315F0024EE00C24B4F5801F30D8DFF8EC80D8F8040033
S315F0024EF0B84203D8D8F80800B84206D8374B4FF470
S315F0024F00BE7237A13DA051F037FDD8F804008742B2
S315F0024F1024BFD8F80810B94204D848F043FB48F049
S315F0024F204DFB56E0A7F10C052E1A57F80C0C801B18
S315F0024F30A0F10C094C4506D9284B4FF4C7723BA198
S315F0024F402EA051F019FD4C4502D90020BDE8F0879C
S315F0024F503FD04FF00001D8F8000047F0DAF92868A0
S315F0024F60D8F804204FF0000C8118087AB8B104F191
S315F0024F701800484529D830190C30D8F80C301118D9
S315F0024F80994238BFC8F80C1081F808C02B68C1E9FD
S315F0024F90003628600968B1F5801F16D013E0301983
S315F0024FA0D8F80C400C300B688C4204BF1118C8F8C4
S315F0024FB00C10111881F808C0C1E90036286009689A
S315F0024FC0B1F5801F01D0121D8850D8F8000047F0C5
S315F0024FD090F93846BDE8F087300B00A0BCCEE9A0C8
S315F0024FE06D656D5F7265616C6C6F633A206C6567B7
S315F0024FF0616C206D656D6F72790000004C574950F7
S315F002500020417373657274696F6E202225732220B4
S315F00250106661696C6564206174206C696E65202531
S315F00250206420696E2025730A000000006D656D5FCD
S315F00250307265616C6C6F632063616E206F6E6C7962
S315F002504020736872696E6B206D656D6F7279000000
S315F00250502DE9F04747688046002638894BF085FFF0
S315F0025060DFF850A000F0FF090025DAF80040ECB1B5
S315F0025070207C484516D1D4F814C0BCF1000F11D0EB
S315F002508007F10C0342462146A069E04750B14FF0C2
S315F00250900008012635B1E068E860DAF80000E06061
S315F00250A0CAF800402546E468002EE0D03046BDE856
S315F00250B0F0870000483900A02DE9F0430546406824
S315F00250C083B00C46FE4EB06000884BF04EFF696826
S315F00250D0C0F3032001EB8000706000F023FFB0689C
S315F00250E000884BF042FFC0F303208000414228467D
S315F00250F04AF0A6FE002840F0468128891428C0F01E
S315F00251004281B068214610304AF0DAF8002840F0C1
S315F00251103A814FF070405DF09AF8B168096900EA99
S315F002512001044FF060405DF092F8844200F02B816A
S315F002513028890090B068062300F11002111F284654
S315F002514049F0B3F80028706807D000F0EBFE03B020
S315F00251502846BDE8F0435DF07DB880894BF005FF47
S315F0025160000B8000414228464AF06AFE002840F0D1
S315F00251700A81706800884BF0F8FE0146706801807B
S315F002518040884BF0F2FE01467068418040685DF05F
S315F00251905EF8014670684160F16080685DF057F82C
S315F00251A00146706881603161C0894BF0DEFE0146CE
S315F00251B07068C18180894BF0D8FE00F03F003070F4
S315F00251C0298910F0030018BF01200844DFF8F482A1
S315F00251D070800027D8F80040002C00F04C80207C2C
S315F00251E028B9B94BB522B9A1C2A051F0C5FB207CB2
S315F00251F00A2805D1B44BB622CAA1BEA051F0BCFB17
S315F0025200207C012805D1B04BB722D1A1B9A051F02B
S315F0025210B3FB7068218C0288914228D1218B408899
S315F0025220814224D1B0686168C26891421FD1216877
S315F0025230006981421BD1E068A04205D1A24BC0228F
S315F0025240CDA1ACA051F098FB37B1E068F860D8F880
S315F00252500000E060C8F80040E068A04205D19A4B31
S315F0025260C622D0A1A3A051F087FB24B157E027466E
S315F0025270E468002CB3D1D648046834B3207C0A28FB
S315F002528005D0914BD022D3A19AA051F075FB70684C
S315F0025290218C0288914215D1218B4088814211D10D
S315F00252A0B0686168C26891420CD121680069814296
S315F00252B008D1204601F02AF903B02846BDE8F043AA
S315F00252C05CF0C8BFE468002CD8D1DFF8388300223E
S315F00252D0D8F80000070018BFD6E901C31FD001684D
S315F00252E000291CBFD3F81090494514D1018BBCF8A4
S315F00252F0029049450FD122B1C168D160C760C8F8A2
S315F0025300000000F019FE03B02846BDE8F0435CF059
S315F0025310A1BFE4D1EAE70246C0680028F9D1706875
S315F002532080894BF022FE00F03F0001F0DFF9002CFD
S315F00253307ED0207C46F0B5F9DFF8CC820027C8F89B
S315F002534000702889A8F80C006868C8E901507068EE
S315F0025350C8F8100077617770D4F88820CAB1D4F80B
S315F002536090C0BCF1000F04D0002321466069E047EB
S315F002537004E000232146184647F0C2FB002808BF86
S315F0025380C4F8887005D003B02846BDE8F0435CF057
S315F002539061BF2046B46100F059FE401D5CD07078C2
S315F00253A010F0080F07D0D4F89C203AB16FF005013F
S315F00253B06069904702E010F0100F08D0214641488C
S315F00253C047F022FA214602204AF09AFE44E0B4F867
S315F00253D06C202AB1D4F88C3013B121466069984713
S315F00253E07269DAB1307810F0080F03D0507B40F0D2
S315F00253F001005073D4F890C0BCF1000F04D0002322
S315F002540021466069E04704E000232146184647F04A
S315F002541077FB00281CBF7069C4F88800707810F01A
S315F0025420200F12D0D4F890C0BCF1000F07D000E0E4
S315F00254301BE000231A4621466069E04705E0002397
S315F00254401A462146184647F05BFB2046B76148F0FC
S315F00254509DFF207C46F025F9B761D8F80400E8B143
S315F00254605CF0F8FEC8F8047018E0706880894BF0BA
S315F00254707CFD10F0040F0ED1706801884088CDE9EA
S315F002548000017188F0680144B06800F10C031A1D3E
S315F0025490306947F047FB28465CF0DCFE01F06EF916
S315F00254A000281CBF03B0BDE8F083074B03B040F2FF
S315F00254B07512BDE8F04355A10EA051F05DBA000099
S315F00254C0503900A0740B00A0BC52EBA07463705F5D
S315F00254D0696E7075743A20616374697665207063DB
S315F00254E0622D3E737461746520213D20434C4F5307
S315F00254F0454400004C5749502041737365727469F4
S315F00255006F6E2022257322206661696C65642061C4
