S315080100000CE000201D00010831000108310001083B
S3150801001031000108310001083100010800F00AB871
S31508010020DFF808D01CF0FBFD00F006B8F8FD01204A
S31508010030FEE70000FFF7F4BF0EB56FF00300684452
S31508010040324902E0324A40F804298842FAD2314854
S315080100503149086031483249086000F0D7F831481B
S31508010060314908442E49096808442D49086000F0B9
S3150801007093F92E49086000F0D7F800F0E7F822F066
S315080100800FFF0020034602220421009028A02DF02C
S3150801009069FA2DA32FA2324932A02DF063FA384905
S315080100A038A02DF05FFA01A902A82CF0CDFBDDE9F5
S315080100B0011039F0C5FD3AA035F036F8284939A0BE
S315080100C035F032F839A137A035F02EF821A13AA03A
S315080100D035F02AF81CA138A035F026F801214EF68C
S315080100E0602039F0D7FC0121022039F0D7FC012123
S315080100F0084639F0DCFC00F031F932A035F014F885
S3150801010039A039F0F9FD32F09EFE0EBD00D001206E
S315080101100DF0ADBA000001080800001030C608004D
S315080101200C00001000000000200A0000000000106A
S315080101302E4E65744D46207625642E25642E25643B
S315080101402E25640D0A00000031343A31303A353033
S315080101500000000046656220313320323031330019
S31508010160F497060825732C204275696C642044614E
S3150801017074653A0D0A0925732025730D0A000000D6
S315080101805944060041524D20436F6D70696C657282
S315080101902076657273696F6E2025640D0A0000006A
S315080101A00C000000252D3135730D0A004275696C66
S315080101B06420446174653A002020252D3133730D7E
S315080101C00A0000000C6D61696E20657869746564C2
S315080101D021213F3F3F2E202048616C74696E6720BC
S315080101E04350550D0A0000006D61696E20657869F6
S315080101F074656421213F3F3F2E202048616C746954
S315080102006E67204350550D0A0000000010B500F036
S31508010210EBFB03A10348006800F0D4F810BD000009
S31508010220000000004418070810B500F051FA012033
S3150801023010BD00000448006840F2FF1140EA0100C1
S3150801024001490860704700003038024010B54FF088
S31508010250FF314FF6FF70344AC2E90010334800688F
S3150801026040F04800314908604FF00800304988607D
S315080102704FF004002F4908804FF0200001F10401D6
S3150801028008804FF0000001F1040108804FF00200D8
S3150801029001F1040108804FF000002749088001F1A7
S315080102A0040108804FF05300244908804FF00000EC
S315080102B0234908604FF0FF30224908604FF00100DA
S315080102C0214908804FF00400204908804FF00000BA
S315080102D001F1040108804FF0170001F104010880BB
S315080102E04FF0000001F104010880194908804FF612
S315080102F0FF7001F1040108604FF0010015490880FB
S315080103001248008840F00100104908800948008811
S3150801031040F00100074908804FF000020E494FF0EE
S31508010320320034F0D7FE10BD3800001040380240C4
S31508010330002004E0000C0040180C0040280C004086
S31508010340340C00402C0C0040140C004000180040EE
S3150801035028180040141800407505010808B54FF023
S31508010360000000904FF03200ADF800004FF0000099
S315080103708DF802004FF001008DF80300009800F097
S3150801038029F802A039F0B8FC08BD0000457869745F
S31508010390696E672E0D0A000070B5084D084E0022D9
S315080103A02021104638F010FF0446224631462846D9
S315080103B038F00AFF0446204670BD00000000001010
S315080103C0000000000A460146014800F068BB00002B
S315080103D0E8FC001011B581B000BF4FF0000400F031
S315080103E0D7FD002003460222042100903CA036F0E6
S315080103F016FD00F079FD43A036F011FD4548019937
S3150801040000F0F0FE002810DB424800F027FF002824
S315080104100BDB41A036F003FDBDF80420002141485D
S3150801042000F0FEFD40A036F0FAFC3E48006810F0E8
S31508010430005F1FD13B48006820F4406039490860D5
S315080104400846006840F4006008603948006800689A
S3150801045050B1012036490090096800231A460868F8
S31508010460092138F009FF00E000BF9DF8070008B12F
S3150801047000F090FD2B48006810F0005F2BD029484A
S31508010480806800F00100012823D1044625488068C8
S3150801049000F00500052802D14FF0010001E04FF0F8
S315080104A000008DF80600002037F0F4FF00BF214850
S315080104B000F092FE00F0AAFD4FF000001549087100
S315080104C000BF00F079FB22F0EBFC002037F0E8FFD3
S315080104D001E033F027FE002C7FF47FAF1CBD00003E
S315080104E00D0A54696E79434C5220284275696C6429
S315080104F02025642E25642E25642E2564290D0A0DD2
S315080105000A0000005374617274696E672E2E2E0DEF
S315080105100A0000001800001052656164792E0D0A60
S3150801052000000000F01D0010446F6E652E0D0A00D4
S31508010530B8000010582500107047000010B54FF09C
S31508010540000407E0064901EBC401496808688047C9
S3150801055004F10104034800688442F3D310BD000086
S315080105603C090010009806084FF04A4070470120E0
S315080105707047000010B504464FF001002CF08EF8C4
S3150801058002202CF08BF84FF6FD700949088031F0EE
S3150801059008FC084B0CCB801A994101D300F0ACFC3E
S315080105A002202CF08FF801202CF08CF810BD0000E9
S315080105B0100C0040380000107047000000BF4FF0D3
S315080105C0000004490860486000BF034908604FF00D
S315080105D001007047B8FE0010740000100120704732
S315080105E000207047012070474FF0000202600A6040
S315080105F070474FF04A4070472DE9F0411420002119
S3150801060039F050F94FF0000006E04FF00001254A95
S3150801061022F8101000F101000428F6DB4FF000045F
S3150801062012E004EB8400204901EBC0051F4E4FF090
S3150801063000074FF00100A8613A463146284635F0D1
S3150801064064FF00BF04F10104102CEADB4FF000003F
S3150801065017490860024617494FF0060034F03AFD7B
S3150801066000221549072034F035FD002213490820D8
S3150801067034F030FD00221249092034F02BFD002206
S3150801068010490A2034F026FD00220F49172034F0BC
S3150801069021FD00220D49282034F01CFD0120BDE86A
S315080106A0F081000028000010F80B0010650D010804
S315080106B0003C0140510C01086D0C0108890C010828
S315080106C0A50C0108C10C0108DD0C0108210D010862
S315080106D04FF0FF301749086001461748C0F88410E3
S315080106E0C0F888104FF0FF304FF0E021C1F88002C2
S315080106F001461248016000F10400016010481149E1
S315080107008860C860086148618861C862086388634F
S31508010710C863BFF35F8F0C480C4908600948A1F10B
S31508010720040108600A48006840F4E02008490860A6
S315080107307047000080E100E000E100E084E200E0AB
S31508010740A90B010800FE01200007FA050CED00E0DF
S3150801075024ED00E010B500F009FC10BD012070473A
S3150801076070474FF04A40704710B50023024A0349C3
S31508010770034833F039FB10BD6C0100103801001035
S31508010780C82C00101CB52448C06800F47F40B0F599
S31508010790807F0CD1002001211F4ACDE90010116983
S315080107A0D268D2B2501E0823002239F061F91A48DC
S315080107B0406900F47F40B0F5807F0CD1002001210B
S315080107C0154ACDE9001011695269D2B2501E0823A3
S315080107D0002239F04DF91048C06800F47F40B0F5A1
S315080107E0007F15D10C49C968C1F34210002139F0BF
S315080107F0DFF968B90849C968C1F3421039F0C8F97F
S315080108000549C968C9B2481E0222012139F094F97D
S3150801081000F01AFA1CBD00004000001010B502488D
S315080108201FF078F810BD0000E0FE001010B50A4C64
S31508010830204622F020FE20604FF00000606000BFD5
S315080108402046A06000BF4FF00000044908604FF041
S3150801085001000349086010BD780E00106C000010F5
S31508010860700000102DE9FF47254828F05CFB044677
S3150801087034B924A039F040FA002004B0BDE8F08765
S315080108804FF030054FF001062B48006898BB28E069
S31508010890204622F0E1FD18B116B14FF0010001E042
S315080108A04FF00000064601AF0DF10C080DF10809DD
S315080108B0204636F086FD824643463A462946504644
S315080108C0CDF8009036F068FD38B11B48006810B9BC
S315080108D01948046001E00020CFE7204636F0BEF94A
S315080108E00446204636F0BAF90028D1D112480068E4
S315080108F020B90020C1E7FFE70020BEE73046BCE784
S31508010900780E0010546865726520617265206E6FF5
S3150801091020626C6F636B2073746F72616765206404
S3150801092065766963657320746F20696E6974696198
S315080109306C697A65000000006C00001010B5024869
S315080109401EF0E8FF10BD0000ECFE001010B50348CC
S315080109501CF086F902481CF083F910BD840E0010BC
S31508010960900E001070B500BF12480068044624B9FD
S3150801097011A039F0C1F9002070BD4FF0010512E050
S31508010980204636F0EEFD40B1A06A0C2204F11001B2
S31508010990436B04F12C00984701E04FF0000520460F
S315080109A039F0A6F90446204639F0A2F90028E7D11C
S315080109B02846E1E7840E0010546865726520617265
S315080109C065206E6F2066696C652073797374656D31
S315080109D020766F6C756D6520746F20696E69746910
S315080109E0616C697A6500000010B500F005F84FF0F2
S315080109F00001016010BD00000048704714FD001099
S31508010A002DE9F0410646484231EA00001DD02A2068
S31508010A10741C002530702CF019FA0746002057F887
S31508010A202520110F1201092901F1570300D8273B87
S31508010A30401C082804F8013BF3DB6D1C052DEDDB92
S31508010A40002020703046BDE8F081042913D004DC6B
S31508010A50012908D0022904D109E008290FD0102953
S31508010A6011D00020EFE72CF0F1F900680EE02CF028
S31508010A70EDF940680AE02CF0E9F9806806E02CF007
S31508010A80E5F9C06802E02CF0E1F9006928B120F027
S31508010A90030050F8041C0844D5E741A0D3E72DE923
S31508010AA0F04709B14B0902D00020BDE8F08732B101
S31508010AB013782A2B06D0BDE8F04700F025B8BDE823
S31508010AC0F0479DE7551C81460F464FF00108002463
S31508010AD00026314615F8010B3928A0F1300200D954
S31508010AE0273A491C082942EA0616F3DB08FA04F0F4
S31508010AF0384203D02CF0AAF940F82460641C052C6E
S31508010B00E6DB39464846DAE72DE9F04106460C4662
S31508010B10154688070AD51146224878440AF0D4FDB5
S31508010B20070090D02CF092F97F1C4760E0070AD0A5
S31508010B3029461C4878441A38AFF30080070082D04A
S31508010B402CF084F9076060070AD5294615487844C8
S31508010B503438AFF30080070021D02CF077F987608D
S31508010B6020070AD529460F4878444E3809F07AFDF8
S31508010B70070014D02CF06AF9C760E0060AD52946A1
S31508010B80084878446838AFF30080050007D02CF090
S31508010B905DF9056121463046BDE8F04130E752E787
S31508010BA043000000B62D060004B02DE9FF0F684684
S31508010BB0EFF3058100F0B6BB10B54FF000040BE06A
S31508010BC0204850F8240020B11E4951F824008047D6
S31508010BD000E003E004F10104102CF1D300BF27F073
S31508010BE09DFB00F0C2FB27F097FB00F026FC00F006
S31508010BF0CBFB00F0D7FB00F0D8FB00F084FC00F03B
S31508010C00B8FB00F0D4FB00F014FC00F077FC00F010
S31508010C1087FC00F017FF00F023FE00F0BFFB00F091
S31508010C20C3FB00F0F7FB00F0C5FB002037F032FCF0
S31508010C3000F0ACFB00F0A0FB00F0A0FE00F0E0FD28
S31508010C4010BD0000200A001010B500F0ABFE10BD63
S31508010C5010B504464FF00100034908604FF0000043
S31508010C601EF05EFC10BD0000143C014010B50446A0
S31508010C704FF00200034908604FF001001EF050FCD6
S31508010C8010BD0000143C014010B504464FF00400A5
S31508010C90034908604FF002001EF042FC10BD000037
S31508010CA0143C014010B504464FF00800034908609A
S31508010CB04FF003001EF034FC10BD0000143C014047
S31508010CC010B504464FF01000034908604FF00400C0
S31508010CD01EF026FC10BD0000143C014070B5064606
S31508010CE00D48006800F478740B4804600B480068E6
S31508010CF000EA04044FF005054FEA541400BF14F046
S31508010D00010F02D028461EF00BFC05F101054FEA3A
S31508010D105404002CF3D170BD143C0140003C014041
S31508010D2070B506460D48006800F47C440B4804601B
S31508010D300B48006800EA04044FF00A054FEA9424B8
S31508010D4000BF14F0010F02D028461EF0E9FB05F199
S31508010D5001054FEA5404002CF3D170BD143C01403F
S31508010D60003C01402DE9F04705462E4606F00F04E2
S31508010D70144850F82480B8F1000F21D04FEA161A0A
S31508010D804FF0010000FA04F90F4800EB8A200069C8
S31508010D9020FA04F000F0010727B90C48006810EAA8
S31508010DA0090F0CD02FB10948001F006810EA090F76
S31508010DB005D0074850F8242039463046C04700BFB9
S31508010DC0BDE8F087780B0010000002400C3C01409A
S31508010DD0B80B00101CB50021684637F033FB1048E4
S31508010DE0C06878B90E4C204633F05BFE20604FF0A0
S31508010DF00000606000BF2046A06000BF4FF0010000
S31508010E002146C86000F01AFB20B9684637F01FFB77
S31508010E1000201CBD684637F01AFB0120F9E70000DF
S31508010E20F8FE001070B504462C480068002853D116
S31508010E304FF00100A061E0614FF00000206260629E
S31508010E4004F1200204F11C0104F1180000F05EFB14
S31508010E504FF00000A060E0602148406900F51230BB
S31508010E6000F1F5004FF0180180FB01024FF03C0339
S31508010E704FF00005A0FB031602FB036200FB0523E6
S31508010E80184A2846A1FB025603FB026201FB002011
S31508010E90C4E900501248406900F5123000F1F50026
S31508010EA04FF0180180FB01024FF03C014FF000059D
S31508010EB0A0FB013602FB016100FB05120948294620
S31508010EC0A3FB005602FB006003FB0100C4E90450C2
S31508010ED04FF0010001490860002070BD340100107F
S31508010EE044EC06080046C32310B50249081F2BF037
S31508010EF0ABFC10BD940000102DE9FC4100216846A9
S31508010F0037F0A0FA184830F01CFE0646304630F095
S31508010F1015FE074617B330F044FFD6E90432C01A66
S31508010F20914101D238F0B2FE102038F005FA304668
S31508010F302DF0E0FF384630F001FE10B1D7E9040183
S31508010F4002E04FF0FF30010C044630F0D7FD4FF0B8
S31508010F50000131617161304600F066FC684637F080
S31508010F6076FABDE8FC810000E0FE001010B50648DF
S31508010F70006830B9054823F04BFF4FF001000249DC
S31508010F800860002010BD000030010010942B0010ED
S31508010F907047000010B50BA140F2015000F0D3F9DB
S31508010FA011A035F03CFF02E0174825F065FD16480B
S31508010FB0006810F0005F04D11348006810F4003F80
S31508010FC0F2D010BD0D0A57616974696E6720666FA4
S31508010FD07220646562756720636F6D6D616E6473F7
S31508010FE02E2E2E0D0A00000057616974696E67205E
S31508010FF0666F7220646562756720636F6D6D616ED9
S3150801100064732E2E2E0D0A00F01D001010B503482C
S3150801101000F070FE4FF00004204610BDF01D0010D0
S315080110202DE9F0418AB00446884617464FF000007C
S3150801103006905C48D0F80C0128B95BA035F0EFFEA4
S315080110404FF05045A6E0204622F058FB051E00DA6F
S31508011050A0E05D48006820F440605B4908600846E6
S31508011060006840F4806008604FF00002574907A8FD
S3150801107033F07CFA051E00DA8CE007A902A838F0DD
S315080110807EFD07A837F0E5FA06460020411E022331
S315080110903246CDE9001006A9204637F0E0FA051ECA
S315080110A003DA02A838F07AFD74E002A838F076FD72
S315080110B0069835F0CEFD0646306B407A002807DDE6
S315080110C0434A0021706938F041FD051E00DA61E0E6
S315080110D0204622F013FB051E00DA5BE004F5D07109
S315080110E020462BF0E1FF50E03946204600F0EEFCA1
S315080110F00646351E00DA4DE03348006810F0005FF9
S315080111000AD13148006810F4003F05D12E4880689D
S3150801111000F00100012802D14FF001053AE02A4802
S31508011120006810F0004F09D038F064FC204622F020
S31508011130E5FA051E00DA2DE038F06EFC2248406813
S3150801114010F0020F0ED0204637F00EFA1E4800683E
S3150801115010F0006F06D11C48406810F0020F01D04C
S3150801116038F094FDB6F1407F03D1204600F076FDB4
S315080111700AE0B6F1007F06D194F8D00020B12046E6
S3150801118037F0D0F900E001E000BFADE700BF4FF04E
S31508011190000500BF0F4829F005FF28460AB0BDE83B
S315080111A0F08100002421001043616E6E6F74206681
S315080111B0696E6420616E7920656E747279706F69E3
S315080111C06E74210D0A000000F01D00103022001077
S315080111D0E81F00105825001010B50446204636F0C1
S315080111E0A1F810BD73B504460198206000F05AFCB9
S315080111F0051E00DA1CE00FA035F011FE9DF8060069
S3150801120028B11048006840F000400E4908600D48B2
S3150801121000F03CFC051E00DA0AE00BA035F0FFFDE4
S3150801122000F04AFB4FF0010020714FF0000500BFA6
S3150801123028467CBD437265617465642045452E0D5B
S315080112400A000000F01D0010537461727465642071
S3150801125048617264776172652E0D0A0070B505469C
S3150801126017A035F0DCFD1A4A1A49284600F074FE23
S31508011270041E00DA1BE018A035F0D1FD50212846DE
S3150801128000F0BEFE1DA035F0CAFD204837F0AEFAC3
S31508011290041E00DA0BE01E4800F080FD1B4837F0FB
S315080112A065FA041E00DA02E04FF0000400BF002CC4
S315080112B003DA214617A035F0B2FD204670BD0000BD
S315080112C04372656174652054532E0D0A00000000AF
S315080112D030C60908143A07084C6F6164696E6720BD
S315080112E04465706C6F796D656E7420417373656DB5
S315080112F0626C6965732E0D0A000000005265736FF2
S315080113006C76696E672E0D0A000000002421001014
S31508011310582500104572726F723A20253038780DBB
S315080113200A00000070B504460D464FF0000037F07C
S31508011330A7F808B138F0AAFC2946204631F0A8FCDE
S3150801134031F081FD70BD0FB438B5044606A800908A
S315080113502046009A05992CF015F905464FF000002C
S315080113600090284638BC5DF814FB10B501F0F8F872
S3150801137010BD4FF04A40704710B5024801F022F9F6
S3150801138010BD0000A02C00107047000010B50248DF
S3150801139035F0C8FF012010BDB8FE001010B501F0E8
S315080113A01DF910BD012070477047012070474FF0A5
S315080113B04A40704710B54FF0000408E004EB840179
S315080113C0124A02EBC10035F0ADFF04F10104102CFD
S315080113D0F4DB4FF000000E4908604FF006002AF0D2
S315080113E0A5F807202AF0A2F808202AF09FF8092074
S315080113F02AF09CF80A202AF099F817202AF096F87C
S3150801140028202AF093F8012010BD0000F80B0010DF
S31508011410003C014010B538F045FBA0F1010405E098
S315080114200021204638F0D4F9A4F10104002CF7DA9A
S3150801143010BD10B501F08CF910BD704710B52548DF
S31508011440006810F4001F42D14FF0000022490860DD
S31508011450224908604FF0430302464FF002014FF05C
S31508011460170033F0A7FB432300220221162033F08D
S31508011470A1FB1848006840F40010164908604FF4AB
S315080114800010174908604FF0000008604FF02A0065
S31508011490144908804FF0D200134908804FF02B00F9
S315080114A001F1040108804FF48040104908804FF08B
S315080114B001000F4908804FF000020E494FF01F0046
S315080114C033F008FE00220C49202033F003FE0120E8
S315080114D010BD000040380240A0010010A401001010
S315080114E020380240045400401C540040085400406F
S315080114F000540040452301080123010810B50020C6
S3150801150027F032FC10BD4FF04A40704710B54FF036
S31508011510010303600B604FF000041460546010BDB2
S3150801152010B51D48C06800F47F40B0F5807F05D12D
S315080115301949C968C9B2481E38F04CFA16484069B3
S3150801154000F47F40B0F5807F05D113494969C9B2D6
S31508011550481E38F03FFA4FF0000415E001212046F5
S3150801156000F0B5FD0C48406800F47F40B0F5007FF7
S3150801157005D109484068C0B2401EA04202D02046A3
S3150801158038F0A1FA04F10104042CE7DB002038F055
S31508011590A4FA00F0B1FE10BD40000010F0B58BB002
S315080115A00646304633F03AFA04464FF0000101A8E0
S315080115B036F048FF2CB901A836F049FF00200BB0D8
S315080115C0F0BDE06818B90021304625F09DF800BF46
S315080115D03EA00746202203A932F012FD28B34FF098
S315080115E0000000BF12E003A90A5C3C4901F810207B
S315080115F04FF000024FF0010101EB40033749CA548D
S3150801160003A9095C01B903E000F101002028EADB1E
S3150801161000BF4FF0020101EB4001304AA2F102027C
S3150801162011704FF00301517005E04FF000002B498E
S31508011630A1F1020108700022022120462DF076F858
S3150801164005462068A0BB9DB3E7686821204638F0A7
S3150801165024FBE7604FF000000AE04FF0FF0204F1B7
S31508011660380101F8102001EB40014A7000F1010030
S315080116700428F2DB66714FF0FF002071E87A10F05A
S31508011680400F06D0B4F8500040F00100A4F850000D
S3150801169005E0B4F8500020F00100A4F850003046E7
S315080116A000F01EFD28B101A836F0D1FE002086E71C
S315080116B007E04FF00100206001A836F0C8FE0120BE
S315080116C07DE701A836F0C3FE002078E75553425F4F
S315080116D04E414D455F434F4E46494700163400106B
S315080116E02DE9FC4780460D461646C8F3421908F00F
S315080116F01F07484633F092F904460CB1206810B921
S315080117000020BDE8FC87042F0FDAFF2E01D1FF2D3B
S315080117100BD0FF2E03D0012E07DB042E05DAFF2D91
S3150801172005D0012D01DB042D01DB0020E9E704F1D9
S31508011730380010F81700FF2806D104F1380000EB2D
S3150801174047004078FF2801D00020DAE7FF2E04D0B1
S3150801175004F1100050F8260030B1FF2D06D004F12F
S31508011760100050F8250008B90020CAE7FF2E04D05A
S3150801177004F1280050F8260030B9FF2D06D004F1EF
S31508011780280050F8250008B90020BAE74FF00001F3
S3150801179023E0FF2E0ED004F1380010F81100B042F4
S315080117A006D004F1380000EB41004078B04201D17F
S315080117B00020A6E7FF2D0ED004F1380010F811001D
S315080117C0A84206D004F1380000EB41004078A8424F
S315080117D001D1002095E701F101010429D9DB002196
S315080117E0684636F02FFE04F1380000F8176000EB62
S315080117F047004570684636F02AFE012081E7000059
S315080118001CB50021684636F01DFE05E005482DF099
S3150801181028F9044604B900E0F8E700BF684636F03F
S3150801182016FE1CBDE0FE001070B504464FF0000020
S3150801183036F026FE08B138F029FA4FF00001216288
S315080118406162A06938B125462C4604F108002DF0DD
S3150801185000F900BF02E0204631F0FCF970BD000036
S3150801186070B54FF00104124827F05DFB0546114893
S315080118700068D0B112E0284635F09FF818B114B1C6
S315080118804FF0010001E04FF0000004462E462846BD
S3150801189035F0E4F90546304635F084F8284635F042
S315080118A0DDF90028E7D103490860204670BD00002C
S315080118B0780E00106C0000102DE9FE434FF0050864
S315080118C037F014FC214B08FB03F2861841EBE2774B
S315080118D04FF00000019032E01D480068006858B1D9
S315080118E042F201001A490090096801AB082208680A
S315080118F0002137F0C1FC00E000BF1648006810F06F
S31508011900004F03D135F04AFB00B119E0114825F023
S31508011910B3F81048006810F0804F03D00EA035F0D8
S315080119207EFA0DE037F0E2FB0D460446301B77EBF5
S31508011930050003DA0DA035F072FA01E000BFCBE726
S3150801194000BF044821F0DAFEBDE8FE8380969800C0
S31508011950B8000010F01D0010466F756E64206465AE
S31508011960627567676572210D0A0000004E6F206473
S3150801197065627567676572210D0A00001CB500214D
S31508011980684636F05FFD05E005482DF06AF804461D
S3150801199004B900E0F8E700BF684636F058FD1CBDFB
S315080119A0ECFE001010B54FF000042448006800282A
S315080119B03CD12349C8664FF0FF30886648660866F9
S315080119C04FF00000086700BF19E04FF0FF3200EB47
S315080119D040031B4901F1740141F823204FF000022D
S315080119E000EB400301EB83014A6000EB4003144915
S315080119F001F1740101EB83018A6000F101000128FC
S31508011A00E3DB4FF000000E494860087001F052FB15
S31508011A1032F0BCFB00F06CFC10B94FF0FF3406E065
S31508011A2000F053FB4FF001000449086000E000BFD5
S31508011A30601C01D0012010BD0020FCE784000010C5
S31508011A4008FF001070B54FF0010400BF0E4800688A
S31508011A50054612E0284635F055FC18B114B14FF089
S31508011A60010001E04FF0000004462E46284638F0F2
S31508011A703FF90546304635F03AFC284638F038F93C
S31508011A800028E7D1204670BD840E001070B50546C2
S31508011A90034800F079FE044600BF204670BD0000E9
S31508011AA06C24001010B54FF4E071074838F003F8BC
S31508011AB0054801F0C7FB041E00DA02E04FF00004F6
S31508011AC000BF204610BD0000F01D00102DE9F047AB
S31508011AD004460F46604837F08DFB8146D4F8B801B5
S31508011AE0B0F1104F1AD2D4F8B80100F1C040C4F8C9
S31508011AF0B8014FF0C04204F5AC7120461BF05CFFFB
S31508011B004FF0C04204F5B27120461BF055FF4FF065
S31508011B10C04204F5B87120461BF04EFF81E04E48DD
S31508011B20006810F0004F02D04FF0407681E04FF088
S31508011B300005D4F8A00128B904F5AC7035F050FDBC
S31508011B4005460FE0D4F8A001C06940B9D4F8A00150
S31508011B50006A10F0010F02D1D4F8A05102E04FF04B
S31508011B60407666E0284637F0E4FB78B93A482BF028
S31508011B7011F904F5AC7035F033FD054636480068B1
S31508011B8010F0004F02D04FF0407652E0284637F069
S31508011B90D0FBB0B1284623F023FE804642462846AC
S31508011BA0D4F8B81123F014FE686AA0EB080068623D
S31508011BB0686AD4F8B811884202DA686AC4F8B801C2
S31508011BC00AE004F5B27030F067FD10B14FF0806697
S31508011BD02FE04FF040762CE033F09AF8284600F0D3
S31508011BE023FD0646002E0FDAB6F1424F03D0B6F1B1
S31508011BF0784F04D107E04FF00100E86103E04FF0A8
S31508011C000200E86100BF00BF33F082F8294620468A
S31508011C1033F01AF9204623F010FE204637F072FEFB
S31508011C2000BF381EA7F101073FF779AF4FF00076DD
S31508011C3000BF0948406810F0040F05D0204601F09E
S31508011C404BFA08B14FF000764946034836F0B5F825
S31508011C503046BDE8F0870000F01D00102DE9FC4173
S31508011C600746384623F0E9FD384637F04BFE044669
S31508011C700D4607F5AC7030F00FFD10B90020BDE830
S31508011C80FC8100210846091BA8412FDA07F5B27025
S31508011C9035F0A6FC06461AE0D6F8200110F0804F6A
S31508011CA014D0D6F83011D6F83401091BA8410DDA3B
S31508011CB04FF00001C6F83011C6F834114FF0010192
S31508011CC0304631F09DF84FF0FF30D8E746463046AA
S31508011CD037F02FFB5FEA0008DED10548CDE900455C
S31508011CE02021426B384637F0F9FDC8E70020C6E7E0
S31508011CF06C24001010B504464FF0010084F8B401B5
S31508011D004FF00000C4F8B001206101F0ADF900F010
S31508011D107FFC00F02FFD04F5C27030F05DFF04F57D
S31508011D20C87030F059FF4FF00000C4F89C01C4F8A0
S31508011D30A001C4F8AC0104F5AC7120461AF0AFFF56
S31508011D4004F5B27120461AF0AAFF04F5AC712046D3
S31508011D501BF045FC04F5B27120461BF040FC04F566
S31508011D60B87120461BF03BFC0A4801F089F90A487C
S31508011D702AF0CCF901F002FB01F046FB01F02CFB3D
S31508011D804FF00000C4F8A80104F5947030F01AFC6D
S31508011D9010BD00002421001034220010F8B50446B5
S31508011DA04FF0D001204637F086FEE02104F13000DD
S31508011DB028F020F800B9F8BDF02104F1700028F0E8
S31508011DC019F800B9F7E74FF00000C4F8B000564D0E
S31508011DD00646A06132462946204634F096FB00BFE6
S31508011DE0E56DD5E90220D16A88474FF47A7101EB8E
S31508011DF08010A0F10100B0FBF1F0A062E56DD5E914
S31508011E000220116B88474FF47A7101EB4000A0F16B
S31508011E100100B0FBF1F0E06204F170001CF0CFFCA8
S31508011E20B0B104F130001CF0CAFC58B104F130001D
S31508011E3027F0D5FB856804F1700027F0D0FB806890
S31508011E40854205D204F1700104F1300027F0CAFB7E
S31508011E5004F130001CF0B3FC60B904F1300001F064
S31508011E608EFA04F1300027F01BFB012104F1300042
S31508011E7027F09EFB04F130001CF0A1FC00284BD092
S31508011E8004F1300027F0ABFB064606F10C000546C7
S31508011E903BE02FE0012128462BF041FC18B36846A8
S31508011EA030F0BAFE00281DDB182205F10C01009856
S31508011EB00C3038F00BF805F1240000998862009877
S31508011EC037F09CF90098006940F0005100980161CB
S31508011ED00098006940F080410098016113A00099BB
S31508011EE000BF00BF02E016A000BF00BF284628F0C9
S31508011EF00BFC0546002128462BF011FC0028C9D108
S31508011F000421284628F021FC05462846A16E28F01A
S31508011F1004FC0500BDD100BF0E4801F03DF920467D
S31508011F202BF0F2FB00BF46E79D3301085265737437
S31508011F306F7265642066726F6D20464C4153480086
S31508011F40536B69702064656C657465642069746592
S31508011F506D000000F01D00102DE9FE4307460D46F1
S31508011F6016460295019601AA02A9384601F0F6FA23
S31508011F70B0F1000800DA2EE018A0DDE9012134F0FD
S31508011F804EFFDDE90102811A0022029837F01CF999
S31508011F901A490860029C11E06A462146384623F030
S31508011FA051F9B0F1000800DA15E0204636F04EFB8B
S31508011FB0204400F1030020F0030400BF04F17C0073
S31508011FC00199884204D2204636F08AFB0028E3D1DB
S31508011FD04FF0000800BF4046BDE8FE83204C6F6104
S31508011FE064696E6720737461727420617420257840
S31508011FF02C20656E642025780D0A0000A4000010C7
S31508012000F0B593B006460F46394609A828F072FB83
S3150801201028B912A034F003FF4FF077441AE000BF45
S31508012020129835F0CEF905462868C0F340004FF0FE
S315080120301C020CA90790684637F048FF304609A9E3
S315080120400EC901F001FA09A834F00BFE0028E7D100
S31508012050044600BF204613B0F0BD00004552524F5A
S31508012060523A20436F756C64206E6F742066696EF0
S31508012070642064657669636520666F7220444550FD
S315080120804C4F594D454E542075736167650D0A00CD
S315080120902DE9F04107460D461446A5B19CB1A54266
S315080120A011D000BF2068616801B1086000B14160C4
S315080120B000BF284626F060FF0646256066606C600C
S315080120C0346000BF00BFBDE8F0810020704770B5DD
S315080120D004460D462946204601F00EFB70BD000058
S315080120E02DE9FF5F8346BBF1000F03D0012004B041
S315080120F0BDE8F09F7948006840F08000774908609C
S31508012100774C4FF0A0454FF0000102A836F09AF936
S315080121104FF0020140F6040041514FF08000A860DB
S315080121207048E8604FF41020A8634FF400604059E6
S3150801213040F003014FF400604151A86B40F40010D0
S31508012140A8634FF00100C4F8B40004F1A800606563
S315080121504FF0040084F858004FF000024FF00101D7
S3150801216020462CF0E3FA8046B8F1000F02D098F821
S315080121700B0001E04FF0080084F847004FF0010614
S315080121800CE04FF0000104F1280040F826104FF04A
S31508012190400104F12400815506F1010694F858001E
S315080121A0B042EEDC4FF00009CA464846019000905D
S315080121B05DE00198807800F07F0694F85800B042F7
S315080121C003DD00988078032804DD02A836F03FF97C
S315080121D001208CE70198807810F0800F05D04FF028
S315080121E0010104F1280040F8261001988788082F74
S315080121F00AD0102F08D0202F06D0402F04D002A8CD
S3150801220036F025F9012072E704F1240087554FF0CD
S315080122108B010AFB01F1344A02EB81004FF0000100
S3150801222001604160816000BF4FF08B000AFB00F03E
S31508012230114601EB800104F1100040F826100AF15D
S31508012240010A0198C07800F00300012804D102A808
S3150801225036F0FDF800204AE70198C07800F003003F
S315080122604FEA460100FA01F040EA090900BF6A4649
S3150801227001A9204601F0BAF900289AD1B9F1000F4F
S3150801228004D102A836F0E3F8012030E7A4F8B090AB
S315080122904FF47A702FF09AFD0021584628F00EFE69
S315080122A000221249432032F015FF00220F492A2045
S315080122B032F010FF4FF0FF3068614FF48050A8618B
S315080122C04FF0000140F634004151A86840F0010082
S315080122D0A86002A836F0BBF8002008E734380240A7
S315080122E0D82C0010400C0040902D0010E53601084E
S315080122F010B501F01FFE10BD10B501F09FFE10BD0F
S3150801230070B505464FF001002AF0C8F902202AF0F7
S31508012310C5F90A4804684FF00000094908804FF0DA
S3150801232001024FF0100120461EF0E9FB02202AF0B7
S31508012330C9F901202AF0C6F970BD0000A0010010F4
S31508012340145400402DE9F04782464FF001002AF067
S31508012350A5F902202AF0A2F97B4806687B48046899
S31508012360A5697B48078800F10400B0F80090794810
S31508012370B0F8008000BFE06900287AD017F0010F95
S3150801238018D0012D05D128F480618846714A11803B
S3150801239006E0022D04D148F4006188466D4A118091
S315080123A0717F4FEA41614FEA116000F101016A4A02
S315080123B011809BE017F0020F0FD0012D05D148F4CB
S315080123C0007080466349088049E0022D47D128F408
S315080123D0806080465F49088041E03CE0022D05D1D6
S315080123E048F4007188465B4A11800AE0032D08D13A
S315080123F017F0040F00D131E028F480618846554A68
S31508012400118055490988C8B200BF2168E26812B12E
S315080124104FF0000213E0226802F101022260A3686C
S3150801242022689A4202D14FF000022260D4E90023C1
S315080124309A4202D14FF00102E26022690A44107001
S31508012440616901F101016161A5F101010D46A16110
S315080124503F490F8800BF17F0400FBFD100BF012DBC
S3150801246044D13E48008840F480603C4908803DE0FC
S31508012470FFE717F0010F07D0717F4FEA41614FEA75
S3150801248011603549088031E027E000BF6068D4E96A
S315080124900021914204D1E16811B94FF000010FE022
S315080124A0616801F101016160D4E90112914202D129
S315080124B04FF0000161604FF00001E16021690144BC
S315080124C0087825490880606900F101006061A5F175
S315080124D001000546A0611E48078815B117F0800F4F
S315080124E0D3D117F0040F01D105F101051DBB00BFBA
S315080124F0D6E90510884202D14FF0010001E04FF0FC
S31508012500000098B91548008820F4806013490880AE
S31508012510B16901F10100B061306950F821000B4938
S31508012520086040F201500B49088004E001220821A5
S3150801253030461EF0E4FA02202AF0C4F801202AF0F7
S31508012540C1F8BDE8F0870000A0010010A401001041
S3150801255014540040005400401054004004540040F4
S315080125607CB50021684635F06DFF1548C06820B96D
S31508012570684635F06CFF00207CBD01F09BF84FF0F2
S3150801258000000F49C86000BF0D4D28462DF0ABFC71
S31508012590044664B100BF2068616801B1086000B1F2
S315080125A041604FF000022260626000BF00BF00BFB9
S315080125B0002CE9D1684635F04AFF0120DCE7000026
S315080125C0F8FE001001460448006818B14FF00000F3
S315080125D0014A1060002070473401001010B54FF011
S315080125E000040FE004EB440000EBC400074901EBCB
S315080125F0C000406910F4003F02D0204624F04CFF89
S3150801260004F10104032CEDDB10BD000030FD0010C0
S3150801261070B504480568284623F032FF4FF00004D8
S31508012620204670BDC40000102DE9F0470446A146B6
S31508012630484634F00EFB8246504632F0F7F910B19F
S31508012640DAF84C0001E04FF00000804641463F4869
S3150801265035F0B3FB06463D48D0F88071C0F8804195
S3150801266004F1300037F020FA10B14FF0414501E08E
S315080126704FF000054FF00000A0623448006810F0E2
S31508012680004F01D037F002FB142104F128001CF099
S315080126909DFD42E0002D06DB204601F009F90546BD
S315080126A0002D00DB44E0B5F1414F08D0B5F1424FAA
S315080126B003D0B5F1784F05D100E000BF38E000BF7F
S315080126C000BF10E0204634F0C4FA8046404632F096
S315080126D0ADF928B14246294604F130002DF0DEFC59
S315080126E04FF0414500BF00BF1848006810F0004F81
S315080126F000D019E020462DF09BFB051E00DA17E0F5
S315080127001248006810F0004F00D00DE004F13000C7
S3150801271037F0CAF900B107E000BFA06A20B90B4833
S31508012720006810F0004FB5D000BF4FF0007500BF2C
S315080127303146064835F041FB0448C0F8807100214E
S3150801274008461CF043FD2846BDE8F087F01D001039
S3150801275010B50648006830B14FF00000034908601B
S31508012760034822F055FB002010BD0000300100107F
S31508012770942B001010B5034801F078F94FF00004C6
S31508012780204610BD6C2400102DE9F041044620783E
S31508012790002876D123F094FE594E00F025FF07460E
S315080127A04FF000006060A060E7606661206100BFCD
S315080127B004F118002FF006FF4FF000016162084688
S315080127C0A062E06200BF3EE04E4A52F8202002F4C1
S315080127D07F42A16AB2F5807F02D14FF001022DE056
S315080127E0484A52F8202002F47F42B2F5007F02D10E
S315080127F04FF0040222E0434A52F8202002F47F42B5
S31508012800B2F5407F02D14FF4804217E03D4A52F8B3
S31508012810202002F47F42B2F5806F02D14FF00052B8
S315080128200CE0384A52F8202002F47F42B2F5E06FF4
S3150801283002D14FF0804201E04FF0000241EA020165
S31508012840A16200F101000028BED04FF0000044E06B
S315080128502C4A121D52F8202002F47F42E16AB2F591
S31508012860807F02D14FF0010232E0264A121D52F84A
S31508012870202002F47F42B2F5007F03D14FF0040213
S3150801288026E037E01F4A121D52F8202002F47F4243
S31508012890B2F5407F02D14FF4804219E0194A121D60
S315080128A052F8202002F47F42B2F5806F02D14FF030
S315080128B000520DE0134A121D52F8202002F47F42FD
S315080128C0B2F5E06F02D14FF0804201E04FF000020D
S315080128D041EA0201E16200F101000028B8D00A4983
S315080128E0A06A40EA010060634FF0000020634FF0E0
S315080128F0010020704FF000052846BDE8F081000070
S31508012900102A001044000010174009782DE9F04FED
S3150801291085B005464FF0000004904FF004012846A3
S3150801292034F056FD0446AE6F4FF0000868E0228A7F
S31508012930E96F01EB4200277D08E0049901F10102E4
S3150801294004920180A7F1010700F10200002FF4D1DA
S31508012950424603A8E96835F075FE03A9684637F0CB
S31508012960C3F8BA4600BF0298C08A10F4804F03D054
S31508012970308840F00200308024490098D1F830119F
S31508012980884203D1308840F0040030800298407DA7
S3150801299050441FFA80FA684635F0B2F90028E2D1A8
S315080129A0A6F802A0618AE86F00EB410B677DAAEBE6
S315080129B0070000F1010907E0ABF80090A7F101074C
S315080129C009F101090BF1020B002FF5D16389D5F83D
S315080129D0802002EB4300227B637B1A44A37B02EB34
S315080129E0030105E0A0F80080A1F1010100F1020050
S315080129F00029F7D108F1010804F1180406F10806BF
S31508012A00286B404593DC05B0BDE8F08FB01F001078
S31508012A102DE9F04780464FF00005124C2E461DE081
S31508012A20A768386898B9206858B985B1A86834F094
S31508012A304BFA81463B464A464046616834F012FAEB
S31508012A4005E03B464046D4E9002134F041FA2068C6
S31508012A5000B1254606F1010604F10C045D2EDFD30B
S31508012A60BDE8F087A4DA06082DE9FE4F06464FF0C1
S31508012A700101304634F0ACFC0446D6F86C804FF0C0
S31508012A80000756E0A08810F4004F28D0A288C2F3A8
S31508012A900E02F06E00EB8201684637F025F830B970
S31508012AA0A18828A034F0BBF94FF07F4547E021887B
S31508012AB0304635F0ADFD8146684634F005FA824662
S31508012AC0434652464946019834F0CCF930B949464D
S31508012AD024A034F0A4F94FF07F4530E023E0A18823
S31508012AE0B06E50F82190B9F1000F02D14FF07F4531
S31508012AF025E06188304635F08BFD824621883046CF
S31508012B0035F086FD8346434652465946484634F0D3
S31508012B10DFF938B95A46514619A034F080F94FF011
S31508012B207F450CE000BF07F1010704F1080408F12D
S31508012B300408706AB842A5DC4FF0000500BF2846B4
S31508012B40BDE8FE8F5265736F6C76653A20756E6BBC
S31508012B506E6F776E2073636F70653A20253038780B
S31508012B600D0A00005265736F6C76653A20756E6BB7
S31508012B706E6F776E20747970653A2025730D0A0099
S31508012B805265736F6C76653A20756E6B6E6F776EEC
S31508012B9020747970653A2025732E25730D0A000075
S31508012BA02DE9F04385B004464FF00201204634F082
S31508012BB00FFC0546D4F870804FF000072AE06A88B2
S31508012BC0E06E00EB820102A836F08EFF30B9698803
S31508012BD015A034F024F94FF07F4621E029882046D4
S31508012BE035F016FD8146A888CDE9000823464A46F0
S31508012BF0DDE9030100F047FF30B9494614A034F076
S31508012C000EF94FF07F460BE007F1010705F10805BC
S31508012C1008F10408A06AB842D1DC4FF0000600BFEB
S31508012C20304605B0BDE8F0835265736F6C76652052
S31508012C304669656C643A20756E6B6E6F776E2073A4
S31508012C40636F70653A20253038780D0A0000000058
S31508012C505265736F6C76653A20756E6B6E6F776E1B
S31508012C60206669656C643A2025730D0A0000000028
S31508012C702DE9FF5F04464FF0000120462FF0FAFECA
S31508012C8006464FF000073CE0204D3A4603A8E168A6
S31508012C902FF0F9FE4FF0000824E0D5F80490D5F896
S31508012CA008A0D9F80000C8B1DAF80000B0B9494659
S31508012CB0684636F019FF08B936F0E8FF0198A042D0
S31508012CC00BD13188204635F0A3FC8346296836F0B6
S31508012CD077FF10B90398CAF8000000BF08F1010888
S31508012CE005F10C05B8F1020FD7D3706810F0006F23
S31508012CF003D007480399C0F80C1107F1010706F13B
S31508012D001006A06BB842BFDCBDE8FF9F00DF0608CE
S31508012D10242100102DE9F04F87B004464FF0030136
S31508012D20204634F055FB0546D4F874804FF0000769
S31508012D3053E06A88E06E00EB820104A836F0D4FEFF
S31508012D4030B969882AA034F06AF84FF07F464AE01C
S31508012D502988204635F05CFC03904FF000090FE006
S31508012D60A888CDE900082346039ADDE9050100F0A4
S31508012D70B2FE10B14FF0010905E004A834F0C0FF16
S31508012D8004980028ECD100BFB9F1000F1FD16A8859
S31508012D90E06E00EB820104A836F0A6FEDDF818A065
S31508012DA0DDF814B0BAF80010584635F031FC029037
S31508012DB0BAF80210584635F02BFC0190014616A0C8
S31508012DC0DDE9022334F02BF84FF07F460BE007F1DB
S31508012DD0010705F1080508F10408E06AB842A8DC0C
S31508012DE04FF0000600BF304607B0BDE8F08F00007F
S31508012DF05265736F6C7665204669656C643A207511
S31508012E006E6B6E6F776E2073636F70653A2025302F
S31508012E1038780D0A000000005265736F6C76653AC2
S31508012E2020756E6B6E6F776E206D6574686F643A88
S31508012E302025732E25732E25730D0A002DE9FE4FC5
S31508012E40044688464FF0010002904FF000012046E3
S31508012E5034F0BEFA0546A76E4FF0000946E0298808
S31508012E60204635F0D5FB82463868002838D14FF020
S31508012E70010B6069006910F0020F05D05046A1697F
S31508012E8036F09EFE00B900BF5B462A1D51461A4818
S31508012E9035F086FB06461EB1306910F0010F1DD1CB
S31508012EA0B8F1000F16D06069408C6169098CCDE9CB
S31508012EB000106069C38B828B10A0A16933F0AFFF44
S31508012EC068892989CDE90010EB88AA88514612A09C
S31508012ED033F0A5FF4FF00000029000E03E6000BF0E
S31508012EE009F1010905F10C0507F10407206A4845AE
S31508012EF0B5DC0298BDE8FE8F242100104173736585
S31508012F006D626C793A202573202825642E25642E56
S31508012F1025642E2564290000206E65656473206189
S31508012F207373656D626C79202725732720282564BC
S31508012F302E25642E25642E2564290D0A000000001D
S31508012F402DE9F04F91B004464FF00001204634F0C8
S31508012F50C5F91090D4F878904FF0000679E032461A
S31508012F600FA8E16835F06EFB0FA90CA836F0BCFD79
S31508012F7000220FA920461BF065FF074657E0DDF83A
S31508012F8038A0BAF812100D982FF001FD05464FF03A
S31508012F90000B44E0E88810F0080F3CD12A4606A841
S31508012FA00D9934F086F802A906A834F0ABFDB0F104
S31508012FB0000800DA53E004E0394613201AF03CFC15
S31508012FC007460399481E03900029F5DC9DF8100071
S31508012FD039461AF031FC07469DF81000112802D02F
S31508012FE0122807D100BF3A4605A920461BF02AFF39
S31508012FF0074600BF00BF29880D9835F009FB0190E7
S31508013000019836F0EDFC3A4601460090019836F0F3
S31508013010DBF8074600BF0BF1010B05F108059AF825
S3150801302015005845B6DC0CA834F06AFE00BF0C98AA
S315080130300028A4D10FB1384601E04FF0FF30C9F896
S31508013040040006F10106109800F11800109009F124
S315080130500809206BB04282DC4FF0000800BF4046E9
S3150801306011B0BDE8F08F000070B504480568284620
S3150801307000F036FE4FF00004204670BDB80000107F
S315080130802DE9F04104462546D4F8007109E02E6879
S315080130902EB1304635F014FA4FF00000286005F1DC
S315080130A004053800A7F10107F1D1C4F80001BDE80C
S315080130B0F081000010B500BF05480446682205499D
S315080130C030F09EFF18B90021084630F09FFD10BD6B
S315080130D020980608B80100102DE9F04104464FF082
S315080130E0000704F1D40034F07BFA064604E04FF0F9
S315080130F0010086F83C002E46304636F01AF90500DE
S31508013100F5D1012204F5C271204619F0A7FF002264
S3150801311004F5C871204619F0A1FF04F5AC712046E3
S3150801312019F0DBFD04F5B271204619F0D6FD1948F0
S31508013130406820F004001749486004F1D40034F0CF
S315080131404FFA054615E0287E012811D195F83C006D
S3150801315040B14FF00200287628462AF05AFD4FF072
S31508013160010705E00B48406840F00400094948603A
S315080131703546284636F0DDF80600E4D13FB14FF072
S315080131800071204636F005F8204625F031FF38460D
S31508013190BDE8F081F01D0010F8B50646304635F059
S315080131A0C1F9304635F0E0F906F59E7034F018FAA3
S315080131B0044620E0206910F0040F1BD0A06AC8B1AC
S315080131C0A06A36F066FD0746384635F089FA80B1B9
S315080131D04FF0000000906946384634F009FE002891
S315080131E006DBA06A009948661548009935F004F986
S315080131F000BF00BF2C46204636F09BF80500D9D102
S315080132000F4835F0F3FA0E4D2846D0F800710FE055
S315080132102C685CB1606E48B1206910F0020F05D1C7
S315080132204FF000006066204635F04AF905F10405BD
S315080132303800A7F10107EBD1014835F097FAF8BD37
S315080132402421001070B5044647494FF0000044F8A0
S31508013250E81F606036F004FC20624FF0000084F835
S315080132603000A4F1E80404F594702FF0ABF94FF09F
S315080132700000C4F8380104F59E702FF0A3F904F58F
S31508013280A4702FF09FF94FF00000C4F8540104F51B
S31508013290AC702FF097F904F5B2702FF093F904F595
S315080132A0B8702FF08FF904F5C2702FF08BF904F579
S315080132B0C8702FF087F94FF00000C4F8A40100F098
S315080132C0A1FF01F01FF800F09FFF4FF00000C4F8BE
S315080132D0A801C4F8B00104F1D4002FF073F94FF036
S315080132E00000C4F8E0004FF00100C4F8E4004FF014
S315080132F00000C4F88001C4F8B80184F8B401204676
S3150801330000F038FF051E00DA2BE0184800F090FDA2
S31508013310174800F071FD00F097FB051E00DA20E062
S3150801332000F092FA051E00DA1BE000F081FC051E8A
S3150801333000DA16E004F1E0010EA034F0FBF9051EEF
S3150801334000DA0EE0204622F078FA35F007FA04F59D
S31508013350807203C204F5947000F05EFF4FF0000519
S3150801336000BF284670BD00000046C3232421001073
S315080133703422001064656661756C7400704738B54F
S3150801338004464FF00000009001E031F0C1FC6946A7
S31508013390204623F0C1FD0028F7D138BD10B50446F3
S315080133A04FF00001054824F059F918B103482AF0ED
S315080133B0ABF902E002A000BF00BF10BD58250010FE
S315080133C0436F6E74656E742073796E6368726F6E7F
S315080133D0697A65642121000010B505E0204629F0C7
S315080133E0D7F9204633F008FF00BF0649086800BF31
S315080133F0416809B1014601E04FF000010C46002C75
S31508013400ECD110BD6434001070B50BE0A06918B199
S31508013410A069816820468847204629F0B9F92046DF
S315080134202AF00AFC00BF07480568284635F081FFDF
S3150801343008B1284601E04FF000000446002CE5D10A
S3150801344070BD0000583400100FB42DE9FE438146C3
S31508013450159C4FF07C054FF00000019084B90121BD
S31508013460284635F00BFD0190019810B94FF07A46C0
S3150801347060E0019F2946384636F0E2FB00BF00BFEF
S315080134804FE02A4601A90BA832F076FF00B949E0B8
S31508013490DDF80480404621F04FFD00B942E0404680
S315080134A035F0D4F800F1030020F0030764B90C21C4
S315080134B0384633F0B0FE0290029828B9019835F0E3
S315080134C011FD4FF07A4635E0012269420BA800F05A
S315080134D0E3FC3A4602A90BA832F04EFF00B921E0F7
S315080134E0DDF80880404635F0FBF820B914B9029892
S315080134F035F0F8FC16E012A033F091FC6A46414615
S31508013500484621F09FFE002804DA14B9029835F0DE
S31508013510E9FC07E00098006940F008000099086195
S3150801352000BFAEE700BF14B9019835F0DBFC4FF0D8
S31508013530000600BF3046BDE8FE035DF814FB000037
S31508013540417474616368696E67206465706C6F792C
S3150801355065642066696C652E0D0A00002DE9FC5F1D
S315080135600D469046D8F800002968A0EB010000F145
S31508013570030020F003076A4601A8296800F002FB48
S3150801358040B3019830B3019833F01BFF8346DBF84B
S315080135900000C0F34000E0B90C21384633F03BFE89
S315080135A0044614B94FF07A4617E0DDE900A9D9E9CE
S315080135B0021023463A46D1F80CC05146E04710B9E5
S315080135C04FF0774609E02C6004EB0700C8F80000C5
S315080135D000BF00BF4FF0000600BF3046BDE8FC9FA4
S315080135E0014601F104007047102070472DE9F043A8
S315080135F081460C4615464FF000024FF00201484637
S315080136002BF094F88046B8F1000F02D10020BDE8EE
S31508013610F08308F10D06B8F8020000EB08072068E8
S3150801362020B926604FF00000286022E02068B042E9
S315080136301DD92068B8421AD22868B04217D328681B
S31508013640B84214D220684078052810D1206800783D
S3150801365007280CD128684078042808D128680078FA
S31508013660092804D1206800F10700206001E0002044
S31508013670CDE719E020684078042806D1206800784B
S31508013680092802D12068286009E0206840780528C1
S3150801369005D120680078072801D10120B7E72668F7
S315080136A020680078064426602068B842E2D30020E4
S315080136B0ADE7000010B51F2027F038FF202027F0BE
S315080136C035FF4FF00000054908800548006820F4D9
S315080136D00010034908604FF0010010BD0054004076
S315080136E04038024010B5044602494FF0A04029F07F
S315080136F0D5FD10BDD82C00102DE9F04706460F461A
S31508013700C6F3421906F01F08484631F087F9044600
S315080137100CB9BDE8F087206808B1E06800B9F8E798
S315080137202FB104F1380000EB4800457803E004F1B5
S31508013730380010F81850FF2D04D004F1100050F885
S31508013740250000B9E5E704F1100050F8250028B175
S3150801375004F1100151F825002AF030FE00BFD8E720
S315080137602DE9FF5F0546884691469A46DDE90EB67C
S31508013770002D01DB032D03DB002004B0BDE8F09F1B
S31508013780002102A834F05EFE05EB450000EBC500FA
S31508013790294901EBC004606910F4003F47D14FF095
S315080137A00000E063256460616069244940EA01001C
S315080137B0606116F0080F03D0606940F4807060619B
S315080137C016F0100F03D0606940F00400606116F02E
S315080137D0020F03D0606940F4006060614FF44070E5
S315080137E060634FF48070A0634FF00001C4E90611CD
S315080137F0134800EB05214FF48072204619F075FE37
S31508013800104800EB85214FF4806204F1200019F07D
S315080138106CFE53464A4641462846CDE900B600F0B5
S315080138207DFD074602A834F012FE3846A5E702A830
S3150801383034F00DFE0120A0E730FD0010080002005B
S31508013840D80E0010D8110010FEB5164816490860A2
S3150801385008464FF0B00605683146284636F0F0F9B5
S3150801386000BF4FF0000404EB440000EBC4000E490E
S31508013870096801EB0010214600910C4ACDE90110B7
S3150801388052F8241004EB440202EBC402064B1B68EF
S3150801389003EB021023461A4621F04AFC00BF2746CD
S315080138A03846FEBDA8260010C400001048000010C6
S315080138B02DE9F0410646B4E0304633F0CAF904462C
S315080138C0204631F0B3F828B94FF00200F0614FF005
S315080138D08075B1E0606A10F44C5F46D0606A10F0FA
S315080138E0005F02D04FF07F45A6E0606A10F4085FDA
S315080138F002D04FF042459FE0606A10F4805F17D00E
S31508013900606A20F4805060624FF001021146204639
S315080139102BF0B2FE051E07DAB5F1424F03D1606AF4
S3150801392040F40050606287E0606A40F4804060625B
S31508013930606A10F4807F18D0606A20F48070606233
S315080139404FF000024FF0010120462BF095FE051EAF
S3150801395007DAB5F1424F03D1606A40F4007060623C
S315080139606AE0606A40F480606062606A00F003079A
S3150801397017B1012F08D102E036F03CF804E0606A7D
S3150801398040F48030606200BF00BF2D488069B0F501
S31508013990803F03D2606A40F02000606228E020463A
S315080139A0616B8847054606F1300036F07DF808B1A7
S315080139B04FF04145304633F04CF90446204631F084
S315080139C035F828B94FF00200F0614FF0807533E001
S315080139D0B5F17A4F0BD1606A10F0200F07D0606AF3
S315080139E020F020006062174834F0BEFD00E000E0D8
S315080139F0D5E700BF17B936F00FF800BF00BF002D95
S31508013A0003DAB5F17B4F0BD016E0606A20F48030FB
S31508013A1060622DB9304633F01CF980462CF0F4FB70
S31508013A2000BFB06A28B90748006810F0004F3FF494
S31508013A3043AF4FF0007500BF2846BDE8F08100008E
S31508013A4024240010F01D001070B5074C4FF03805FE
S31508013A502946204636F0F4F800BF4FF0000021460B
S31508013A6008700646304670BD6C24001010B5044631
S31508013A702078012806D124F04FFC24F04FFC4FF0A2
S31508013A800000207010BD2DE9FE4381460C461746FD
S31508013A901D46DDE90A86CDE901860095627D618AC2
S31508013AA03B46484619F03CFF10B10120BDE8FE83AC
S31508013AB0CDE901860095227D218A3B46484619F0C3
S31508013AC02FFF08B10120F1E700BF4FF00000306079
S31508013AD000BF00BFEAE72DE9F04F8FB005460C4657
S31508013AE091461E46DDF860A0207B617B0844A17BD8
S31508013AF000EB010B618928462EF0BCFF80464FF08A
S31508013B00000737E0B8F80010284634F081FD0E901A
S31508013B1049460E9836F054F840BB4FF001000D9017
S31508013B20AAF57F40FF3814D04246294607A835F042
S31508013B3085FA5146304633F07CFA02463146009002
S31508013B4001A82DF0A1FE01A907A82EF0B1FD0D903F
S31508013B5000BF0D9848B16089C219E96819982EF015
S31508013B6092FF01200FB0BDE8F08F00BF07F10107F2
S31508013B7008F110085F45C5DB19982EF0AEFD002047
S31508013B80F0E700002DE9F04107460D4614464FF0CF
S31508013B90000038602448006810B90020BDE8F081AB
S31508013BA0224825F0C0F906460EB90020F6E734E0AA
S31508013BB0304633F006FC80464FF0000224E002EB63
S31508013BC08203D8F8180000EB83010868A84219D8BF
S31508013BD091E8091003FB0C00A84213D93E60086856
S31508013BE0A5EB00008B68B0FBF3F0206020688B68BA
S31508013BF000FB03F0206020680B68184420604FF032
S31508013C000100CBE702F10102D8F814009042D6D898
S31508013C10304633F023F8064600BF304633F01EF827
S31508013C200028C5D100BFB9E770000010780E001052
S31508013C3030B58BB04FF000042348244908604FF093
S31508013C40B001234835F037FF04212048006835F0D4
S31508013C5032FF204850F824001E49091F8968884206
S31508013C6006D11D4800681949096841F8240006E08B
S31508013C70174800EB84001549096841F82400154ADC
S31508013C8052F82410114A126802EB840000F08CFDE8
S31508013C90051E00DA14E004F101044FF0500101A8F1
S31508013CA026F028FD18B10D490A98086003E04FF07F
S31508013CB000000A49086000F02FFB4FF0000500BF1D
S31508013CC028460BB030BD0000B0000010B800001047
S31508013CD0A424001044000010C400001020000010A5
S31508013CE010B50446206822F0CBFB10BD2DE9FF5F15
S31508013CF004460D4690464FF0000003902068A8EB55
S31508013D0000000290029832F096FF0746002F40D035
S31508013D1028680190B946286800EB050629464846F1
S31508013D202A6836F00DF8286881441AE0F068A0B1CF
S31508013D3006F1500BDBF8000070B1F06822F0C8FB01
S31508013D4000F1500A52463146484635F0F9FFD1444A
S31508013D5001985044019000BF00BF304622F07EFB17
S31508013D6006464645E2D3D4F800B0D4F80CA0DAE901
S31508013D7002104A6A59469047002000903B4621683E
S31508013D80E068019A30F0DEFB0390384632F05BFFBB
S31508013D9000BF039804B0BDE8F09F00002DE9F0418B
S31508013DA004460D4617461E4625B1284635F018FE27
S31508013DB0402802D30020BDE8F0815021204635F085
S31508013DC06CFF0C4820604FF000023146384635F04A
S31508013DD0FBF9A060E6602A46402104F1100032F0A2
S31508013DE036FB0122482104F1080035F0EDF960603F
S31508013DF00120E0E748414C3270B504464FF4F871AA
S31508013E00204635F058FEC4F8E041D4F8E0514FF0A9
S31508013E10280604E028462EF0D5FB05F10C053000EE
S31508013E20A6F10106F6D104F5F27000F0FBFC70BDAF
S31508013E3010B504464FF48871044835F03CFE4FF43A
S31508013E40BA71034835F037FE10BD00002421001071
S31508013E50B01F00102DE9F04704460F462546D4F851
S31508013E6000910FE02E685EB13846B16935F0A8FEBB
S31508013E7030B9304622F0EAFBB0F1000800DA08E072
S31508013E8005F104055FEA0900A9F10109EAD18046AD
S31508013E9000BF4046BDE8F0872DE9F04104460E46CD
S31508013EA0174627B1012F05D0022F07D104E04FF09D
S31508013EB0000506E0656804E0A56802E00020BDE8A3
S31508013EC0F08100BF6FF00040864202D0401E864254
S31508013ED014D1E168B5FBF1F201FB12506FF0004114
S31508013EE08E4203D1E168A1EB000606E010B1C0F1EC
S31508013EF0000602E0E168C1F1000600BF354408E0AA
S31508013F00A068A5EB0005204632F0ABFE08B90020F3
S31508013F10D5E7A068A842F3DD07E0204600F0F6FCE5
S31508013F2008B90020CBE7A0680544002DF5DB6560DC
S31508013F300120C4E72DE9F84300F091FE4FF0000592
S31508013F403BE005EB4501214800EB4118284600F006
S31508013F50E1FA284600F0FCFE0746781C07D135F041
S31508013F60E7FD046821461AA035F0C6FE23E01D4880
S31508013F7040F8257042460321284600F091FD002DA0
S31508013F8018D1384632F0D8FA0646002E12D006F174
S31508013F900404E0780090A3786278217812A031F0C1
S31508013FA0C3F8E0780090A3786278217817A035F0F5
S31508013FB0A3FE00BF00BF05F10105044808384068A3
S31508013FC0A842BEDC0120BDE8F8830000C00100104C
S31508013FD0536F636B65744572726F723A2025640A72
S31508013FE000000000040400100C0A0A0A0A0A0A0A58
S31508013FF0697020616464726573733A2025642E259D
S31508014000642E25642E25640D0A000000697020615E
S315080140106464726573732066726F6D20696E746568
S31508014020726661636520696E666F3A2025642E257E
S31508014030642E25642E25640D0A00000010B54FF084
S3150801404001041948006860B3184832F049FB10B1F9
S3150801405016482AF079F9164833F064F914483038C5
S3150801406033F060F94FF000001149A1F138010870E9
S315080140704FF0010024F078FE00F04CF94FF0FF30C4
S315080140800B49A1F1380188664866086600F03EFAD0
S3150801409004464FF0000004490860064908600649CD
S315080140A00860204610BD000084000010A00E001014
S315080140B040FF0010880000108C00001070B50446FF
S315080140C00D46012C00DB70BD5DB104EB441101EB1B
S315080140D041020A4901EB82004FF4C672294635F0BE
S315080140E0F5FE00BF0648064601234FF4CA72034986
S315080140F008392FF0ABFE00BFE5E7000028020010E3
S31508014100149806082DE9FC4107460E464FF00008AB
S3150801411007F5A47033F064FA04461CE0A06910F0B0
S31508014120004F17D0D4E90801CDE90001A069C0F311
S3150801413040733246694638461BF0C8FD48B10C48FB
S31508014140006810F0806F04D1204600F063FD4FF03F
S31508014150010800BF2C46204635F0EBF80500DDD1F5
S31508014160B8F1000F02D0384624F0E0FEBDE8FC8124
S31508014170F01D00102DE9F84F804620480090204890
S31508014180D0F8009044684FF000054FF0010B202C41
S3150801419002D84FF07A472DE027E0CA4617488442ED
S315080141A001D2204600E015480646B5F1C86F02DD82
S315080141B04FF6FF7B0AE0B5F5200F02DD4FF4205BD1
S315080141C004E0B5F5801F01DD4FF4806B5A46314690
S315080141D0504600F01FFC514608F5947032F032FF44
S315080141E0B144A4EB0604354400BF202CD5D84FF0C2
S315080141F0000700BF3846BDE8F88F0000F4FF0B0042
S31508014200900000107047000010B502482EF0DAF948
S3150801421010BD0000643400102DE9F14F84B00498F4
S3150801422033F0DEF9074663E0BE69F86903905BE09F
S31508014230304635F0BAFC18284FD13446D4F82890C0
S31508014240049833F0CDF9824639E0DAF81850DAF8ED
S315080142501C0002904D4531D8029881452ED225E0A1
S315080142604D451CD10195019DE9686069814215D1C9
S31508014270019835F00EFD0090014604F10C006269C3
S3150801428032F08EFEE168884208D1206940F080410B
S315080142902161204634F0B2FF4FF0000409E02846B8
S315080142A031F07EFD00EB400005EB80050298854262
S315080142B0D6D300BF0298854200D206E0DA465046B8
S315080142C035F037F85FEA000BBFD100BF24B14FF0D4
S315080142D01500207000BF00BF00BF304631F060FDF9
S315080142E000EB400006EB800603988642A0D34746BA
S315080142F0384635F01EF85FEA000895D105B0BDE8E5
S31508014300F08F000010B502482EF05CF910BD0000D0
S315080143105834001001207047704700002DE9FF4FFF
S3150801432089B0044690469946DDF85CA0032C03DB68
S3150801433000200DB0BDE8F08FB8F1030F01DB0020B6
S31508014340F7E7002107A834F07DF8654850F824609E
S31508014350052C08D16348006840F0200061490860CF
S31508014360DFF884B115E064B1604800684FF4803124
S3150801437001FA04F140EA01005C490860DFF870B10E
S3150801438007E05848006840F0200056490860DFF801
S3150801439058B10A980BEB6001B1FBF0F080B20690B8
S315080143A0069830814FF00C05B9F1090F01D145F492
S315080143B08055B8F1000F01D045F48065B8F1010FB9
S315080143C001D145F40075B581B9F1010F01D14FF05D
S315080143D000094FEA09704FEA104030824FF0000594
S315080143E01AF0040F01D045F400751AF0020F01D036
S315080143F045F48075B58202A803AB04AA05A9009005
S31508014400204634F07BFE4FF072070CB94FF0820755
S31508014410FBB200220221059830F0CCFBFBB2012247
S315080144200021049830F0C6FB1AF0040F0DD003984A
S31508014430401C04D107A834F00AF8002079E7FBB23A
S3150801444000221146039830F0B5FB1AF0020F0DD081
S315080144500298401C04D107A833F0F9FF002068E749
S31508014460FBB201220021029830F0A4FB002120466C
S3150801447022F0FCFF062C28D2DFE804F003090F1509
S315080144801B2100221B49472030F024FE1DE0002293
S315080144901949262030F01EFE17E000221749272069
S315080144A030F018FE11E000221549342030F012FED2
S315080144B00BE000221349352030F00CFE05E00022FE
S315080144C01149472030F006FE00BF00BFB08940F40D
S315080144D00050B08107A833F0BAFF012029E7000090
S315080144E050ED06084438024000BD01054038024037
S315080144F080DE8002054E0108654E0108C54E010899
S31508014500254F0108854F0108E54F010810B500F050
S31508014510E7FF10BD00B503460BB1002000BD03EB54
S315080145204301034A02EB0110194600F0EDFFF5E7D6
S31508014530F009001070B504460E460EB9002070BD8C
S315080145404FF000050EE054F8250048B154F825004F
S315080145500168304635F034FB10B954F82500EEE70A
S3150801456005F1010554F825000028ECD100BFE6E75E
S3150801457001464FF001020A607047000070B5044613
S31508014580044A4FF00003D4E90251284634F0C2F830
S3150801459070BD00000046C323F8B5064629F0AEF9FA
S315080145A03C480768384620F01FFE3B4807683846EE
S315080145B000F088FF706B00F0A7FB04464FF000057A
S315080145C0F06A204205D033480768384600F03EFFB6
S315080145D000BFB06A204215D02F480768384600F058
S315080145E077FF2E48006810F0005F0BD02CA032F040
S315080145F016FC2A48806800F00100012802D0012033
S3150801460034F0F2FC14F0030F01D045F0020514F062
S31508014610805F01D045F0400514F0006F10D11F48A6
S31508014620006810F0004F0ED1214800BF014602680C
S31508014630914202D14FF0010101E04FF0000111B999
S31508014640304600F02FFF14F4804F01D045F0005595
S3150801465014F4002F01D045F0800514F4803F12D0E0
S31508014660684634F09DFC68B1009800F0010000909E
S31508014670104800680099884204D00E4900980860DD
S3150801468045F0080500BF1DB12946044834F081FDEF
S31508014690F8BD0000C4000010B8000010F01D00109D
S315080146A05265626F6F74696E672E2E2E0D0A0000B1
S315080146B084240010E80300102DE9F04704460E464D
S315080146C025466069818C204633F0A2FFA0613068D7
S315080146D00544A56670680544E566B068054425671E
S315080146E0F0680544656730690544A567706905443E
S315080146F0E567B0690544C4F88050F06905444FF090
S315080147000401204632F064FE8146D4F878804FF0E1
S3150801471000070DE04FF00000A8F80000A8F8020015
S31508014720C8F8040007F1010709F1180908F1080892
S31508014730206BB842EEDC0521204632F049FE81465F
S31508014740D4F87C804FF0000709E04FF6FF70A8F80F
S31508014750000007F1010709F1080908F10208606B71
S31508014760B842F2DC0621204632F032FE8146D4F800
S3150801477080804FF0000709E04FF6FF70A8F80000A7
S3150801478007F1010709F1100908F10208A06BB842FF
S31508014790F2DCC4F88450306A0544316AD4F88400DE
S315080147A035F04EFABDE8F087FEB504460D460848D1
S315080147B000680849CDE90104009107492068074ABC
S315080147C00B68294620F0B4FC4FF000063046FEBDC2
S315080147D0FCEB0608F0EB0608F8EB060828EA0608DB
S315080147E010B50446204632F0B5FE04F120002DF03E
S315080147F0E9FE4FF0000020760948D0F8E400E061B0
S315080148000748D0F8E40000F101000549C1F8E400C1
S315080148104FF00000E06220636063A06310BD0000F2
S31508014820F01D001070B505461E4828601E486860D0
S315080148301E48A8604FF0000406E0296801EB8400D1
S315080148400480448004F101042CF0CFF8A042F4D886
S315080148502CF0CDF84FF6FF71884201D335F016FAE0
S315080148604FF0000419E0686800EB84062CF0BFF8E5
S31508014870401EA04202D14FF0000001E004F1010000
S3150801488030802CB92CF0B3F880B2A0F1010001E018
S31508014890A4F10100708004F101042CF0A8F8A042EB
S315080148A0E1D870BD5C270010042800108C28001080
S315080148B070B505460C4607A1A06935F081F908B916
S315080148C0C5F8044106A1A06935F07AF908B9C5F811
S315080148D0084170BD6D73636F726C696200000000F8
S315080148E04D6963726F736F66742E53504F542E4E13
S315080148F06174697665000000014601EB8100024A90
S3150801490002EB8000C079704718DF0608F0B58BB056
S315080149100446606A18B1606A24F02EFB10B90020BB
S315080149200BB0F0BD606A32F04CFD06464FF0280226
S31508014930214601A835F0CAFA00BF4FF00007A06961
S3150801494010BB6069C8B9606A24F016FB6062606AC8
S3150801495018B1606A24F010FB30B9282201A9204653
S3150801496035F0B4FA0020DBE7606A32F02AFD064624
S315080149707069A0F10100606103E06069A0F10100BE
S3150801498060614FF0010703E0A069A0F10100A06191
S31508014990B069616901EB810100EB81051FB1E86826
S315080149A0A0F10100A0612969A26902EB420201EBAB
S315080149B082000168C9B220698142BED13068C0F35C
S315080149C0400020B1E06940F00100E06103E0E069E0
S315080149D020F00100E061A868E0602869A16901EB9F
S315080149E0410100EB81004068E1682A6800FB01206B
S315080149F020602969A26902EB420201EB82001FF0DD
S31508014A00C5FBE1684843A0604FF0000060604FF0C5
S31508014A10010085E72DE9F04104460F461646204672
S31508014A2027F0B0FEA7F120004FF00C01B0FBF1F71B
S31508014A3004F10C002DF0C6FD04F12000A06107EB7E
S31508014A404701A06900EB8100E0613246D4E906011D
S31508014A5000F081FEE8B9A56917E006EB460005EB0B
S31508014A608000E169884206D9E069A0EB05004FF0AC
S31508014A700C0190FBF1F6152040EA0641284632F072
S31508014A80B0FC06EB460005EB8005E069A842E4D8D0
S31508014A9000BF204626F0ECFA00BF00BFBDE8F08152
S31508014AA02DE9F05F80460E461446B8F1000F03D093
S31508014AB04FF07D40BDE8F09F206800F001072068AF
S31508014AC010F0020F02D04FF0010001E04FF0000094
S31508014AD083464F4951F8280031F02EFD054615B990
S31508014AE04FF07F40E6E795F8350010F0080F02D041
S31508014AF04FF0010001E04FF00000814616F0010F6A
S31508014B0036D0BBF1000F03D12069B8B96069A8B9DD
S31508014B1095F8350010F0800F2AD195F8350040F048
S31508014B20800085F835001FB3B9F1000F20D028465B
S31508014B3020F010FC284600F08DFE19E0206938B1F6
S31508014B404FF0000A04F11001504625F021FA00BF82
S31508014B50606938B14FF0010A04F11401504625F095
S31508014B6017FA00BF95F8350020F0800085F8350062
S31508014B7016F0020F1BD04FB1B9F1000F17D1284615
S31508014B8000F068FE98B14FF07F4093E7B9F1000F46
S31508014B900DD0284620F0DEFB04F10C031A1F211D57
S31508014BA0284602F0A5F80021022024F078FB77B107
S31508014BB0B9F1000F0BD016F0080F02D0284628F0DD
S31508014BC059F816F0040F02D0284627F0E3FF16F02D
S31508014BD0100F1AD0E069062801D2E06901E04FF00A
S31508014BE006008246524604F1200105F12F0035F0F0
S31508014BF0A7F885F82EA0404601F028FA404600F0AD
S31508014C00A7F8034941F8280000BF002052E7000031
S31508014C100404001010B5044604F10C002DF03CFD07
S31508014C2000B110BDA06910F0200F00D0F9E7A06906
S31508014C3040F01000A06100BFF3E770B504462046B6
S31508014C4021F08AFC06460022E16834F0BDFA0546E1
S31508014C50A068A84201D0002070BD0120FCE710B56C
S31508014C6001F0D6FF00F026FF00F0B4FF00F042FF86
S31508014C7000F078FF00F020FF0021084600F0B2FF9F
S31508014C8000F0FCFE00F0B6FE10BD00007CB515462E
S31508014C901A460C00009001D02044401E074B7B4465
S31508014CA069460190284601F00CF805461CB100201A
S31508014CB0694601F019F828467CBD0000511000002C
S31508014CC040EA0103024630B59B0710D14FF0013483
S31508014CD000E008C208C91D1B9D4315EAC41FF8D088
S31508014CE013F0FF0102F8011B0DD01B0AF8E711F8B2
S31508014CF0013B002B02F8013B05D011F8013B002BC3
S31508014D0002F8013BF3D130BD7CB504464FF00001F2
S31508014D10684633F097FB0848006800EA0406064827
S31508014D20006820EA0400044908603546684633F0FD
S31508014D308EFB28467CBD00007400001070B5044641
S31508014D400D46164632462946204601F055FC70BDE9
S31508014D5070B5044614B14FF0FF3070BD00BF07A00F
S31508014D600546302209492FF04BF904EB4401074A5D
S31508014D7002EB0110214600F0CBFBEEE7454E43322C
S31508014D80384A36305F4C574950000000F009001088
S31508014D901CB5044604F47F40B0F5807F06D0B0F513
S31508014DA0007F10D0B0F5407F28D122E000200121F4
S31508014DB0134ACDE900101169E2B2501E08230022F8
S31508014DC034F056FE1CBD0021C4F3421034F0F0FE47
S31508014DD008B10020F6E7C4F3421034F0D9FE08B949
S31508014DE00020EFE7E1B2481E0222012134F0A4FEB9
S31508014DF0E8E7E1B2481E2EF0F9FAE3E70020E1E719
S31508014E004000001010B5044614480088144908806B
S31508014E100846008810F0010F09D10846008810F0ED
S31508014E20020F04D10846008810F0080F03D00B4979
S31508014E3000201BF059FD0A48008810F0200F03D006
S31508014E40064900201BF015FD0548008810F0800F63
S31508014E5003D0024900201BF026FD10BD00140140B5
S31508014E60A801001010B504461448008814490880A2
S31508014E700846008810F0010F09D10846008810F08D
S31508014E80020F04D10846008810F0080F03D00B4919
S31508014E9001201BF029FD0A48008810F0200F03D0D5
S31508014EA0064901201BF0E5FC0548008810F0800F33
S31508014EB003D0024901201BF0F6FC10BD0044004056
S31508014EC0A801001010B50446144800881449088042
S31508014ED00846008810F0010F09D10846008810F02D
S31508014EE0020F04D10846008810F0080F03D00B49B9
S31508014EF002201BF0F9FC0A48008810F0200F03D0A5
S31508014F00064902201BF0B5FC0548008810F0800F01
S31508014F1003D0024902201BF0C6FC10BD0048004020
S31508014F20A801001010B504461448008814490880E1
S31508014F300846008810F0010F09D10846008810F0CC
S31508014F40020F04D10846008810F0080F03D00B4958
S31508014F5003201BF0C9FC0A48008810F0200F03D073
S31508014F60064903201BF085FC0548008810F0800FD0
S31508014F7003D0024903201BF096FC10BD004C0040EB
S31508014F80A801001010B50446144800881449088081
S31508014F900846008810F0010F09D10846008810F06C
S31508014FA0020F04D10846008810F0080F03D00B49F8
S31508014FB004201BF099FC0A48008810F0200F03D042
S31508014FC0064904201BF055FC0548008810F0800F9F
S31508014FD003D0024904201BF066FC10BD00500040B6
S31508014FE0A801001010B50446144800881449088021
S31508014FF00846008810F0010F09D10846008810F00C
S31508015000020F04D10846008810F0080F03D00B4997
S3150801501005201BF069FC0A48008810F0200F03D010
S31508015020064905201BF025FC0548008810F0800F6D
S3150801503003D0024905201BF036FC10BD00140140BF
S31508015040A801001010B5044604F47F40B0F5807F2E
S3150801505006D0B0F5007F08D0B0F5407F13D10DE03A
S31508015060E1B2481E34F0B6FC10BDE1B2481E34F078
S315080150702AFDC4F3421034F030FDF5E7E1B2481ECB
S315080150802EF09BF9F0E70020EEE710B5044620461E
S315080150902EF02CFAD4E902238018594110BD0000DC
S315080150A02DE9F05F834614461D46DDF8288000BFCA
S315080150B04FF0000A42F210724FF0000320462946CB
S315080150C033F028FB04460D464FF47A724FF000037D
S315080150D02046294633F01EFBA8F80E204FF47A72B3
S315080150E000232046294633F015FB04460D464FF0AA
S315080150F03C024FF000032046294633F00BFBA8F883
S315080151000C203C2200232046294633F003FB0446A3
S315080151100D464FF03C024FF000032046294633F076
S31508015120F9FAA8F80A203C2200232046294633F03A
S31508015130F1FA04460D464FF018024FF000032046D7
S31508015140294633F0E7FAA8F8082018220023204652
S31508015150294633F0DFFA04460D46661C45F100017F
S3150801516007220023304633F0D5FAA8F8042040F286
S315080151706D1200232046294633F0CCFA40F24161EC
S315080151804018A8F80000B8F80010A1F101014FF085
S31508015190640291FBF2F2B8F80010A1F101004FEA9E
S315080151A0E07100EB9171C2EBA102B8F80010A1F110
S315080151B001014FF4C87391FBF3F10A44A2F5C272D7
S315080151C0B8F80010A1F2416140F26D1301FB032901
S315080151D04FEAE970B4EB090175EB00002ADAB8F871
S315080151E00000A0F10100A8F80000B8F80010A1F12C
S315080151F001014FF0640291FBF2F2B8F80010A1F137
S3150801520001004FEAE07100EB9171C2EBA102B8F817
S315080152100010A1F101014FF4C87391FBF3F10A449F
S31508015220A2F5C272B8F80010A1F2416140F26D13FD
S3150801523001FB0329B4EB090465EBE9754FF01F027D
S315080152404FF000032046294633F064FA401CA8F8BB
S315080152500200B8F800004FEAE07100EB91714FEADD
S31508015260A101B0EB810107D1B8F80010642291FBC6
S31508015270F2F302FB131141B9B8F800104FF4C872E2
S3150801528091FBF2F302FB131139B9B8F80210491C64
S31508015290022902DD4FF0010201E04FF00002B8F8E1
S315080152A00210244B53F8211002EB010A4FEAEA7067
S315080152B0B4EB0A0175EB000005DBB8F8020000F152
S315080152C00100A8F80200B8F800004FEAE07100EB07
S315080152D091714FEAA101B0EB810107D1B8F800102D
S315080152E0642291FBF2F302FB131141B9B8F80010DD
S315080152F04FF4C87291FBF2F302FB131131B9B8F8F6
S315080153000210022902DD4FF0010201E04FF000020E
S31508015310B8F80210A1F10101064B53F8211002EB6E
S31508015320010AB4EB0A01481CA8F806004FF001006F
S31508015330BDE8F09F44EC06082DE9FC410746C7F392
S31508015340421807F01F0640462FF068FB04460CB1C9
S31508015350206810B90020BDE8FC81042E01DB00207D
S31508015360F9E70021684633F06DF804F1380010F8C2
S315080153701650FF2D09D0283850F8250028B104F118
S31508015380100151F8250029F019F84FF0FF0104F131
S31508015390380000F8161000EB46004578FF2D0AD0B4
S315080153A004F1100050F8250028B104F1100151F854
S315080153B0250029F003F84FF0FF0104F1380000EB4E
S315080153C046004170684633F042F80120C3E7000001
S315080153D07CB5064630462FF021FB04460CB9002061
S315080153E07CBD0021684633F02DF8206820B968464F
S315080153F033F02DF80020F3E74FF0000513E004F130
S31508015400380010F81500FF2806D104F1380000EB22
S3150801541045004078FF2804D0684633F018F8002084
S31508015420DEE705F10105042DE9DB4FF000002060F8
S31508015430304600F099FD04482CF0C8FC684633F064
S3150801544006F80120CCE70000A086010010B5044645
S3150801545094F8A80018B104F1300019F000FF10BD46
S315080154602DE9F04104460D4616461F46DDF818801B
S3150801547025606660A760C4F80C804FF00000A4F8A8
S3150801548050004FF0400104F1100034F006FC2146AB
S3150801549004F110002EF0EDF804F1100000F085FF7C
S315080154A0BDE8F08170B50446204601F02DF8051EC9
S315080154B000DA05E0204607F00FFD4FF0000500BFB2
S315080154C0284670BD10B5044620681FF08DFE10BD34
S315080154D010B50446216801F1300019F0C0FE10BD6F
S315080154E010B54FF0000404E0204600F0AFFD04F1CA
S315080154F0010404484068A042F6DC01F09BFB012048
S3150801550010BD0000B801001002464FF001007047B7
